{
	"contracts/counter.sol": {
		"Counter": {
			"abi": [
				{
					"inputs": [],
					"name": "Decreament",
					"outputs": [],
					"stateMutability": "nonpayable",
					"type": "function"
				},
				{
					"inputs": [],
					"name": "Increament",
					"outputs": [],
					"stateMutability": "nonpayable",
					"type": "function"
				},
				{
					"inputs": [],
					"name": "ResetCount",
					"outputs": [],
					"stateMutability": "nonpayable",
					"type": "function"
				},
				{
					"inputs": [],
					"name": "displayCount",
					"outputs": [
						{
							"internalType": "int256",
							"name": "",
							"type": "int256"
						}
					],
					"stateMutability": "view",
					"type": "function"
				}
			],
			"devdoc": {
				"kind": "dev",
				"methods": {},
				"version": 1
			},
			"evm": {
				"assembly": "    /* \"contracts/counter.sol\":61:785  contract Counter {... */\n  mstore(0x40, 0x80)\n    /* \"contracts/counter.sol\":109:110  0 */\n  0x00\n    /* \"contracts/counter.sol\":85:110  int256 internal number =0 */\n  0x00\n  sstore\n    /* \"contracts/counter.sol\":61:785  contract Counter {... */\n  callvalue\n  dup1\n  iszero\n  tag_1\n  jumpi\n  revert(0x00, 0x00)\ntag_1:\n  pop\n  dataSize(sub_0)\n  dup1\n  dataOffset(sub_0)\n  0x00\n  codecopy\n  0x00\n  return\nstop\n\nsub_0: assembly {\n        /* \"contracts/counter.sol\":61:785  contract Counter {... */\n      mstore(0x40, 0x80)\n      callvalue\n      dup1\n      iszero\n      tag_1\n      jumpi\n      revert(0x00, 0x00)\n    tag_1:\n      pop\n      jumpi(tag_2, lt(calldatasize, 0x04))\n      shr(0xe0, calldataload(0x00))\n      dup1\n      0x42bed2c0\n      eq\n      tag_3\n      jumpi\n      dup1\n      0x5dbbb26d\n      eq\n      tag_4\n      jumpi\n      dup1\n      0x87fa4bc2\n      eq\n      tag_5\n      jumpi\n      dup1\n      0x90054010\n      eq\n      tag_6\n      jumpi\n    tag_2:\n      revert(0x00, 0x00)\n        /* \"contracts/counter.sol\":621:698  function Increament  () public DisableIncreament {... */\n    tag_3:\n      tag_7\n      tag_8\n      jump\t// in\n    tag_7:\n      stop\n        /* \"contracts/counter.sol\":705:782  function Decreament  () public DisableDecreament {... */\n    tag_4:\n      tag_9\n      tag_10\n      jump\t// in\n    tag_9:\n      stop\n        /* \"contracts/counter.sol\":119:205  function displayCount () public view returns (int256 ){... */\n    tag_5:\n      tag_11\n      tag_12\n      jump\t// in\n    tag_11:\n      mload(0x40)\n      tag_13\n      swap2\n      swap1\n      tag_14\n      jump\t// in\n    tag_13:\n      mload(0x40)\n      dup1\n      swap2\n      sub\n      swap1\n      return\n        /* \"contracts/counter.sol\":557:615  function ResetCount () public{... */\n    tag_6:\n      tag_15\n      tag_16\n      jump\t// in\n    tag_15:\n      stop\n        /* \"contracts/counter.sol\":621:698  function Increament  () public DisableIncreament {... */\n    tag_8:\n        /* \"contracts/counter.sol\":266:269  100 */\n      0x64\n        /* \"contracts/counter.sol\":257:263  number */\n      sload(0x00)\n        /* \"contracts/counter.sol\":257:269  number > 100 */\n      sgt\n        /* \"contracts/counter.sol\":253:357  if (number > 100) {... */\n      iszero\n      tag_18\n      jumpi\n        /* \"contracts/counter.sol\":302:305  100 */\n      0x64\n        /* \"contracts/counter.sol\":294:300  number */\n      sload(0x00)\n        /* \"contracts/counter.sol\":294:305  number <100 */\n      slt\n        /* \"contracts/counter.sol\":286:345  require(number <100, \"You have reached the maximum number\") */\n      tag_19\n      jumpi\n      mload(0x40)\n      0x08c379a000000000000000000000000000000000000000000000000000000000\n      dup2\n      mstore\n      0x04\n      add\n      tag_20\n      swap1\n      tag_21\n      jump\t// in\n    tag_20:\n      mload(0x40)\n      dup1\n      swap2\n      sub\n      swap1\n      revert\n    tag_19:\n        /* \"contracts/counter.sol\":253:357  if (number > 100) {... */\n    tag_18:\n        /* \"contracts/counter.sol\":689:690  1 */\n      0x01\n        /* \"contracts/counter.sol\":681:687  number */\n      0x00\n      0x00\n        /* \"contracts/counter.sol\":681:690  number+=1 */\n      dup3\n      dup3\n      sload\n      tag_23\n      swap2\n      swap1\n      tag_24\n      jump\t// in\n    tag_23:\n      swap3\n      pop\n      pop\n      dup2\n      swap1\n      sstore\n      pop\n        /* \"contracts/counter.sol\":621:698  function Increament  () public DisableIncreament {... */\n      jump\t// out\n        /* \"contracts/counter.sol\":705:782  function Decreament  () public DisableDecreament {... */\n    tag_10:\n        /* \"contracts/counter.sol\":444:445  0 */\n      0x00\n        /* \"contracts/counter.sol\":434:440  number */\n      sload(0x00)\n        /* \"contracts/counter.sol\":434:445  number == 0 */\n      sub\n        /* \"contracts/counter.sol\":430:529  if (number == 0) {... */\n      tag_26\n      jumpi\n        /* \"contracts/counter.sol\":478:479  0 */\n      0x00\n        /* \"contracts/counter.sol\":470:476  number */\n      sload(0x00)\n        /* \"contracts/counter.sol\":470:479  number >0 */\n      sgt\n        /* \"contracts/counter.sol\":462:517  require(number >0, \"You have react the barest minimum\") */\n      tag_27\n      jumpi\n      mload(0x40)\n      0x08c379a000000000000000000000000000000000000000000000000000000000\n      dup2\n      mstore\n      0x04\n      add\n      tag_28\n      swap1\n      tag_29\n      jump\t// in\n    tag_28:\n      mload(0x40)\n      dup1\n      swap2\n      sub\n      swap1\n      revert\n    tag_27:\n        /* \"contracts/counter.sol\":430:529  if (number == 0) {... */\n    tag_26:\n        /* \"contracts/counter.sol\":773:774  1 */\n      0x01\n        /* \"contracts/counter.sol\":765:771  number */\n      0x00\n      0x00\n        /* \"contracts/counter.sol\":765:774  number-=1 */\n      dup3\n      dup3\n      sload\n      tag_31\n      swap2\n      swap1\n      tag_32\n      jump\t// in\n    tag_31:\n      swap3\n      pop\n      pop\n      dup2\n      swap1\n      sstore\n      pop\n        /* \"contracts/counter.sol\":705:782  function Decreament  () public DisableDecreament {... */\n      jump\t// out\n        /* \"contracts/counter.sol\":119:205  function displayCount () public view returns (int256 ){... */\n    tag_12:\n        /* \"contracts/counter.sol\":165:171  int256 */\n      0x00\n        /* \"contracts/counter.sol\":191:197  number */\n      sload(0x00)\n        /* \"contracts/counter.sol\":184:197  return number */\n      swap1\n      pop\n        /* \"contracts/counter.sol\":119:205  function displayCount () public view returns (int256 ){... */\n      swap1\n      jump\t// out\n        /* \"contracts/counter.sol\":557:615  function ResetCount () public{... */\n    tag_16:\n        /* \"contracts/counter.sol\":606:607  0 */\n      0x00\n        /* \"contracts/counter.sol\":597:603  number */\n      0x00\n        /* \"contracts/counter.sol\":597:607  number = 0 */\n      dup2\n      swap1\n      sstore\n      pop\n        /* \"contracts/counter.sol\":557:615  function ResetCount () public{... */\n      jump\t// out\n        /* \"#utility.yul\":7:83   */\n    tag_35:\n        /* \"#utility.yul\":43:50   */\n      0x00\n        /* \"#utility.yul\":72:77   */\n      dup2\n        /* \"#utility.yul\":61:77   */\n      swap1\n      pop\n        /* \"#utility.yul\":7:83   */\n      swap2\n      swap1\n      pop\n      jump\t// out\n        /* \"#utility.yul\":89:204   */\n    tag_36:\n        /* \"#utility.yul\":174:197   */\n      tag_46\n        /* \"#utility.yul\":191:196   */\n      dup2\n        /* \"#utility.yul\":174:197   */\n      tag_35\n      jump\t// in\n    tag_46:\n        /* \"#utility.yul\":169:172   */\n      dup3\n        /* \"#utility.yul\":162:198   */\n      mstore\n        /* \"#utility.yul\":89:204   */\n      pop\n      pop\n      jump\t// out\n        /* \"#utility.yul\":210:428   */\n    tag_14:\n        /* \"#utility.yul\":301:305   */\n      0x00\n        /* \"#utility.yul\":339:341   */\n      0x20\n        /* \"#utility.yul\":328:337   */\n      dup3\n        /* \"#utility.yul\":324:342   */\n      add\n        /* \"#utility.yul\":316:342   */\n      swap1\n      pop\n        /* \"#utility.yul\":352:421   */\n      tag_48\n        /* \"#utility.yul\":418:419   */\n      0x00\n        /* \"#utility.yul\":407:416   */\n      dup4\n        /* \"#utility.yul\":403:420   */\n      add\n        /* \"#utility.yul\":394:400   */\n      dup5\n        /* \"#utility.yul\":352:421   */\n      tag_36\n      jump\t// in\n    tag_48:\n        /* \"#utility.yul\":210:428   */\n      swap3\n      swap2\n      pop\n      pop\n      jump\t// out\n        /* \"#utility.yul\":434:603   */\n    tag_37:\n        /* \"#utility.yul\":518:529   */\n      0x00\n        /* \"#utility.yul\":552:558   */\n      dup3\n        /* \"#utility.yul\":547:550   */\n      dup3\n        /* \"#utility.yul\":540:559   */\n      mstore\n        /* \"#utility.yul\":592:596   */\n      0x20\n        /* \"#utility.yul\":587:590   */\n      dup3\n        /* \"#utility.yul\":583:597   */\n      add\n        /* \"#utility.yul\":568:597   */\n      swap1\n      pop\n        /* \"#utility.yul\":434:603   */\n      swap3\n      swap2\n      pop\n      pop\n      jump\t// out\n        /* \"#utility.yul\":609:831   */\n    tag_38:\n        /* \"#utility.yul\":749:783   */\n      0x596f752068617665207265616368656420746865206d6178696d756d206e756d\n        /* \"#utility.yul\":745:746   */\n      0x00\n        /* \"#utility.yul\":737:743   */\n      dup3\n        /* \"#utility.yul\":733:747   */\n      add\n        /* \"#utility.yul\":726:784   */\n      mstore\n        /* \"#utility.yul\":818:823   */\n      0x6265720000000000000000000000000000000000000000000000000000000000\n        /* \"#utility.yul\":813:815   */\n      0x20\n        /* \"#utility.yul\":805:811   */\n      dup3\n        /* \"#utility.yul\":801:816   */\n      add\n        /* \"#utility.yul\":794:824   */\n      mstore\n        /* \"#utility.yul\":609:831   */\n      pop\n      jump\t// out\n        /* \"#utility.yul\":837:1203   */\n    tag_39:\n        /* \"#utility.yul\":979:982   */\n      0x00\n        /* \"#utility.yul\":1000:1067   */\n      tag_52\n        /* \"#utility.yul\":1064:1066   */\n      0x23\n        /* \"#utility.yul\":1059:1062   */\n      dup4\n        /* \"#utility.yul\":1000:1067   */\n      tag_37\n      jump\t// in\n    tag_52:\n        /* \"#utility.yul\":993:1067   */\n      swap2\n      pop\n        /* \"#utility.yul\":1076:1169   */\n      tag_53\n        /* \"#utility.yul\":1165:1168   */\n      dup3\n        /* \"#utility.yul\":1076:1169   */\n      tag_38\n      jump\t// in\n    tag_53:\n        /* \"#utility.yul\":1194:1196   */\n      0x40\n        /* \"#utility.yul\":1189:1192   */\n      dup3\n        /* \"#utility.yul\":1185:1197   */\n      add\n        /* \"#utility.yul\":1178:1197   */\n      swap1\n      pop\n        /* \"#utility.yul\":837:1203   */\n      swap2\n      swap1\n      pop\n      jump\t// out\n        /* \"#utility.yul\":1209:1628   */\n    tag_21:\n        /* \"#utility.yul\":1375:1379   */\n      0x00\n        /* \"#utility.yul\":1413:1415   */\n      0x20\n        /* \"#utility.yul\":1402:1411   */\n      dup3\n        /* \"#utility.yul\":1398:1416   */\n      add\n        /* \"#utility.yul\":1390:1416   */\n      swap1\n      pop\n        /* \"#utility.yul\":1462:1471   */\n      dup2\n        /* \"#utility.yul\":1456:1460   */\n      dup2\n        /* \"#utility.yul\":1452:1472   */\n      sub\n        /* \"#utility.yul\":1448:1449   */\n      0x00\n        /* \"#utility.yul\":1437:1446   */\n      dup4\n        /* \"#utility.yul\":1433:1450   */\n      add\n        /* \"#utility.yul\":1426:1473   */\n      mstore\n        /* \"#utility.yul\":1490:1621   */\n      tag_55\n        /* \"#utility.yul\":1616:1620   */\n      dup2\n        /* \"#utility.yul\":1490:1621   */\n      tag_39\n      jump\t// in\n    tag_55:\n        /* \"#utility.yul\":1482:1621   */\n      swap1\n      pop\n        /* \"#utility.yul\":1209:1628   */\n      swap2\n      swap1\n      pop\n      jump\t// out\n        /* \"#utility.yul\":1634:1814   */\n    tag_40:\n        /* \"#utility.yul\":1682:1759   */\n      0x4e487b7100000000000000000000000000000000000000000000000000000000\n        /* \"#utility.yul\":1679:1680   */\n      0x00\n        /* \"#utility.yul\":1672:1760   */\n      mstore\n        /* \"#utility.yul\":1779:1783   */\n      0x11\n        /* \"#utility.yul\":1776:1777   */\n      0x04\n        /* \"#utility.yul\":1769:1784   */\n      mstore\n        /* \"#utility.yul\":1803:1807   */\n      0x24\n        /* \"#utility.yul\":1800:1801   */\n      0x00\n        /* \"#utility.yul\":1793:1808   */\n      revert\n        /* \"#utility.yul\":1820:2195   */\n    tag_24:\n        /* \"#utility.yul\":1859:1862   */\n      0x00\n        /* \"#utility.yul\":1878:1897   */\n      tag_58\n        /* \"#utility.yul\":1895:1896   */\n      dup3\n        /* \"#utility.yul\":1878:1897   */\n      tag_35\n      jump\t// in\n    tag_58:\n        /* \"#utility.yul\":1873:1897   */\n      swap2\n      pop\n        /* \"#utility.yul\":1911:1930   */\n      tag_59\n        /* \"#utility.yul\":1928:1929   */\n      dup4\n        /* \"#utility.yul\":1911:1930   */\n      tag_35\n      jump\t// in\n    tag_59:\n        /* \"#utility.yul\":1906:1930   */\n      swap3\n      pop\n        /* \"#utility.yul\":1953:1954   */\n      dup3\n        /* \"#utility.yul\":1950:1951   */\n      dup3\n        /* \"#utility.yul\":1946:1955   */\n      add\n        /* \"#utility.yul\":1939:1955   */\n      swap1\n      pop\n        /* \"#utility.yul\":2151:2152   */\n      dup3\n        /* \"#utility.yul\":2146:2149   */\n      dup2\n        /* \"#utility.yul\":2142:2153   */\n      slt\n        /* \"#utility.yul\":2135:2154   */\n      iszero\n        /* \"#utility.yul\":2131:2132   */\n      0x00\n        /* \"#utility.yul\":2128:2129   */\n      dup4\n        /* \"#utility.yul\":2124:2133   */\n      slt\n        /* \"#utility.yul\":2120:2155   */\n      and\n        /* \"#utility.yul\":2103:2104   */\n      dup4\n        /* \"#utility.yul\":2098:2101   */\n      dup3\n        /* \"#utility.yul\":2094:2105   */\n      slt\n        /* \"#utility.yul\":2089:2090   */\n      0x00\n        /* \"#utility.yul\":2086:2087   */\n      dup5\n        /* \"#utility.yul\":2082:2091   */\n      slt\n        /* \"#utility.yul\":2075:2092   */\n      iszero\n        /* \"#utility.yul\":2071:2106   */\n      and\n        /* \"#utility.yul\":2055:2165   */\n      or\n        /* \"#utility.yul\":2052:2188   */\n      iszero\n      tag_60\n      jumpi\n        /* \"#utility.yul\":2168:2186   */\n      tag_61\n      tag_40\n      jump\t// in\n    tag_61:\n        /* \"#utility.yul\":2052:2188   */\n    tag_60:\n        /* \"#utility.yul\":1820:2195   */\n      swap3\n      swap2\n      pop\n      pop\n      jump\t// out\n        /* \"#utility.yul\":2201:2421   */\n    tag_41:\n        /* \"#utility.yul\":2341:2375   */\n      0x596f7520686176652072656163742074686520626172657374206d696e696d75\n        /* \"#utility.yul\":2337:2338   */\n      0x00\n        /* \"#utility.yul\":2329:2335   */\n      dup3\n        /* \"#utility.yul\":2325:2339   */\n      add\n        /* \"#utility.yul\":2318:2376   */\n      mstore\n        /* \"#utility.yul\":2410:2413   */\n      0x6d00000000000000000000000000000000000000000000000000000000000000\n        /* \"#utility.yul\":2405:2407   */\n      0x20\n        /* \"#utility.yul\":2397:2403   */\n      dup3\n        /* \"#utility.yul\":2393:2408   */\n      add\n        /* \"#utility.yul\":2386:2414   */\n      mstore\n        /* \"#utility.yul\":2201:2421   */\n      pop\n      jump\t// out\n        /* \"#utility.yul\":2427:2793   */\n    tag_42:\n        /* \"#utility.yul\":2569:2572   */\n      0x00\n        /* \"#utility.yul\":2590:2657   */\n      tag_64\n        /* \"#utility.yul\":2654:2656   */\n      0x21\n        /* \"#utility.yul\":2649:2652   */\n      dup4\n        /* \"#utility.yul\":2590:2657   */\n      tag_37\n      jump\t// in\n    tag_64:\n        /* \"#utility.yul\":2583:2657   */\n      swap2\n      pop\n        /* \"#utility.yul\":2666:2759   */\n      tag_65\n        /* \"#utility.yul\":2755:2758   */\n      dup3\n        /* \"#utility.yul\":2666:2759   */\n      tag_41\n      jump\t// in\n    tag_65:\n        /* \"#utility.yul\":2784:2786   */\n      0x40\n        /* \"#utility.yul\":2779:2782   */\n      dup3\n        /* \"#utility.yul\":2775:2787   */\n      add\n        /* \"#utility.yul\":2768:2787   */\n      swap1\n      pop\n        /* \"#utility.yul\":2427:2793   */\n      swap2\n      swap1\n      pop\n      jump\t// out\n        /* \"#utility.yul\":2799:3218   */\n    tag_29:\n        /* \"#utility.yul\":2965:2969   */\n      0x00\n        /* \"#utility.yul\":3003:3005   */\n      0x20\n        /* \"#utility.yul\":2992:3001   */\n      dup3\n        /* \"#utility.yul\":2988:3006   */\n      add\n        /* \"#utility.yul\":2980:3006   */\n      swap1\n      pop\n        /* \"#utility.yul\":3052:3061   */\n      dup2\n        /* \"#utility.yul\":3046:3050   */\n      dup2\n        /* \"#utility.yul\":3042:3062   */\n      sub\n        /* \"#utility.yul\":3038:3039   */\n      0x00\n        /* \"#utility.yul\":3027:3036   */\n      dup4\n        /* \"#utility.yul\":3023:3040   */\n      add\n        /* \"#utility.yul\":3016:3063   */\n      mstore\n        /* \"#utility.yul\":3080:3211   */\n      tag_67\n        /* \"#utility.yul\":3206:3210   */\n      dup2\n        /* \"#utility.yul\":3080:3211   */\n      tag_42\n      jump\t// in\n    tag_67:\n        /* \"#utility.yul\":3072:3211   */\n      swap1\n      pop\n        /* \"#utility.yul\":2799:3218   */\n      swap2\n      swap1\n      pop\n      jump\t// out\n        /* \"#utility.yul\":3224:3596   */\n    tag_32:\n        /* \"#utility.yul\":3263:3267   */\n      0x00\n        /* \"#utility.yul\":3283:3302   */\n      tag_69\n        /* \"#utility.yul\":3300:3301   */\n      dup3\n        /* \"#utility.yul\":3283:3302   */\n      tag_35\n      jump\t// in\n    tag_69:\n        /* \"#utility.yul\":3278:3302   */\n      swap2\n      pop\n        /* \"#utility.yul\":3316:3335   */\n      tag_70\n        /* \"#utility.yul\":3333:3334   */\n      dup4\n        /* \"#utility.yul\":3316:3335   */\n      tag_35\n      jump\t// in\n    tag_70:\n        /* \"#utility.yul\":3311:3335   */\n      swap3\n      pop\n        /* \"#utility.yul\":3359:3360   */\n      dup3\n        /* \"#utility.yul\":3356:3357   */\n      dup3\n        /* \"#utility.yul\":3352:3361   */\n      sub\n        /* \"#utility.yul\":3344:3361   */\n      swap1\n      pop\n        /* \"#utility.yul\":3553:3554   */\n      dup2\n        /* \"#utility.yul\":3547:3551   */\n      dup2\n        /* \"#utility.yul\":3543:3555   */\n      slt\n        /* \"#utility.yul\":3539:3540   */\n      0x00\n        /* \"#utility.yul\":3536:3537   */\n      dup5\n        /* \"#utility.yul\":3532:3541   */\n      slt\n        /* \"#utility.yul\":3528:3556   */\n      and\n        /* \"#utility.yul\":3511:3512   */\n      dup3\n        /* \"#utility.yul\":3505:3509   */\n      dup3\n        /* \"#utility.yul\":3501:3513   */\n      sgt\n        /* \"#utility.yul\":3496:3497   */\n      0x00\n        /* \"#utility.yul\":3493:3494   */\n      dup6\n        /* \"#utility.yul\":3489:3498   */\n      slt\n        /* \"#utility.yul\":3482:3499   */\n      iszero\n        /* \"#utility.yul\":3478:3514   */\n      and\n        /* \"#utility.yul\":3462:3566   */\n      or\n        /* \"#utility.yul\":3459:3589   */\n      iszero\n      tag_71\n      jumpi\n        /* \"#utility.yul\":3569:3587   */\n      tag_72\n      tag_40\n      jump\t// in\n    tag_72:\n        /* \"#utility.yul\":3459:3589   */\n    tag_71:\n        /* \"#utility.yul\":3224:3596   */\n      swap3\n      swap2\n      pop\n      pop\n      jump\t// out\n\n    auxdata: 0xa2646970667358221220b7e68d625b4aa279c5b1bc3b83343fd9380140b725d8dfdde496d52893d1962464736f6c634300081e0033\n}\n",
				"bytecode": {
					"linkReferences": {},
					"object": "60806040525f5f553480156011575f5ffd5b506103aa8061001f5f395ff3fe608060405234801561000f575f5ffd5b506004361061004a575f3560e01c806342bed2c01461004e5780635dbbb26d1461005857806387fa4bc2146100625780639005401014610080575b5f5ffd5b61005661008a565b005b6100606100f3565b005b61006a610159565b6040516100779190610181565b60405180910390f35b610088610161565b005b60645f5413156100d95760645f54126100d8576040517f08c379a00000000000000000000000000000000000000000000000000000000081526004016100cf9061021a565b60405180910390fd5b5b60015f5f8282546100ea9190610265565b92505081905550565b5f5f540361013f575f5f541361013e576040517f08c379a000000000000000000000000000000000000000000000000000000000815260040161013590610316565b60405180910390fd5b5b60015f5f8282546101509190610334565b92505081905550565b5f5f54905090565b5f5f81905550565b5f819050919050565b61017b81610169565b82525050565b5f6020820190506101945f830184610172565b92915050565b5f82825260208201905092915050565b7f596f752068617665207265616368656420746865206d6178696d756d206e756d5f8201527f6265720000000000000000000000000000000000000000000000000000000000602082015250565b5f61020460238361019a565b915061020f826101aa565b604082019050919050565b5f6020820190508181035f830152610231816101f8565b9050919050565b7f4e487b71000000000000000000000000000000000000000000000000000000005f52601160045260245ffd5b5f61026f82610169565b915061027a83610169565b92508282019050828112155f8312168382125f8412151617156102a05761029f610238565b5b92915050565b7f596f7520686176652072656163742074686520626172657374206d696e696d755f8201527f6d00000000000000000000000000000000000000000000000000000000000000602082015250565b5f61030060218361019a565b915061030b826102a6565b604082019050919050565b5f6020820190508181035f83015261032d816102f4565b9050919050565b5f61033e82610169565b915061034983610169565b925082820390508181125f8412168282135f85121516171561036e5761036d610238565b5b9291505056fea2646970667358221220b7e68d625b4aa279c5b1bc3b83343fd9380140b725d8dfdde496d52893d1962464736f6c634300081e0033",
					"opcodes": "PUSH1 0x80 PUSH1 0x40 MSTORE PUSH0 PUSH0 SSTORE CALLVALUE DUP1 ISZERO PUSH1 0x11 JUMPI PUSH0 PUSH0 REVERT JUMPDEST POP PUSH2 0x3AA DUP1 PUSH2 0x1F PUSH0 CODECOPY PUSH0 RETURN INVALID PUSH1 0x80 PUSH1 0x40 MSTORE CALLVALUE DUP1 ISZERO PUSH2 0xF JUMPI PUSH0 PUSH0 REVERT JUMPDEST POP PUSH1 0x4 CALLDATASIZE LT PUSH2 0x4A JUMPI PUSH0 CALLDATALOAD PUSH1 0xE0 SHR DUP1 PUSH4 0x42BED2C0 EQ PUSH2 0x4E JUMPI DUP1 PUSH4 0x5DBBB26D EQ PUSH2 0x58 JUMPI DUP1 PUSH4 0x87FA4BC2 EQ PUSH2 0x62 JUMPI DUP1 PUSH4 0x90054010 EQ PUSH2 0x80 JUMPI JUMPDEST PUSH0 PUSH0 REVERT JUMPDEST PUSH2 0x56 PUSH2 0x8A JUMP JUMPDEST STOP JUMPDEST PUSH2 0x60 PUSH2 0xF3 JUMP JUMPDEST STOP JUMPDEST PUSH2 0x6A PUSH2 0x159 JUMP JUMPDEST PUSH1 0x40 MLOAD PUSH2 0x77 SWAP2 SWAP1 PUSH2 0x181 JUMP JUMPDEST PUSH1 0x40 MLOAD DUP1 SWAP2 SUB SWAP1 RETURN JUMPDEST PUSH2 0x88 PUSH2 0x161 JUMP JUMPDEST STOP JUMPDEST PUSH1 0x64 PUSH0 SLOAD SGT ISZERO PUSH2 0xD9 JUMPI PUSH1 0x64 PUSH0 SLOAD SLT PUSH2 0xD8 JUMPI PUSH1 0x40 MLOAD PUSH32 0x8C379A000000000000000000000000000000000000000000000000000000000 DUP2 MSTORE PUSH1 0x4 ADD PUSH2 0xCF SWAP1 PUSH2 0x21A JUMP JUMPDEST PUSH1 0x40 MLOAD DUP1 SWAP2 SUB SWAP1 REVERT JUMPDEST JUMPDEST PUSH1 0x1 PUSH0 PUSH0 DUP3 DUP3 SLOAD PUSH2 0xEA SWAP2 SWAP1 PUSH2 0x265 JUMP JUMPDEST SWAP3 POP POP DUP2 SWAP1 SSTORE POP JUMP JUMPDEST PUSH0 PUSH0 SLOAD SUB PUSH2 0x13F JUMPI PUSH0 PUSH0 SLOAD SGT PUSH2 0x13E JUMPI PUSH1 0x40 MLOAD PUSH32 0x8C379A000000000000000000000000000000000000000000000000000000000 DUP2 MSTORE PUSH1 0x4 ADD PUSH2 0x135 SWAP1 PUSH2 0x316 JUMP JUMPDEST PUSH1 0x40 MLOAD DUP1 SWAP2 SUB SWAP1 REVERT JUMPDEST JUMPDEST PUSH1 0x1 PUSH0 PUSH0 DUP3 DUP3 SLOAD PUSH2 0x150 SWAP2 SWAP1 PUSH2 0x334 JUMP JUMPDEST SWAP3 POP POP DUP2 SWAP1 SSTORE POP JUMP JUMPDEST PUSH0 PUSH0 SLOAD SWAP1 POP SWAP1 JUMP JUMPDEST PUSH0 PUSH0 DUP2 SWAP1 SSTORE POP JUMP JUMPDEST PUSH0 DUP2 SWAP1 POP SWAP2 SWAP1 POP JUMP JUMPDEST PUSH2 0x17B DUP2 PUSH2 0x169 JUMP JUMPDEST DUP3 MSTORE POP POP JUMP JUMPDEST PUSH0 PUSH1 0x20 DUP3 ADD SWAP1 POP PUSH2 0x194 PUSH0 DUP4 ADD DUP5 PUSH2 0x172 JUMP JUMPDEST SWAP3 SWAP2 POP POP JUMP JUMPDEST PUSH0 DUP3 DUP3 MSTORE PUSH1 0x20 DUP3 ADD SWAP1 POP SWAP3 SWAP2 POP POP JUMP JUMPDEST PUSH32 0x596F752068617665207265616368656420746865206D6178696D756D206E756D PUSH0 DUP3 ADD MSTORE PUSH32 0x6265720000000000000000000000000000000000000000000000000000000000 PUSH1 0x20 DUP3 ADD MSTORE POP JUMP JUMPDEST PUSH0 PUSH2 0x204 PUSH1 0x23 DUP4 PUSH2 0x19A JUMP JUMPDEST SWAP2 POP PUSH2 0x20F DUP3 PUSH2 0x1AA JUMP JUMPDEST PUSH1 0x40 DUP3 ADD SWAP1 POP SWAP2 SWAP1 POP JUMP JUMPDEST PUSH0 PUSH1 0x20 DUP3 ADD SWAP1 POP DUP2 DUP2 SUB PUSH0 DUP4 ADD MSTORE PUSH2 0x231 DUP2 PUSH2 0x1F8 JUMP JUMPDEST SWAP1 POP SWAP2 SWAP1 POP JUMP JUMPDEST PUSH32 0x4E487B7100000000000000000000000000000000000000000000000000000000 PUSH0 MSTORE PUSH1 0x11 PUSH1 0x4 MSTORE PUSH1 0x24 PUSH0 REVERT JUMPDEST PUSH0 PUSH2 0x26F DUP3 PUSH2 0x169 JUMP JUMPDEST SWAP2 POP PUSH2 0x27A DUP4 PUSH2 0x169 JUMP JUMPDEST SWAP3 POP DUP3 DUP3 ADD SWAP1 POP DUP3 DUP2 SLT ISZERO PUSH0 DUP4 SLT AND DUP4 DUP3 SLT PUSH0 DUP5 SLT ISZERO AND OR ISZERO PUSH2 0x2A0 JUMPI PUSH2 0x29F PUSH2 0x238 JUMP JUMPDEST JUMPDEST SWAP3 SWAP2 POP POP JUMP JUMPDEST PUSH32 0x596F7520686176652072656163742074686520626172657374206D696E696D75 PUSH0 DUP3 ADD MSTORE PUSH32 0x6D00000000000000000000000000000000000000000000000000000000000000 PUSH1 0x20 DUP3 ADD MSTORE POP JUMP JUMPDEST PUSH0 PUSH2 0x300 PUSH1 0x21 DUP4 PUSH2 0x19A JUMP JUMPDEST SWAP2 POP PUSH2 0x30B DUP3 PUSH2 0x2A6 JUMP JUMPDEST PUSH1 0x40 DUP3 ADD SWAP1 POP SWAP2 SWAP1 POP JUMP JUMPDEST PUSH0 PUSH1 0x20 DUP3 ADD SWAP1 POP DUP2 DUP2 SUB PUSH0 DUP4 ADD MSTORE PUSH2 0x32D DUP2 PUSH2 0x2F4 JUMP JUMPDEST SWAP1 POP SWAP2 SWAP1 POP JUMP JUMPDEST PUSH0 PUSH2 0x33E DUP3 PUSH2 0x169 JUMP JUMPDEST SWAP2 POP PUSH2 0x349 DUP4 PUSH2 0x169 JUMP JUMPDEST SWAP3 POP DUP3 DUP3 SUB SWAP1 POP DUP2 DUP2 SLT PUSH0 DUP5 SLT AND DUP3 DUP3 SGT PUSH0 DUP6 SLT ISZERO AND OR ISZERO PUSH2 0x36E JUMPI PUSH2 0x36D PUSH2 0x238 JUMP JUMPDEST JUMPDEST SWAP3 SWAP2 POP POP JUMP INVALID LOG2 PUSH5 0x6970667358 0x22 SLT KECCAK256 0xB7 DUPN 0x8D PUSH3 0x5B4AA2 PUSH26 0xC5B1BC3B83343FD9380140B725D8DFDDE496D52893D196246473 PUSH16 0x6C634300081E00330000000000000000 "
				},
				"gasEstimates": {
					"creation": {
						"codeDepositCost": "187600",
						"executionCost": "5234",
						"totalCost": "192834"
					},
					"external": {
						"Decreament()": "infinite",
						"Increament()": "infinite",
						"ResetCount()": "5199",
						"displayCount()": "2453"
					}
				},
				"methodIdentifiers": {
					"Decreament()": "5dbbb26d",
					"Increament()": "42bed2c0",
					"ResetCount()": "90054010",
					"displayCount()": "87fa4bc2"
				}
			},
			"storageLayout": {
				"storage": [
					{
						"astId": 4,
						"contract": "contracts/counter.sol:Counter",
						"label": "number",
						"offset": 0,
						"slot": "0",
						"type": "t_int256"
					}
				],
				"types": {
					"t_int256": {
						"encoding": "inplace",
						"label": "int256",
						"numberOfBytes": "32"
					}
				}
			},
			"userdoc": {
				"kind": "user",
				"methods": {},
				"version": 1
			}
		}
	}
}