{
	"contracts/HelloWorld.sol": {
		"HelloWorld": {
			"abi": [
				{
					"anonymous": false,
					"inputs": [
						{
							"indexed": false,
							"internalType": "string",
							"name": "_message",
							"type": "string"
						},
						{
							"indexed": false,
							"internalType": "address",
							"name": "_writer",
							"type": "address"
						}
					],
					"name": "messageUpdated",
					"type": "event"
				},
				{
					"inputs": [],
					"name": "ReadMessage",
					"outputs": [
						{
							"internalType": "string",
							"name": "",
							"type": "string"
						}
					],
					"stateMutability": "view",
					"type": "function"
				},
				{
					"inputs": [
						{
							"internalType": "string",
							"name": "_text",
							"type": "string"
						}
					],
					"name": "UpdateMessage",
					"outputs": [],
					"stateMutability": "nonpayable",
					"type": "function"
				}
			],
			"devdoc": {
				"kind": "dev",
				"methods": {},
				"version": 1
			},
			"evm": {
				"assembly": "    /* \"contracts/HelloWorld.sol\":60:538  contract HelloWorld {... */\n  mstore(0x40, 0x80)\n    /* \"contracts/HelloWorld.sol\":86:125  string internal message = \"Hello World\" */\n  mload(0x40)\n  dup1\n  0x40\n  add\n  0x40\n  mstore\n  dup1\n  0x0b\n  dup2\n  mstore\n  0x20\n  add\n  0x48656c6c6f20576f726c64000000000000000000000000000000000000000000\n  dup2\n  mstore\n  pop\n  0x00\n  swap1\n  dup2\n  tag_1\n  swap2\n  swap1\n  tag_2\n  jump\t// in\ntag_1:\n  pop\n    /* \"contracts/HelloWorld.sol\":60:538  contract HelloWorld {... */\n  callvalue\n  dup1\n  iszero\n  tag_3\n  jumpi\n  revert(0x00, 0x00)\ntag_3:\n  pop\n  jump(tag_4)\n    /* \"#utility.yul\":7:106   */\ntag_5:\n    /* \"#utility.yul\":59:65   */\n  0x00\n    /* \"#utility.yul\":93:98   */\n  dup2\n    /* \"#utility.yul\":87:99   */\n  mload\n    /* \"#utility.yul\":77:99   */\n  swap1\n  pop\n    /* \"#utility.yul\":7:106   */\n  swap2\n  swap1\n  pop\n  jump\t// out\n    /* \"#utility.yul\":112:292   */\ntag_6:\n    /* \"#utility.yul\":160:237   */\n  0x4e487b7100000000000000000000000000000000000000000000000000000000\n    /* \"#utility.yul\":157:158   */\n  0x00\n    /* \"#utility.yul\":150:238   */\n  mstore\n    /* \"#utility.yul\":257:261   */\n  0x41\n    /* \"#utility.yul\":254:255   */\n  0x04\n    /* \"#utility.yul\":247:262   */\n  mstore\n    /* \"#utility.yul\":281:285   */\n  0x24\n    /* \"#utility.yul\":278:279   */\n  0x00\n    /* \"#utility.yul\":271:286   */\n  revert\n    /* \"#utility.yul\":298:478   */\ntag_7:\n    /* \"#utility.yul\":346:423   */\n  0x4e487b7100000000000000000000000000000000000000000000000000000000\n    /* \"#utility.yul\":343:344   */\n  0x00\n    /* \"#utility.yul\":336:424   */\n  mstore\n    /* \"#utility.yul\":443:447   */\n  0x22\n    /* \"#utility.yul\":440:441   */\n  0x04\n    /* \"#utility.yul\":433:448   */\n  mstore\n    /* \"#utility.yul\":467:471   */\n  0x24\n    /* \"#utility.yul\":464:465   */\n  0x00\n    /* \"#utility.yul\":457:472   */\n  revert\n    /* \"#utility.yul\":484:804   */\ntag_8:\n    /* \"#utility.yul\":528:534   */\n  0x00\n    /* \"#utility.yul\":565:566   */\n  0x02\n    /* \"#utility.yul\":559:563   */\n  dup3\n    /* \"#utility.yul\":555:567   */\n  div\n    /* \"#utility.yul\":545:567   */\n  swap1\n  pop\n    /* \"#utility.yul\":612:613   */\n  0x01\n    /* \"#utility.yul\":606:610   */\n  dup3\n    /* \"#utility.yul\":602:614   */\n  and\n    /* \"#utility.yul\":633:651   */\n  dup1\n    /* \"#utility.yul\":623:704   */\n  tag_30\n  jumpi\n    /* \"#utility.yul\":689:693   */\n  0x7f\n    /* \"#utility.yul\":681:687   */\n  dup3\n    /* \"#utility.yul\":677:694   */\n  and\n    /* \"#utility.yul\":667:694   */\n  swap2\n  pop\n    /* \"#utility.yul\":623:704   */\ntag_30:\n    /* \"#utility.yul\":751:753   */\n  0x20\n    /* \"#utility.yul\":743:749   */\n  dup3\n    /* \"#utility.yul\":740:754   */\n  lt\n    /* \"#utility.yul\":720:738   */\n  dup2\n    /* \"#utility.yul\":717:755   */\n  sub\n    /* \"#utility.yul\":714:798   */\n  tag_31\n  jumpi\n    /* \"#utility.yul\":770:788   */\n  tag_32\n  tag_7\n  jump\t// in\ntag_32:\n    /* \"#utility.yul\":714:798   */\ntag_31:\n    /* \"#utility.yul\":535:804   */\n  pop\n    /* \"#utility.yul\":484:804   */\n  swap2\n  swap1\n  pop\n  jump\t// out\n    /* \"#utility.yul\":810:951   */\ntag_9:\n    /* \"#utility.yul\":859:863   */\n  0x00\n    /* \"#utility.yul\":882:885   */\n  dup2\n    /* \"#utility.yul\":874:885   */\n  swap1\n  pop\n    /* \"#utility.yul\":905:908   */\n  dup2\n    /* \"#utility.yul\":902:903   */\n  0x00\n    /* \"#utility.yul\":895:909   */\n  mstore\n    /* \"#utility.yul\":939:943   */\n  0x20\n    /* \"#utility.yul\":936:937   */\n  0x00\n    /* \"#utility.yul\":926:944   */\n  keccak256\n    /* \"#utility.yul\":918:944   */\n  swap1\n  pop\n    /* \"#utility.yul\":810:951   */\n  swap2\n  swap1\n  pop\n  jump\t// out\n    /* \"#utility.yul\":957:1050   */\ntag_10:\n    /* \"#utility.yul\":994:1000   */\n  0x00\n    /* \"#utility.yul\":1041:1043   */\n  0x20\n    /* \"#utility.yul\":1036:1038   */\n  0x1f\n    /* \"#utility.yul\":1029:1034   */\n  dup4\n    /* \"#utility.yul\":1025:1039   */\n  add\n    /* \"#utility.yul\":1021:1044   */\n  div\n    /* \"#utility.yul\":1011:1044   */\n  swap1\n  pop\n    /* \"#utility.yul\":957:1050   */\n  swap2\n  swap1\n  pop\n  jump\t// out\n    /* \"#utility.yul\":1056:1163   */\ntag_11:\n    /* \"#utility.yul\":1100:1108   */\n  0x00\n    /* \"#utility.yul\":1150:1155   */\n  dup3\n    /* \"#utility.yul\":1144:1148   */\n  dup3\n    /* \"#utility.yul\":1140:1156   */\n  shl\n    /* \"#utility.yul\":1119:1156   */\n  swap1\n  pop\n    /* \"#utility.yul\":1056:1163   */\n  swap3\n  swap2\n  pop\n  pop\n  jump\t// out\n    /* \"#utility.yul\":1169:1562   */\ntag_12:\n    /* \"#utility.yul\":1238:1244   */\n  0x00\n    /* \"#utility.yul\":1288:1289   */\n  0x08\n    /* \"#utility.yul\":1276:1286   */\n  dup4\n    /* \"#utility.yul\":1272:1290   */\n  mul\n    /* \"#utility.yul\":1311:1408   */\n  tag_37\n    /* \"#utility.yul\":1341:1407   */\n  0xffffffffffffffffffffffffffffffffffffffffffffffffffffffffffffffff\n    /* \"#utility.yul\":1330:1339   */\n  dup3\n    /* \"#utility.yul\":1311:1408   */\n  tag_11\n  jump\t// in\ntag_37:\n    /* \"#utility.yul\":1429:1468   */\n  tag_38\n    /* \"#utility.yul\":1459:1467   */\n  dup7\n    /* \"#utility.yul\":1448:1457   */\n  dup4\n    /* \"#utility.yul\":1429:1468   */\n  tag_11\n  jump\t// in\ntag_38:\n    /* \"#utility.yul\":1417:1468   */\n  swap6\n  pop\n    /* \"#utility.yul\":1501:1505   */\n  dup1\n    /* \"#utility.yul\":1497:1506   */\n  not\n    /* \"#utility.yul\":1490:1495   */\n  dup5\n    /* \"#utility.yul\":1486:1507   */\n  and\n    /* \"#utility.yul\":1477:1507   */\n  swap4\n  pop\n    /* \"#utility.yul\":1550:1554   */\n  dup1\n    /* \"#utility.yul\":1540:1548   */\n  dup7\n    /* \"#utility.yul\":1536:1555   */\n  and\n    /* \"#utility.yul\":1529:1534   */\n  dup5\n    /* \"#utility.yul\":1526:1556   */\n  or\n    /* \"#utility.yul\":1516:1556   */\n  swap3\n  pop\n    /* \"#utility.yul\":1245:1562   */\n  pop\n  pop\n    /* \"#utility.yul\":1169:1562   */\n  swap4\n  swap3\n  pop\n  pop\n  pop\n  jump\t// out\n    /* \"#utility.yul\":1568:1645   */\ntag_13:\n    /* \"#utility.yul\":1605:1612   */\n  0x00\n    /* \"#utility.yul\":1634:1639   */\n  dup2\n    /* \"#utility.yul\":1623:1639   */\n  swap1\n  pop\n    /* \"#utility.yul\":1568:1645   */\n  swap2\n  swap1\n  pop\n  jump\t// out\n    /* \"#utility.yul\":1651:1711   */\ntag_14:\n    /* \"#utility.yul\":1679:1682   */\n  0x00\n    /* \"#utility.yul\":1700:1705   */\n  dup2\n    /* \"#utility.yul\":1693:1705   */\n  swap1\n  pop\n    /* \"#utility.yul\":1651:1711   */\n  swap2\n  swap1\n  pop\n  jump\t// out\n    /* \"#utility.yul\":1717:1859   */\ntag_15:\n    /* \"#utility.yul\":1767:1776   */\n  0x00\n    /* \"#utility.yul\":1800:1853   */\n  tag_42\n    /* \"#utility.yul\":1818:1852   */\n  tag_43\n    /* \"#utility.yul\":1827:1851   */\n  tag_44\n    /* \"#utility.yul\":1845:1850   */\n  dup5\n    /* \"#utility.yul\":1827:1851   */\n  tag_13\n  jump\t// in\ntag_44:\n    /* \"#utility.yul\":1818:1852   */\n  tag_14\n  jump\t// in\ntag_43:\n    /* \"#utility.yul\":1800:1853   */\n  tag_13\n  jump\t// in\ntag_42:\n    /* \"#utility.yul\":1787:1853   */\n  swap1\n  pop\n    /* \"#utility.yul\":1717:1859   */\n  swap2\n  swap1\n  pop\n  jump\t// out\n    /* \"#utility.yul\":1865:1940   */\ntag_16:\n    /* \"#utility.yul\":1908:1911   */\n  0x00\n    /* \"#utility.yul\":1929:1934   */\n  dup2\n    /* \"#utility.yul\":1922:1934   */\n  swap1\n  pop\n    /* \"#utility.yul\":1865:1940   */\n  swap2\n  swap1\n  pop\n  jump\t// out\n    /* \"#utility.yul\":1946:2215   */\ntag_17:\n    /* \"#utility.yul\":2056:2095   */\n  tag_47\n    /* \"#utility.yul\":2087:2094   */\n  dup4\n    /* \"#utility.yul\":2056:2095   */\n  tag_15\n  jump\t// in\ntag_47:\n    /* \"#utility.yul\":2117:2208   */\n  tag_48\n    /* \"#utility.yul\":2166:2207   */\n  tag_49\n    /* \"#utility.yul\":2190:2206   */\n  dup3\n    /* \"#utility.yul\":2166:2207   */\n  tag_16\n  jump\t// in\ntag_49:\n    /* \"#utility.yul\":2158:2164   */\n  dup5\n    /* \"#utility.yul\":2151:2155   */\n  dup5\n    /* \"#utility.yul\":2145:2156   */\n  sload\n    /* \"#utility.yul\":2117:2208   */\n  tag_12\n  jump\t// in\ntag_48:\n    /* \"#utility.yul\":2111:2115   */\n  dup3\n    /* \"#utility.yul\":2104:2209   */\n  sstore\n    /* \"#utility.yul\":2022:2215   */\n  pop\n    /* \"#utility.yul\":1946:2215   */\n  pop\n  pop\n  pop\n  jump\t// out\n    /* \"#utility.yul\":2221:2294   */\ntag_18:\n    /* \"#utility.yul\":2266:2269   */\n  0x00\n    /* \"#utility.yul\":2287:2288   */\n  0x00\n    /* \"#utility.yul\":2280:2288   */\n  swap1\n  pop\n    /* \"#utility.yul\":2221:2294   */\n  swap1\n  jump\t// out\n    /* \"#utility.yul\":2300:2489   */\ntag_19:\n    /* \"#utility.yul\":2377:2409   */\n  tag_52\n  tag_18\n  jump\t// in\ntag_52:\n    /* \"#utility.yul\":2418:2483   */\n  tag_53\n    /* \"#utility.yul\":2476:2482   */\n  dup2\n    /* \"#utility.yul\":2468:2474   */\n  dup5\n    /* \"#utility.yul\":2462:2466   */\n  dup5\n    /* \"#utility.yul\":2418:2483   */\n  tag_17\n  jump\t// in\ntag_53:\n    /* \"#utility.yul\":2353:2489   */\n  pop\n    /* \"#utility.yul\":2300:2489   */\n  pop\n  pop\n  jump\t// out\n    /* \"#utility.yul\":2495:2681   */\ntag_20:\n    /* \"#utility.yul\":2555:2675   */\ntag_55:\n    /* \"#utility.yul\":2572:2575   */\n  dup2\n    /* \"#utility.yul\":2565:2570   */\n  dup2\n    /* \"#utility.yul\":2562:2576   */\n  lt\n    /* \"#utility.yul\":2555:2675   */\n  iszero\n  tag_57\n  jumpi\n    /* \"#utility.yul\":2626:2665   */\n  tag_58\n    /* \"#utility.yul\":2663:2664   */\n  0x00\n    /* \"#utility.yul\":2656:2661   */\n  dup3\n    /* \"#utility.yul\":2626:2665   */\n  tag_19\n  jump\t// in\ntag_58:\n    /* \"#utility.yul\":2599:2600   */\n  0x01\n    /* \"#utility.yul\":2592:2597   */\n  dup2\n    /* \"#utility.yul\":2588:2601   */\n  add\n    /* \"#utility.yul\":2579:2601   */\n  swap1\n  pop\n    /* \"#utility.yul\":2555:2675   */\n  jump(tag_55)\ntag_57:\n    /* \"#utility.yul\":2495:2681   */\n  pop\n  pop\n  jump\t// out\n    /* \"#utility.yul\":2687:3230   */\ntag_21:\n    /* \"#utility.yul\":2788:2790   */\n  0x1f\n    /* \"#utility.yul\":2783:2786   */\n  dup3\n    /* \"#utility.yul\":2780:2791   */\n  gt\n    /* \"#utility.yul\":2777:3223   */\n  iszero\n  tag_60\n  jumpi\n    /* \"#utility.yul\":2822:2860   */\n  tag_61\n    /* \"#utility.yul\":2854:2859   */\n  dup2\n    /* \"#utility.yul\":2822:2860   */\n  tag_9\n  jump\t// in\ntag_61:\n    /* \"#utility.yul\":2906:2935   */\n  tag_62\n    /* \"#utility.yul\":2924:2934   */\n  dup5\n    /* \"#utility.yul\":2906:2935   */\n  tag_10\n  jump\t// in\ntag_62:\n    /* \"#utility.yul\":2896:2904   */\n  dup2\n    /* \"#utility.yul\":2892:2936   */\n  add\n    /* \"#utility.yul\":3089:3091   */\n  0x20\n    /* \"#utility.yul\":3077:3087   */\n  dup6\n    /* \"#utility.yul\":3074:3092   */\n  lt\n    /* \"#utility.yul\":3071:3120   */\n  iszero\n  tag_63\n  jumpi\n    /* \"#utility.yul\":3110:3118   */\n  dup2\n    /* \"#utility.yul\":3095:3118   */\n  swap1\n  pop\n    /* \"#utility.yul\":3071:3120   */\ntag_63:\n    /* \"#utility.yul\":3133:3213   */\n  tag_64\n    /* \"#utility.yul\":3189:3211   */\n  tag_65\n    /* \"#utility.yul\":3207:3210   */\n  dup6\n    /* \"#utility.yul\":3189:3211   */\n  tag_10\n  jump\t// in\ntag_65:\n    /* \"#utility.yul\":3179:3187   */\n  dup4\n    /* \"#utility.yul\":3175:3212   */\n  add\n    /* \"#utility.yul\":3162:3173   */\n  dup3\n    /* \"#utility.yul\":3133:3213   */\n  tag_20\n  jump\t// in\ntag_64:\n    /* \"#utility.yul\":2792:3223   */\n  pop\n  pop\n    /* \"#utility.yul\":2777:3223   */\ntag_60:\n    /* \"#utility.yul\":2687:3230   */\n  pop\n  pop\n  pop\n  jump\t// out\n    /* \"#utility.yul\":3236:3353   */\ntag_22:\n    /* \"#utility.yul\":3290:3298   */\n  0x00\n    /* \"#utility.yul\":3340:3345   */\n  dup3\n    /* \"#utility.yul\":3334:3338   */\n  dup3\n    /* \"#utility.yul\":3330:3346   */\n  shr\n    /* \"#utility.yul\":3309:3346   */\n  swap1\n  pop\n    /* \"#utility.yul\":3236:3353   */\n  swap3\n  swap2\n  pop\n  pop\n  jump\t// out\n    /* \"#utility.yul\":3359:3528   */\ntag_23:\n    /* \"#utility.yul\":3403:3409   */\n  0x00\n    /* \"#utility.yul\":3436:3487   */\n  tag_68\n    /* \"#utility.yul\":3484:3485   */\n  0x00\n    /* \"#utility.yul\":3480:3486   */\n  not\n    /* \"#utility.yul\":3472:3477   */\n  dup5\n    /* \"#utility.yul\":3469:3470   */\n  0x08\n    /* \"#utility.yul\":3465:3478   */\n  mul\n    /* \"#utility.yul\":3436:3487   */\n  tag_22\n  jump\t// in\ntag_68:\n    /* \"#utility.yul\":3432:3488   */\n  not\n    /* \"#utility.yul\":3517:3521   */\n  dup1\n    /* \"#utility.yul\":3511:3515   */\n  dup4\n    /* \"#utility.yul\":3507:3522   */\n  and\n    /* \"#utility.yul\":3497:3522   */\n  swap2\n  pop\n    /* \"#utility.yul\":3410:3528   */\n  pop\n    /* \"#utility.yul\":3359:3528   */\n  swap3\n  swap2\n  pop\n  pop\n  jump\t// out\n    /* \"#utility.yul\":3533:3828   */\ntag_24:\n    /* \"#utility.yul\":3609:3613   */\n  0x00\n    /* \"#utility.yul\":3755:3784   */\n  tag_70\n    /* \"#utility.yul\":3780:3783   */\n  dup4\n    /* \"#utility.yul\":3774:3778   */\n  dup4\n    /* \"#utility.yul\":3755:3784   */\n  tag_23\n  jump\t// in\ntag_70:\n    /* \"#utility.yul\":3747:3784   */\n  swap2\n  pop\n    /* \"#utility.yul\":3817:3820   */\n  dup3\n    /* \"#utility.yul\":3814:3815   */\n  0x02\n    /* \"#utility.yul\":3810:3821   */\n  mul\n    /* \"#utility.yul\":3804:3808   */\n  dup3\n    /* \"#utility.yul\":3801:3822   */\n  or\n    /* \"#utility.yul\":3793:3822   */\n  swap1\n  pop\n    /* \"#utility.yul\":3533:3828   */\n  swap3\n  swap2\n  pop\n  pop\n  jump\t// out\n    /* \"#utility.yul\":3833:5228   */\ntag_2:\n    /* \"#utility.yul\":3950:3987   */\n  tag_72\n    /* \"#utility.yul\":3983:3986   */\n  dup3\n    /* \"#utility.yul\":3950:3987   */\n  tag_5\n  jump\t// in\ntag_72:\n    /* \"#utility.yul\":4052:4070   */\n  0xffffffffffffffff\n    /* \"#utility.yul\":4044:4050   */\n  dup2\n    /* \"#utility.yul\":4041:4071   */\n  gt\n    /* \"#utility.yul\":4038:4094   */\n  iszero\n  tag_73\n  jumpi\n    /* \"#utility.yul\":4074:4092   */\n  tag_74\n  tag_6\n  jump\t// in\ntag_74:\n    /* \"#utility.yul\":4038:4094   */\ntag_73:\n    /* \"#utility.yul\":4118:4156   */\n  tag_75\n    /* \"#utility.yul\":4150:4154   */\n  dup3\n    /* \"#utility.yul\":4144:4155   */\n  sload\n    /* \"#utility.yul\":4118:4156   */\n  tag_8\n  jump\t// in\ntag_75:\n    /* \"#utility.yul\":4203:4270   */\n  tag_76\n    /* \"#utility.yul\":4263:4269   */\n  dup3\n    /* \"#utility.yul\":4255:4261   */\n  dup3\n    /* \"#utility.yul\":4249:4253   */\n  dup6\n    /* \"#utility.yul\":4203:4270   */\n  tag_21\n  jump\t// in\ntag_76:\n    /* \"#utility.yul\":4297:4298   */\n  0x00\n    /* \"#utility.yul\":4321:4325   */\n  0x20\n    /* \"#utility.yul\":4308:4325   */\n  swap1\n  pop\n    /* \"#utility.yul\":4353:4355   */\n  0x1f\n    /* \"#utility.yul\":4345:4351   */\n  dup4\n    /* \"#utility.yul\":4342:4356   */\n  gt\n    /* \"#utility.yul\":4370:4371   */\n  0x01\n    /* \"#utility.yul\":4365:4983   */\n  dup2\n  eq\n  tag_78\n  jumpi\n    /* \"#utility.yul\":5027:5028   */\n  0x00\n    /* \"#utility.yul\":5044:5050   */\n  dup5\n    /* \"#utility.yul\":5041:5118   */\n  iszero\n  tag_79\n  jumpi\n    /* \"#utility.yul\":5093:5102   */\n  dup3\n    /* \"#utility.yul\":5088:5091   */\n  dup8\n    /* \"#utility.yul\":5084:5103   */\n  add\n    /* \"#utility.yul\":5078:5104   */\n  mload\n    /* \"#utility.yul\":5069:5104   */\n  swap1\n  pop\n    /* \"#utility.yul\":5041:5118   */\ntag_79:\n    /* \"#utility.yul\":5144:5211   */\n  tag_80\n    /* \"#utility.yul\":5204:5210   */\n  dup6\n    /* \"#utility.yul\":5197:5202   */\n  dup3\n    /* \"#utility.yul\":5144:5211   */\n  tag_24\n  jump\t// in\ntag_80:\n    /* \"#utility.yul\":5138:5142   */\n  dup7\n    /* \"#utility.yul\":5131:5212   */\n  sstore\n    /* \"#utility.yul\":5000:5222   */\n  pop\n    /* \"#utility.yul\":4335:5222   */\n  jump(tag_77)\n    /* \"#utility.yul\":4365:4983   */\ntag_78:\n    /* \"#utility.yul\":4417:4421   */\n  0x1f\n    /* \"#utility.yul\":4413:4422   */\n  not\n    /* \"#utility.yul\":4405:4411   */\n  dup5\n    /* \"#utility.yul\":4401:4423   */\n  and\n    /* \"#utility.yul\":4451:4488   */\n  tag_81\n    /* \"#utility.yul\":4483:4487   */\n  dup7\n    /* \"#utility.yul\":4451:4488   */\n  tag_9\n  jump\t// in\ntag_81:\n    /* \"#utility.yul\":4510:4511   */\n  0x00\n    /* \"#utility.yul\":4524:4732   */\ntag_82:\n    /* \"#utility.yul\":4538:4545   */\n  dup3\n    /* \"#utility.yul\":4535:4536   */\n  dup2\n    /* \"#utility.yul\":4532:4546   */\n  lt\n    /* \"#utility.yul\":4524:4732   */\n  iszero\n  tag_84\n  jumpi\n    /* \"#utility.yul\":4617:4626   */\n  dup5\n    /* \"#utility.yul\":4612:4615   */\n  dup10\n    /* \"#utility.yul\":4608:4627   */\n  add\n    /* \"#utility.yul\":4602:4628   */\n  mload\n    /* \"#utility.yul\":4594:4600   */\n  dup3\n    /* \"#utility.yul\":4587:4629   */\n  sstore\n    /* \"#utility.yul\":4668:4669   */\n  0x01\n    /* \"#utility.yul\":4660:4666   */\n  dup3\n    /* \"#utility.yul\":4656:4670   */\n  add\n    /* \"#utility.yul\":4646:4670   */\n  swap2\n  pop\n    /* \"#utility.yul\":4715:4717   */\n  0x20\n    /* \"#utility.yul\":4704:4713   */\n  dup6\n    /* \"#utility.yul\":4700:4718   */\n  add\n    /* \"#utility.yul\":4687:4718   */\n  swap5\n  pop\n    /* \"#utility.yul\":4561:4565   */\n  0x20\n    /* \"#utility.yul\":4558:4559   */\n  dup2\n    /* \"#utility.yul\":4554:4566   */\n  add\n    /* \"#utility.yul\":4549:4566   */\n  swap1\n  pop\n    /* \"#utility.yul\":4524:4732   */\n  jump(tag_82)\ntag_84:\n    /* \"#utility.yul\":4760:4766   */\n  dup7\n    /* \"#utility.yul\":4751:4758   */\n  dup4\n    /* \"#utility.yul\":4748:4767   */\n  lt\n    /* \"#utility.yul\":4745:4924   */\n  iszero\n  tag_85\n  jumpi\n    /* \"#utility.yul\":4818:4827   */\n  dup5\n    /* \"#utility.yul\":4813:4816   */\n  dup10\n    /* \"#utility.yul\":4809:4828   */\n  add\n    /* \"#utility.yul\":4803:4829   */\n  mload\n    /* \"#utility.yul\":4861:4909   */\n  tag_86\n    /* \"#utility.yul\":4903:4907   */\n  0x1f\n    /* \"#utility.yul\":4895:4901   */\n  dup10\n    /* \"#utility.yul\":4891:4908   */\n  and\n    /* \"#utility.yul\":4880:4889   */\n  dup3\n    /* \"#utility.yul\":4861:4909   */\n  tag_23\n  jump\t// in\ntag_86:\n    /* \"#utility.yul\":4853:4859   */\n  dup4\n    /* \"#utility.yul\":4846:4910   */\n  sstore\n    /* \"#utility.yul\":4768:4924   */\n  pop\n    /* \"#utility.yul\":4745:4924   */\ntag_85:\n    /* \"#utility.yul\":4970:4971   */\n  0x01\n    /* \"#utility.yul\":4966:4967   */\n  0x02\n    /* \"#utility.yul\":4958:4964   */\n  dup9\n    /* \"#utility.yul\":4954:4968   */\n  mul\n    /* \"#utility.yul\":4950:4972   */\n  add\n    /* \"#utility.yul\":4944:4948   */\n  dup9\n    /* \"#utility.yul\":4937:4973   */\n  sstore\n    /* \"#utility.yul\":4372:4983   */\n  pop\n  pop\n  pop\n    /* \"#utility.yul\":4335:5222   */\ntag_77:\n  pop\n    /* \"#utility.yul\":3925:5228   */\n  pop\n  pop\n  pop\n    /* \"#utility.yul\":3833:5228   */\n  pop\n  pop\n  jump\t// out\n    /* \"contracts/HelloWorld.sol\":60:538  contract HelloWorld {... */\ntag_4:\n  dataSize(sub_0)\n  dup1\n  dataOffset(sub_0)\n  0x00\n  codecopy\n  0x00\n  return\nstop\n\nsub_0: assembly {\n        /* \"contracts/HelloWorld.sol\":60:538  contract HelloWorld {... */\n      mstore(0x40, 0x80)\n      callvalue\n      dup1\n      iszero\n      tag_1\n      jumpi\n      revert(0x00, 0x00)\n    tag_1:\n      pop\n      jumpi(tag_2, lt(calldatasize, 0x04))\n      shr(0xe0, calldataload(0x00))\n      dup1\n      0x38bc3aee\n      eq\n      tag_3\n      jumpi\n      dup1\n      0x6ac54e0c\n      eq\n      tag_4\n      jumpi\n    tag_2:\n      revert(0x00, 0x00)\n        /* \"contracts/HelloWorld.sol\":279:410  function UpdateMessage(string memory _text) public {... */\n    tag_3:\n      tag_5\n      0x04\n      dup1\n      calldatasize\n      sub\n      dup2\n      add\n      swap1\n      tag_6\n      swap2\n      swap1\n      tag_7\n      jump\t// in\n    tag_6:\n      tag_8\n      jump\t// in\n    tag_5:\n      stop\n        /* \"contracts/HelloWorld.sol\":446:536  function ReadMessage() public view returns (string memory) {... */\n    tag_4:\n      tag_9\n      tag_10\n      jump\t// in\n    tag_9:\n      mload(0x40)\n      tag_11\n      swap2\n      swap1\n      tag_12\n      jump\t// in\n    tag_11:\n      mload(0x40)\n      dup1\n      swap2\n      sub\n      swap1\n      return\n        /* \"contracts/HelloWorld.sol\":279:410  function UpdateMessage(string memory _text) public {... */\n    tag_8:\n        /* \"contracts/HelloWorld.sol\":350:355  _text */\n      dup1\n        /* \"contracts/HelloWorld.sol\":340:347  message */\n      0x00\n        /* \"contracts/HelloWorld.sol\":340:355  message = _text */\n      swap1\n      dup2\n      tag_14\n      swap2\n      swap1\n      tag_15\n      jump\t// in\n    tag_14:\n      pop\n        /* \"contracts/HelloWorld.sol\":370:403  messageUpdated(_text, msg.sender) */\n      0xe4c93424b1551f125ff17f5e05dc1fe8a5cde4d39a2b891934e68d95bbbaca04\n        /* \"contracts/HelloWorld.sol\":385:390  _text */\n      dup2\n        /* \"contracts/HelloWorld.sol\":392:402  msg.sender */\n      caller\n        /* \"contracts/HelloWorld.sol\":370:403  messageUpdated(_text, msg.sender) */\n      mload(0x40)\n      tag_16\n      swap3\n      swap2\n      swap1\n      tag_17\n      jump\t// in\n    tag_16:\n      mload(0x40)\n      dup1\n      swap2\n      sub\n      swap1\n      log1\n        /* \"contracts/HelloWorld.sol\":279:410  function UpdateMessage(string memory _text) public {... */\n      pop\n      jump\t// out\n        /* \"contracts/HelloWorld.sol\":446:536  function ReadMessage() public view returns (string memory) {... */\n    tag_10:\n        /* \"contracts/HelloWorld.sol\":490:503  string memory */\n      0x60\n        /* \"contracts/HelloWorld.sol\":522:529  message */\n      0x00\n        /* \"contracts/HelloWorld.sol\":515:529  return message */\n      dup1\n      sload\n      tag_19\n      swap1\n      tag_20\n      jump\t// in\n    tag_19:\n      dup1\n      0x1f\n      add\n      0x20\n      dup1\n      swap2\n      div\n      mul\n      0x20\n      add\n      mload(0x40)\n      swap1\n      dup2\n      add\n      0x40\n      mstore\n      dup1\n      swap3\n      swap2\n      swap1\n      dup2\n      dup2\n      mstore\n      0x20\n      add\n      dup3\n      dup1\n      sload\n      tag_21\n      swap1\n      tag_20\n      jump\t// in\n    tag_21:\n      dup1\n      iszero\n      tag_22\n      jumpi\n      dup1\n      0x1f\n      lt\n      tag_23\n      jumpi\n      0x0100\n      dup1\n      dup4\n      sload\n      div\n      mul\n      dup4\n      mstore\n      swap2\n      0x20\n      add\n      swap2\n      jump(tag_22)\n    tag_23:\n      dup3\n      add\n      swap2\n      swap1\n      0x00\n      mstore\n      keccak256(0x00, 0x20)\n      swap1\n    tag_24:\n      dup2\n      sload\n      dup2\n      mstore\n      swap1\n      0x01\n      add\n      swap1\n      0x20\n      add\n      dup1\n      dup4\n      gt\n      tag_24\n      jumpi\n      dup3\n      swap1\n      sub\n      0x1f\n      and\n      dup3\n      add\n      swap2\n    tag_22:\n      pop\n      pop\n      pop\n      pop\n      pop\n      swap1\n      pop\n        /* \"contracts/HelloWorld.sol\":446:536  function ReadMessage() public view returns (string memory) {... */\n      swap1\n      jump\t// out\n        /* \"#utility.yul\":7:82   */\n    tag_25:\n        /* \"#utility.yul\":40:46   */\n      0x00\n        /* \"#utility.yul\":73:75   */\n      0x40\n        /* \"#utility.yul\":67:76   */\n      mload\n        /* \"#utility.yul\":57:76   */\n      swap1\n      pop\n        /* \"#utility.yul\":7:82   */\n      swap1\n      jump\t// out\n        /* \"#utility.yul\":88:205   */\n    tag_26:\n        /* \"#utility.yul\":197:198   */\n      0x00\n        /* \"#utility.yul\":194:195   */\n      0x00\n        /* \"#utility.yul\":187:199   */\n      revert\n        /* \"#utility.yul\":211:328   */\n    tag_27:\n        /* \"#utility.yul\":320:321   */\n      0x00\n        /* \"#utility.yul\":317:318   */\n      0x00\n        /* \"#utility.yul\":310:322   */\n      revert\n        /* \"#utility.yul\":334:451   */\n    tag_28:\n        /* \"#utility.yul\":443:444   */\n      0x00\n        /* \"#utility.yul\":440:441   */\n      0x00\n        /* \"#utility.yul\":433:445   */\n      revert\n        /* \"#utility.yul\":457:574   */\n    tag_29:\n        /* \"#utility.yul\":566:567   */\n      0x00\n        /* \"#utility.yul\":563:564   */\n      0x00\n        /* \"#utility.yul\":556:568   */\n      revert\n        /* \"#utility.yul\":580:682   */\n    tag_30:\n        /* \"#utility.yul\":621:627   */\n      0x00\n        /* \"#utility.yul\":672:674   */\n      0x1f\n        /* \"#utility.yul\":668:675   */\n      not\n        /* \"#utility.yul\":663:665   */\n      0x1f\n        /* \"#utility.yul\":656:661   */\n      dup4\n        /* \"#utility.yul\":652:666   */\n      add\n        /* \"#utility.yul\":648:676   */\n      and\n        /* \"#utility.yul\":638:676   */\n      swap1\n      pop\n        /* \"#utility.yul\":580:682   */\n      swap2\n      swap1\n      pop\n      jump\t// out\n        /* \"#utility.yul\":688:868   */\n    tag_31:\n        /* \"#utility.yul\":736:813   */\n      0x4e487b7100000000000000000000000000000000000000000000000000000000\n        /* \"#utility.yul\":733:734   */\n      0x00\n        /* \"#utility.yul\":726:814   */\n      mstore\n        /* \"#utility.yul\":833:837   */\n      0x41\n        /* \"#utility.yul\":830:831   */\n      0x04\n        /* \"#utility.yul\":823:838   */\n      mstore\n        /* \"#utility.yul\":857:861   */\n      0x24\n        /* \"#utility.yul\":854:855   */\n      0x00\n        /* \"#utility.yul\":847:862   */\n      revert\n        /* \"#utility.yul\":874:1155   */\n    tag_32:\n        /* \"#utility.yul\":957:984   */\n      tag_71\n        /* \"#utility.yul\":979:983   */\n      dup3\n        /* \"#utility.yul\":957:984   */\n      tag_30\n      jump\t// in\n    tag_71:\n        /* \"#utility.yul\":949:955   */\n      dup2\n        /* \"#utility.yul\":945:985   */\n      add\n        /* \"#utility.yul\":1087:1093   */\n      dup2\n        /* \"#utility.yul\":1075:1085   */\n      dup2\n        /* \"#utility.yul\":1072:1094   */\n      lt\n        /* \"#utility.yul\":1051:1069   */\n      0xffffffffffffffff\n        /* \"#utility.yul\":1039:1049   */\n      dup3\n        /* \"#utility.yul\":1036:1070   */\n      gt\n        /* \"#utility.yul\":1033:1095   */\n      or\n        /* \"#utility.yul\":1030:1118   */\n      iszero\n      tag_72\n      jumpi\n        /* \"#utility.yul\":1098:1116   */\n      tag_73\n      tag_31\n      jump\t// in\n    tag_73:\n        /* \"#utility.yul\":1030:1118   */\n    tag_72:\n        /* \"#utility.yul\":1138:1148   */\n      dup1\n        /* \"#utility.yul\":1134:1136   */\n      0x40\n        /* \"#utility.yul\":1127:1149   */\n      mstore\n        /* \"#utility.yul\":917:1155   */\n      pop\n        /* \"#utility.yul\":874:1155   */\n      pop\n      pop\n      jump\t// out\n        /* \"#utility.yul\":1161:1290   */\n    tag_33:\n        /* \"#utility.yul\":1195:1201   */\n      0x00\n        /* \"#utility.yul\":1222:1242   */\n      tag_75\n      tag_25\n      jump\t// in\n    tag_75:\n        /* \"#utility.yul\":1212:1242   */\n      swap1\n      pop\n        /* \"#utility.yul\":1251:1284   */\n      tag_76\n        /* \"#utility.yul\":1279:1283   */\n      dup3\n        /* \"#utility.yul\":1271:1277   */\n      dup3\n        /* \"#utility.yul\":1251:1284   */\n      tag_32\n      jump\t// in\n    tag_76:\n        /* \"#utility.yul\":1161:1290   */\n      swap2\n      swap1\n      pop\n      jump\t// out\n        /* \"#utility.yul\":1296:1604   */\n    tag_34:\n        /* \"#utility.yul\":1358:1362   */\n      0x00\n        /* \"#utility.yul\":1448:1466   */\n      0xffffffffffffffff\n        /* \"#utility.yul\":1440:1446   */\n      dup3\n        /* \"#utility.yul\":1437:1467   */\n      gt\n        /* \"#utility.yul\":1434:1490   */\n      iszero\n      tag_78\n      jumpi\n        /* \"#utility.yul\":1470:1488   */\n      tag_79\n      tag_31\n      jump\t// in\n    tag_79:\n        /* \"#utility.yul\":1434:1490   */\n    tag_78:\n        /* \"#utility.yul\":1508:1537   */\n      tag_80\n        /* \"#utility.yul\":1530:1536   */\n      dup3\n        /* \"#utility.yul\":1508:1537   */\n      tag_30\n      jump\t// in\n    tag_80:\n        /* \"#utility.yul\":1500:1537   */\n      swap1\n      pop\n        /* \"#utility.yul\":1592:1596   */\n      0x20\n        /* \"#utility.yul\":1586:1590   */\n      dup2\n        /* \"#utility.yul\":1582:1597   */\n      add\n        /* \"#utility.yul\":1574:1597   */\n      swap1\n      pop\n        /* \"#utility.yul\":1296:1604   */\n      swap2\n      swap1\n      pop\n      jump\t// out\n        /* \"#utility.yul\":1610:1758   */\n    tag_35:\n        /* \"#utility.yul\":1708:1714   */\n      dup3\n        /* \"#utility.yul\":1703:1706   */\n      dup2\n        /* \"#utility.yul\":1698:1701   */\n      dup4\n        /* \"#utility.yul\":1685:1715   */\n      calldatacopy\n        /* \"#utility.yul\":1749:1750   */\n      0x00\n        /* \"#utility.yul\":1740:1746   */\n      dup4\n        /* \"#utility.yul\":1735:1738   */\n      dup4\n        /* \"#utility.yul\":1731:1747   */\n      add\n        /* \"#utility.yul\":1724:1751   */\n      mstore\n        /* \"#utility.yul\":1610:1758   */\n      pop\n      pop\n      pop\n      jump\t// out\n        /* \"#utility.yul\":1764:2189   */\n    tag_36:\n        /* \"#utility.yul\":1842:1847   */\n      0x00\n        /* \"#utility.yul\":1867:1933   */\n      tag_83\n        /* \"#utility.yul\":1883:1932   */\n      tag_84\n        /* \"#utility.yul\":1925:1931   */\n      dup5\n        /* \"#utility.yul\":1883:1932   */\n      tag_34\n      jump\t// in\n    tag_84:\n        /* \"#utility.yul\":1867:1933   */\n      tag_33\n      jump\t// in\n    tag_83:\n        /* \"#utility.yul\":1858:1933   */\n      swap1\n      pop\n        /* \"#utility.yul\":1956:1962   */\n      dup3\n        /* \"#utility.yul\":1949:1954   */\n      dup2\n        /* \"#utility.yul\":1942:1963   */\n      mstore\n        /* \"#utility.yul\":1994:1998   */\n      0x20\n        /* \"#utility.yul\":1987:1992   */\n      dup2\n        /* \"#utility.yul\":1983:1999   */\n      add\n        /* \"#utility.yul\":2032:2035   */\n      dup5\n        /* \"#utility.yul\":2023:2029   */\n      dup5\n        /* \"#utility.yul\":2018:2021   */\n      dup5\n        /* \"#utility.yul\":2014:2030   */\n      add\n        /* \"#utility.yul\":2011:2036   */\n      gt\n        /* \"#utility.yul\":2008:2120   */\n      iszero\n      tag_85\n      jumpi\n        /* \"#utility.yul\":2039:2118   */\n      tag_86\n      tag_29\n      jump\t// in\n    tag_86:\n        /* \"#utility.yul\":2008:2120   */\n    tag_85:\n        /* \"#utility.yul\":2129:2183   */\n      tag_87\n        /* \"#utility.yul\":2176:2182   */\n      dup5\n        /* \"#utility.yul\":2171:2174   */\n      dup3\n        /* \"#utility.yul\":2166:2169   */\n      dup6\n        /* \"#utility.yul\":2129:2183   */\n      tag_35\n      jump\t// in\n    tag_87:\n        /* \"#utility.yul\":1848:2189   */\n      pop\n        /* \"#utility.yul\":1764:2189   */\n      swap4\n      swap3\n      pop\n      pop\n      pop\n      jump\t// out\n        /* \"#utility.yul\":2209:2549   */\n    tag_37:\n        /* \"#utility.yul\":2265:2270   */\n      0x00\n        /* \"#utility.yul\":2314:2317   */\n      dup3\n        /* \"#utility.yul\":2307:2311   */\n      0x1f\n        /* \"#utility.yul\":2299:2305   */\n      dup4\n        /* \"#utility.yul\":2295:2312   */\n      add\n        /* \"#utility.yul\":2291:2318   */\n      slt\n        /* \"#utility.yul\":2281:2403   */\n      tag_89\n      jumpi\n        /* \"#utility.yul\":2322:2401   */\n      tag_90\n      tag_28\n      jump\t// in\n    tag_90:\n        /* \"#utility.yul\":2281:2403   */\n    tag_89:\n        /* \"#utility.yul\":2439:2445   */\n      dup2\n        /* \"#utility.yul\":2426:2446   */\n      calldataload\n        /* \"#utility.yul\":2464:2543   */\n      tag_91\n        /* \"#utility.yul\":2539:2542   */\n      dup5\n        /* \"#utility.yul\":2531:2537   */\n      dup3\n        /* \"#utility.yul\":2524:2528   */\n      0x20\n        /* \"#utility.yul\":2516:2522   */\n      dup7\n        /* \"#utility.yul\":2512:2529   */\n      add\n        /* \"#utility.yul\":2464:2543   */\n      tag_36\n      jump\t// in\n    tag_91:\n        /* \"#utility.yul\":2455:2543   */\n      swap2\n      pop\n        /* \"#utility.yul\":2271:2549   */\n      pop\n        /* \"#utility.yul\":2209:2549   */\n      swap3\n      swap2\n      pop\n      pop\n      jump\t// out\n        /* \"#utility.yul\":2555:3064   */\n    tag_7:\n        /* \"#utility.yul\":2624:2630   */\n      0x00\n        /* \"#utility.yul\":2673:2675   */\n      0x20\n        /* \"#utility.yul\":2661:2670   */\n      dup3\n        /* \"#utility.yul\":2652:2659   */\n      dup5\n        /* \"#utility.yul\":2648:2671   */\n      sub\n        /* \"#utility.yul\":2644:2676   */\n      slt\n        /* \"#utility.yul\":2641:2760   */\n      iszero\n      tag_93\n      jumpi\n        /* \"#utility.yul\":2679:2758   */\n      tag_94\n      tag_26\n      jump\t// in\n    tag_94:\n        /* \"#utility.yul\":2641:2760   */\n    tag_93:\n        /* \"#utility.yul\":2827:2828   */\n      0x00\n        /* \"#utility.yul\":2816:2825   */\n      dup3\n        /* \"#utility.yul\":2812:2829   */\n      add\n        /* \"#utility.yul\":2799:2830   */\n      calldataload\n        /* \"#utility.yul\":2857:2875   */\n      0xffffffffffffffff\n        /* \"#utility.yul\":2849:2855   */\n      dup2\n        /* \"#utility.yul\":2846:2876   */\n      gt\n        /* \"#utility.yul\":2843:2960   */\n      iszero\n      tag_95\n      jumpi\n        /* \"#utility.yul\":2879:2958   */\n      tag_96\n      tag_27\n      jump\t// in\n    tag_96:\n        /* \"#utility.yul\":2843:2960   */\n    tag_95:\n        /* \"#utility.yul\":2984:3047   */\n      tag_97\n        /* \"#utility.yul\":3039:3046   */\n      dup5\n        /* \"#utility.yul\":3030:3036   */\n      dup3\n        /* \"#utility.yul\":3019:3028   */\n      dup6\n        /* \"#utility.yul\":3015:3037   */\n      add\n        /* \"#utility.yul\":2984:3047   */\n      tag_37\n      jump\t// in\n    tag_97:\n        /* \"#utility.yul\":2974:3047   */\n      swap2\n      pop\n        /* \"#utility.yul\":2770:3057   */\n      pop\n        /* \"#utility.yul\":2555:3064   */\n      swap3\n      swap2\n      pop\n      pop\n      jump\t// out\n        /* \"#utility.yul\":3070:3169   */\n    tag_38:\n        /* \"#utility.yul\":3122:3128   */\n      0x00\n        /* \"#utility.yul\":3156:3161   */\n      dup2\n        /* \"#utility.yul\":3150:3162   */\n      mload\n        /* \"#utility.yul\":3140:3162   */\n      swap1\n      pop\n        /* \"#utility.yul\":3070:3169   */\n      swap2\n      swap1\n      pop\n      jump\t// out\n        /* \"#utility.yul\":3175:3344   */\n    tag_39:\n        /* \"#utility.yul\":3259:3270   */\n      0x00\n        /* \"#utility.yul\":3293:3299   */\n      dup3\n        /* \"#utility.yul\":3288:3291   */\n      dup3\n        /* \"#utility.yul\":3281:3300   */\n      mstore\n        /* \"#utility.yul\":3333:3337   */\n      0x20\n        /* \"#utility.yul\":3328:3331   */\n      dup3\n        /* \"#utility.yul\":3324:3338   */\n      add\n        /* \"#utility.yul\":3309:3338   */\n      swap1\n      pop\n        /* \"#utility.yul\":3175:3344   */\n      swap3\n      swap2\n      pop\n      pop\n      jump\t// out\n        /* \"#utility.yul\":3350:3489   */\n    tag_40:\n        /* \"#utility.yul\":3439:3445   */\n      dup3\n        /* \"#utility.yul\":3434:3437   */\n      dup2\n        /* \"#utility.yul\":3429:3432   */\n      dup4\n        /* \"#utility.yul\":3423:3446   */\n      mcopy\n        /* \"#utility.yul\":3480:3481   */\n      0x00\n        /* \"#utility.yul\":3471:3477   */\n      dup4\n        /* \"#utility.yul\":3466:3469   */\n      dup4\n        /* \"#utility.yul\":3462:3478   */\n      add\n        /* \"#utility.yul\":3455:3482   */\n      mstore\n        /* \"#utility.yul\":3350:3489   */\n      pop\n      pop\n      pop\n      jump\t// out\n        /* \"#utility.yul\":3495:3872   */\n    tag_41:\n        /* \"#utility.yul\":3583:3586   */\n      0x00\n        /* \"#utility.yul\":3611:3650   */\n      tag_102\n        /* \"#utility.yul\":3644:3649   */\n      dup3\n        /* \"#utility.yul\":3611:3650   */\n      tag_38\n      jump\t// in\n    tag_102:\n        /* \"#utility.yul\":3666:3737   */\n      tag_103\n        /* \"#utility.yul\":3730:3736   */\n      dup2\n        /* \"#utility.yul\":3725:3728   */\n      dup6\n        /* \"#utility.yul\":3666:3737   */\n      tag_39\n      jump\t// in\n    tag_103:\n        /* \"#utility.yul\":3659:3737   */\n      swap4\n      pop\n        /* \"#utility.yul\":3746:3811   */\n      tag_104\n        /* \"#utility.yul\":3804:3810   */\n      dup2\n        /* \"#utility.yul\":3799:3802   */\n      dup6\n        /* \"#utility.yul\":3792:3796   */\n      0x20\n        /* \"#utility.yul\":3785:3790   */\n      dup7\n        /* \"#utility.yul\":3781:3797   */\n      add\n        /* \"#utility.yul\":3746:3811   */\n      tag_40\n      jump\t// in\n    tag_104:\n        /* \"#utility.yul\":3836:3865   */\n      tag_105\n        /* \"#utility.yul\":3858:3864   */\n      dup2\n        /* \"#utility.yul\":3836:3865   */\n      tag_30\n      jump\t// in\n    tag_105:\n        /* \"#utility.yul\":3831:3834   */\n      dup5\n        /* \"#utility.yul\":3827:3866   */\n      add\n        /* \"#utility.yul\":3820:3866   */\n      swap2\n      pop\n        /* \"#utility.yul\":3587:3872   */\n      pop\n        /* \"#utility.yul\":3495:3872   */\n      swap3\n      swap2\n      pop\n      pop\n      jump\t// out\n        /* \"#utility.yul\":3878:4191   */\n    tag_12:\n        /* \"#utility.yul\":3991:3995   */\n      0x00\n        /* \"#utility.yul\":4029:4031   */\n      0x20\n        /* \"#utility.yul\":4018:4027   */\n      dup3\n        /* \"#utility.yul\":4014:4032   */\n      add\n        /* \"#utility.yul\":4006:4032   */\n      swap1\n      pop\n        /* \"#utility.yul\":4078:4087   */\n      dup2\n        /* \"#utility.yul\":4072:4076   */\n      dup2\n        /* \"#utility.yul\":4068:4088   */\n      sub\n        /* \"#utility.yul\":4064:4065   */\n      0x00\n        /* \"#utility.yul\":4053:4062   */\n      dup4\n        /* \"#utility.yul\":4049:4066   */\n      add\n        /* \"#utility.yul\":4042:4089   */\n      mstore\n        /* \"#utility.yul\":4106:4184   */\n      tag_107\n        /* \"#utility.yul\":4179:4183   */\n      dup2\n        /* \"#utility.yul\":4170:4176   */\n      dup5\n        /* \"#utility.yul\":4106:4184   */\n      tag_41\n      jump\t// in\n    tag_107:\n        /* \"#utility.yul\":4098:4184   */\n      swap1\n      pop\n        /* \"#utility.yul\":3878:4191   */\n      swap3\n      swap2\n      pop\n      pop\n      jump\t// out\n        /* \"#utility.yul\":4197:4377   */\n    tag_42:\n        /* \"#utility.yul\":4245:4322   */\n      0x4e487b7100000000000000000000000000000000000000000000000000000000\n        /* \"#utility.yul\":4242:4243   */\n      0x00\n        /* \"#utility.yul\":4235:4323   */\n      mstore\n        /* \"#utility.yul\":4342:4346   */\n      0x22\n        /* \"#utility.yul\":4339:4340   */\n      0x04\n        /* \"#utility.yul\":4332:4347   */\n      mstore\n        /* \"#utility.yul\":4366:4370   */\n      0x24\n        /* \"#utility.yul\":4363:4364   */\n      0x00\n        /* \"#utility.yul\":4356:4371   */\n      revert\n        /* \"#utility.yul\":4383:4703   */\n    tag_20:\n        /* \"#utility.yul\":4427:4433   */\n      0x00\n        /* \"#utility.yul\":4464:4465   */\n      0x02\n        /* \"#utility.yul\":4458:4462   */\n      dup3\n        /* \"#utility.yul\":4454:4466   */\n      div\n        /* \"#utility.yul\":4444:4466   */\n      swap1\n      pop\n        /* \"#utility.yul\":4511:4512   */\n      0x01\n        /* \"#utility.yul\":4505:4509   */\n      dup3\n        /* \"#utility.yul\":4501:4513   */\n      and\n        /* \"#utility.yul\":4532:4550   */\n      dup1\n        /* \"#utility.yul\":4522:4603   */\n      tag_110\n      jumpi\n        /* \"#utility.yul\":4588:4592   */\n      0x7f\n        /* \"#utility.yul\":4580:4586   */\n      dup3\n        /* \"#utility.yul\":4576:4593   */\n      and\n        /* \"#utility.yul\":4566:4593   */\n      swap2\n      pop\n        /* \"#utility.yul\":4522:4603   */\n    tag_110:\n        /* \"#utility.yul\":4650:4652   */\n      0x20\n        /* \"#utility.yul\":4642:4648   */\n      dup3\n        /* \"#utility.yul\":4639:4653   */\n      lt\n        /* \"#utility.yul\":4619:4637   */\n      dup2\n        /* \"#utility.yul\":4616:4654   */\n      sub\n        /* \"#utility.yul\":4613:4697   */\n      tag_111\n      jumpi\n        /* \"#utility.yul\":4669:4687   */\n      tag_112\n      tag_42\n      jump\t// in\n    tag_112:\n        /* \"#utility.yul\":4613:4697   */\n    tag_111:\n        /* \"#utility.yul\":4434:4703   */\n      pop\n        /* \"#utility.yul\":4383:4703   */\n      swap2\n      swap1\n      pop\n      jump\t// out\n        /* \"#utility.yul\":4709:4850   */\n    tag_43:\n        /* \"#utility.yul\":4758:4762   */\n      0x00\n        /* \"#utility.yul\":4781:4784   */\n      dup2\n        /* \"#utility.yul\":4773:4784   */\n      swap1\n      pop\n        /* \"#utility.yul\":4804:4807   */\n      dup2\n        /* \"#utility.yul\":4801:4802   */\n      0x00\n        /* \"#utility.yul\":4794:4808   */\n      mstore\n        /* \"#utility.yul\":4838:4842   */\n      0x20\n        /* \"#utility.yul\":4835:4836   */\n      0x00\n        /* \"#utility.yul\":4825:4843   */\n      keccak256\n        /* \"#utility.yul\":4817:4843   */\n      swap1\n      pop\n        /* \"#utility.yul\":4709:4850   */\n      swap2\n      swap1\n      pop\n      jump\t// out\n        /* \"#utility.yul\":4856:4949   */\n    tag_44:\n        /* \"#utility.yul\":4893:4899   */\n      0x00\n        /* \"#utility.yul\":4940:4942   */\n      0x20\n        /* \"#utility.yul\":4935:4937   */\n      0x1f\n        /* \"#utility.yul\":4928:4933   */\n      dup4\n        /* \"#utility.yul\":4924:4938   */\n      add\n        /* \"#utility.yul\":4920:4943   */\n      div\n        /* \"#utility.yul\":4910:4943   */\n      swap1\n      pop\n        /* \"#utility.yul\":4856:4949   */\n      swap2\n      swap1\n      pop\n      jump\t// out\n        /* \"#utility.yul\":4955:5062   */\n    tag_45:\n        /* \"#utility.yul\":4999:5007   */\n      0x00\n        /* \"#utility.yul\":5049:5054   */\n      dup3\n        /* \"#utility.yul\":5043:5047   */\n      dup3\n        /* \"#utility.yul\":5039:5055   */\n      shl\n        /* \"#utility.yul\":5018:5055   */\n      swap1\n      pop\n        /* \"#utility.yul\":4955:5062   */\n      swap3\n      swap2\n      pop\n      pop\n      jump\t// out\n        /* \"#utility.yul\":5068:5461   */\n    tag_46:\n        /* \"#utility.yul\":5137:5143   */\n      0x00\n        /* \"#utility.yul\":5187:5188   */\n      0x08\n        /* \"#utility.yul\":5175:5185   */\n      dup4\n        /* \"#utility.yul\":5171:5189   */\n      mul\n        /* \"#utility.yul\":5210:5307   */\n      tag_117\n        /* \"#utility.yul\":5240:5306   */\n      0xffffffffffffffffffffffffffffffffffffffffffffffffffffffffffffffff\n        /* \"#utility.yul\":5229:5238   */\n      dup3\n        /* \"#utility.yul\":5210:5307   */\n      tag_45\n      jump\t// in\n    tag_117:\n        /* \"#utility.yul\":5328:5367   */\n      tag_118\n        /* \"#utility.yul\":5358:5366   */\n      dup7\n        /* \"#utility.yul\":5347:5356   */\n      dup4\n        /* \"#utility.yul\":5328:5367   */\n      tag_45\n      jump\t// in\n    tag_118:\n        /* \"#utility.yul\":5316:5367   */\n      swap6\n      pop\n        /* \"#utility.yul\":5400:5404   */\n      dup1\n        /* \"#utility.yul\":5396:5405   */\n      not\n        /* \"#utility.yul\":5389:5394   */\n      dup5\n        /* \"#utility.yul\":5385:5406   */\n      and\n        /* \"#utility.yul\":5376:5406   */\n      swap4\n      pop\n        /* \"#utility.yul\":5449:5453   */\n      dup1\n        /* \"#utility.yul\":5439:5447   */\n      dup7\n        /* \"#utility.yul\":5435:5454   */\n      and\n        /* \"#utility.yul\":5428:5433   */\n      dup5\n        /* \"#utility.yul\":5425:5455   */\n      or\n        /* \"#utility.yul\":5415:5455   */\n      swap3\n      pop\n        /* \"#utility.yul\":5144:5461   */\n      pop\n      pop\n        /* \"#utility.yul\":5068:5461   */\n      swap4\n      swap3\n      pop\n      pop\n      pop\n      jump\t// out\n        /* \"#utility.yul\":5467:5544   */\n    tag_47:\n        /* \"#utility.yul\":5504:5511   */\n      0x00\n        /* \"#utility.yul\":5533:5538   */\n      dup2\n        /* \"#utility.yul\":5522:5538   */\n      swap1\n      pop\n        /* \"#utility.yul\":5467:5544   */\n      swap2\n      swap1\n      pop\n      jump\t// out\n        /* \"#utility.yul\":5550:5610   */\n    tag_48:\n        /* \"#utility.yul\":5578:5581   */\n      0x00\n        /* \"#utility.yul\":5599:5604   */\n      dup2\n        /* \"#utility.yul\":5592:5604   */\n      swap1\n      pop\n        /* \"#utility.yul\":5550:5610   */\n      swap2\n      swap1\n      pop\n      jump\t// out\n        /* \"#utility.yul\":5616:5758   */\n    tag_49:\n        /* \"#utility.yul\":5666:5675   */\n      0x00\n        /* \"#utility.yul\":5699:5752   */\n      tag_122\n        /* \"#utility.yul\":5717:5751   */\n      tag_123\n        /* \"#utility.yul\":5726:5750   */\n      tag_124\n        /* \"#utility.yul\":5744:5749   */\n      dup5\n        /* \"#utility.yul\":5726:5750   */\n      tag_47\n      jump\t// in\n    tag_124:\n        /* \"#utility.yul\":5717:5751   */\n      tag_48\n      jump\t// in\n    tag_123:\n        /* \"#utility.yul\":5699:5752   */\n      tag_47\n      jump\t// in\n    tag_122:\n        /* \"#utility.yul\":5686:5752   */\n      swap1\n      pop\n        /* \"#utility.yul\":5616:5758   */\n      swap2\n      swap1\n      pop\n      jump\t// out\n        /* \"#utility.yul\":5764:5839   */\n    tag_50:\n        /* \"#utility.yul\":5807:5810   */\n      0x00\n        /* \"#utility.yul\":5828:5833   */\n      dup2\n        /* \"#utility.yul\":5821:5833   */\n      swap1\n      pop\n        /* \"#utility.yul\":5764:5839   */\n      swap2\n      swap1\n      pop\n      jump\t// out\n        /* \"#utility.yul\":5845:6114   */\n    tag_51:\n        /* \"#utility.yul\":5955:5994   */\n      tag_127\n        /* \"#utility.yul\":5986:5993   */\n      dup4\n        /* \"#utility.yul\":5955:5994   */\n      tag_49\n      jump\t// in\n    tag_127:\n        /* \"#utility.yul\":6016:6107   */\n      tag_128\n        /* \"#utility.yul\":6065:6106   */\n      tag_129\n        /* \"#utility.yul\":6089:6105   */\n      dup3\n        /* \"#utility.yul\":6065:6106   */\n      tag_50\n      jump\t// in\n    tag_129:\n        /* \"#utility.yul\":6057:6063   */\n      dup5\n        /* \"#utility.yul\":6050:6054   */\n      dup5\n        /* \"#utility.yul\":6044:6055   */\n      sload\n        /* \"#utility.yul\":6016:6107   */\n      tag_46\n      jump\t// in\n    tag_128:\n        /* \"#utility.yul\":6010:6014   */\n      dup3\n        /* \"#utility.yul\":6003:6108   */\n      sstore\n        /* \"#utility.yul\":5921:6114   */\n      pop\n        /* \"#utility.yul\":5845:6114   */\n      pop\n      pop\n      pop\n      jump\t// out\n        /* \"#utility.yul\":6120:6193   */\n    tag_52:\n        /* \"#utility.yul\":6165:6168   */\n      0x00\n        /* \"#utility.yul\":6186:6187   */\n      0x00\n        /* \"#utility.yul\":6179:6187   */\n      swap1\n      pop\n        /* \"#utility.yul\":6120:6193   */\n      swap1\n      jump\t// out\n        /* \"#utility.yul\":6199:6388   */\n    tag_53:\n        /* \"#utility.yul\":6276:6308   */\n      tag_132\n      tag_52\n      jump\t// in\n    tag_132:\n        /* \"#utility.yul\":6317:6382   */\n      tag_133\n        /* \"#utility.yul\":6375:6381   */\n      dup2\n        /* \"#utility.yul\":6367:6373   */\n      dup5\n        /* \"#utility.yul\":6361:6365   */\n      dup5\n        /* \"#utility.yul\":6317:6382   */\n      tag_51\n      jump\t// in\n    tag_133:\n        /* \"#utility.yul\":6252:6388   */\n      pop\n        /* \"#utility.yul\":6199:6388   */\n      pop\n      pop\n      jump\t// out\n        /* \"#utility.yul\":6394:6580   */\n    tag_54:\n        /* \"#utility.yul\":6454:6574   */\n    tag_135:\n        /* \"#utility.yul\":6471:6474   */\n      dup2\n        /* \"#utility.yul\":6464:6469   */\n      dup2\n        /* \"#utility.yul\":6461:6475   */\n      lt\n        /* \"#utility.yul\":6454:6574   */\n      iszero\n      tag_137\n      jumpi\n        /* \"#utility.yul\":6525:6564   */\n      tag_138\n        /* \"#utility.yul\":6562:6563   */\n      0x00\n        /* \"#utility.yul\":6555:6560   */\n      dup3\n        /* \"#utility.yul\":6525:6564   */\n      tag_53\n      jump\t// in\n    tag_138:\n        /* \"#utility.yul\":6498:6499   */\n      0x01\n        /* \"#utility.yul\":6491:6496   */\n      dup2\n        /* \"#utility.yul\":6487:6500   */\n      add\n        /* \"#utility.yul\":6478:6500   */\n      swap1\n      pop\n        /* \"#utility.yul\":6454:6574   */\n      jump(tag_135)\n    tag_137:\n        /* \"#utility.yul\":6394:6580   */\n      pop\n      pop\n      jump\t// out\n        /* \"#utility.yul\":6586:7129   */\n    tag_55:\n        /* \"#utility.yul\":6687:6689   */\n      0x1f\n        /* \"#utility.yul\":6682:6685   */\n      dup3\n        /* \"#utility.yul\":6679:6690   */\n      gt\n        /* \"#utility.yul\":6676:7122   */\n      iszero\n      tag_140\n      jumpi\n        /* \"#utility.yul\":6721:6759   */\n      tag_141\n        /* \"#utility.yul\":6753:6758   */\n      dup2\n        /* \"#utility.yul\":6721:6759   */\n      tag_43\n      jump\t// in\n    tag_141:\n        /* \"#utility.yul\":6805:6834   */\n      tag_142\n        /* \"#utility.yul\":6823:6833   */\n      dup5\n        /* \"#utility.yul\":6805:6834   */\n      tag_44\n      jump\t// in\n    tag_142:\n        /* \"#utility.yul\":6795:6803   */\n      dup2\n        /* \"#utility.yul\":6791:6835   */\n      add\n        /* \"#utility.yul\":6988:6990   */\n      0x20\n        /* \"#utility.yul\":6976:6986   */\n      dup6\n        /* \"#utility.yul\":6973:6991   */\n      lt\n        /* \"#utility.yul\":6970:7019   */\n      iszero\n      tag_143\n      jumpi\n        /* \"#utility.yul\":7009:7017   */\n      dup2\n        /* \"#utility.yul\":6994:7017   */\n      swap1\n      pop\n        /* \"#utility.yul\":6970:7019   */\n    tag_143:\n        /* \"#utility.yul\":7032:7112   */\n      tag_144\n        /* \"#utility.yul\":7088:7110   */\n      tag_145\n        /* \"#utility.yul\":7106:7109   */\n      dup6\n        /* \"#utility.yul\":7088:7110   */\n      tag_44\n      jump\t// in\n    tag_145:\n        /* \"#utility.yul\":7078:7086   */\n      dup4\n        /* \"#utility.yul\":7074:7111   */\n      add\n        /* \"#utility.yul\":7061:7072   */\n      dup3\n        /* \"#utility.yul\":7032:7112   */\n      tag_54\n      jump\t// in\n    tag_144:\n        /* \"#utility.yul\":6691:7122   */\n      pop\n      pop\n        /* \"#utility.yul\":6676:7122   */\n    tag_140:\n        /* \"#utility.yul\":6586:7129   */\n      pop\n      pop\n      pop\n      jump\t// out\n        /* \"#utility.yul\":7135:7252   */\n    tag_56:\n        /* \"#utility.yul\":7189:7197   */\n      0x00\n        /* \"#utility.yul\":7239:7244   */\n      dup3\n        /* \"#utility.yul\":7233:7237   */\n      dup3\n        /* \"#utility.yul\":7229:7245   */\n      shr\n        /* \"#utility.yul\":7208:7245   */\n      swap1\n      pop\n        /* \"#utility.yul\":7135:7252   */\n      swap3\n      swap2\n      pop\n      pop\n      jump\t// out\n        /* \"#utility.yul\":7258:7427   */\n    tag_57:\n        /* \"#utility.yul\":7302:7308   */\n      0x00\n        /* \"#utility.yul\":7335:7386   */\n      tag_148\n        /* \"#utility.yul\":7383:7384   */\n      0x00\n        /* \"#utility.yul\":7379:7385   */\n      not\n        /* \"#utility.yul\":7371:7376   */\n      dup5\n        /* \"#utility.yul\":7368:7369   */\n      0x08\n        /* \"#utility.yul\":7364:7377   */\n      mul\n        /* \"#utility.yul\":7335:7386   */\n      tag_56\n      jump\t// in\n    tag_148:\n        /* \"#utility.yul\":7331:7387   */\n      not\n        /* \"#utility.yul\":7416:7420   */\n      dup1\n        /* \"#utility.yul\":7410:7414   */\n      dup4\n        /* \"#utility.yul\":7406:7421   */\n      and\n        /* \"#utility.yul\":7396:7421   */\n      swap2\n      pop\n        /* \"#utility.yul\":7309:7427   */\n      pop\n        /* \"#utility.yul\":7258:7427   */\n      swap3\n      swap2\n      pop\n      pop\n      jump\t// out\n        /* \"#utility.yul\":7432:7727   */\n    tag_58:\n        /* \"#utility.yul\":7508:7512   */\n      0x00\n        /* \"#utility.yul\":7654:7683   */\n      tag_150\n        /* \"#utility.yul\":7679:7682   */\n      dup4\n        /* \"#utility.yul\":7673:7677   */\n      dup4\n        /* \"#utility.yul\":7654:7683   */\n      tag_57\n      jump\t// in\n    tag_150:\n        /* \"#utility.yul\":7646:7683   */\n      swap2\n      pop\n        /* \"#utility.yul\":7716:7719   */\n      dup3\n        /* \"#utility.yul\":7713:7714   */\n      0x02\n        /* \"#utility.yul\":7709:7720   */\n      mul\n        /* \"#utility.yul\":7703:7707   */\n      dup3\n        /* \"#utility.yul\":7700:7721   */\n      or\n        /* \"#utility.yul\":7692:7721   */\n      swap1\n      pop\n        /* \"#utility.yul\":7432:7727   */\n      swap3\n      swap2\n      pop\n      pop\n      jump\t// out\n        /* \"#utility.yul\":7732:9127   */\n    tag_15:\n        /* \"#utility.yul\":7849:7886   */\n      tag_152\n        /* \"#utility.yul\":7882:7885   */\n      dup3\n        /* \"#utility.yul\":7849:7886   */\n      tag_38\n      jump\t// in\n    tag_152:\n        /* \"#utility.yul\":7951:7969   */\n      0xffffffffffffffff\n        /* \"#utility.yul\":7943:7949   */\n      dup2\n        /* \"#utility.yul\":7940:7970   */\n      gt\n        /* \"#utility.yul\":7937:7993   */\n      iszero\n      tag_153\n      jumpi\n        /* \"#utility.yul\":7973:7991   */\n      tag_154\n      tag_31\n      jump\t// in\n    tag_154:\n        /* \"#utility.yul\":7937:7993   */\n    tag_153:\n        /* \"#utility.yul\":8017:8055   */\n      tag_155\n        /* \"#utility.yul\":8049:8053   */\n      dup3\n        /* \"#utility.yul\":8043:8054   */\n      sload\n        /* \"#utility.yul\":8017:8055   */\n      tag_20\n      jump\t// in\n    tag_155:\n        /* \"#utility.yul\":8102:8169   */\n      tag_156\n        /* \"#utility.yul\":8162:8168   */\n      dup3\n        /* \"#utility.yul\":8154:8160   */\n      dup3\n        /* \"#utility.yul\":8148:8152   */\n      dup6\n        /* \"#utility.yul\":8102:8169   */\n      tag_55\n      jump\t// in\n    tag_156:\n        /* \"#utility.yul\":8196:8197   */\n      0x00\n        /* \"#utility.yul\":8220:8224   */\n      0x20\n        /* \"#utility.yul\":8207:8224   */\n      swap1\n      pop\n        /* \"#utility.yul\":8252:8254   */\n      0x1f\n        /* \"#utility.yul\":8244:8250   */\n      dup4\n        /* \"#utility.yul\":8241:8255   */\n      gt\n        /* \"#utility.yul\":8269:8270   */\n      0x01\n        /* \"#utility.yul\":8264:8882   */\n      dup2\n      eq\n      tag_158\n      jumpi\n        /* \"#utility.yul\":8926:8927   */\n      0x00\n        /* \"#utility.yul\":8943:8949   */\n      dup5\n        /* \"#utility.yul\":8940:9017   */\n      iszero\n      tag_159\n      jumpi\n        /* \"#utility.yul\":8992:9001   */\n      dup3\n        /* \"#utility.yul\":8987:8990   */\n      dup8\n        /* \"#utility.yul\":8983:9002   */\n      add\n        /* \"#utility.yul\":8977:9003   */\n      mload\n        /* \"#utility.yul\":8968:9003   */\n      swap1\n      pop\n        /* \"#utility.yul\":8940:9017   */\n    tag_159:\n        /* \"#utility.yul\":9043:9110   */\n      tag_160\n        /* \"#utility.yul\":9103:9109   */\n      dup6\n        /* \"#utility.yul\":9096:9101   */\n      dup3\n        /* \"#utility.yul\":9043:9110   */\n      tag_58\n      jump\t// in\n    tag_160:\n        /* \"#utility.yul\":9037:9041   */\n      dup7\n        /* \"#utility.yul\":9030:9111   */\n      sstore\n        /* \"#utility.yul\":8899:9121   */\n      pop\n        /* \"#utility.yul\":8234:9121   */\n      jump(tag_157)\n        /* \"#utility.yul\":8264:8882   */\n    tag_158:\n        /* \"#utility.yul\":8316:8320   */\n      0x1f\n        /* \"#utility.yul\":8312:8321   */\n      not\n        /* \"#utility.yul\":8304:8310   */\n      dup5\n        /* \"#utility.yul\":8300:8322   */\n      and\n        /* \"#utility.yul\":8350:8387   */\n      tag_161\n        /* \"#utility.yul\":8382:8386   */\n      dup7\n        /* \"#utility.yul\":8350:8387   */\n      tag_43\n      jump\t// in\n    tag_161:\n        /* \"#utility.yul\":8409:8410   */\n      0x00\n        /* \"#utility.yul\":8423:8631   */\n    tag_162:\n        /* \"#utility.yul\":8437:8444   */\n      dup3\n        /* \"#utility.yul\":8434:8435   */\n      dup2\n        /* \"#utility.yul\":8431:8445   */\n      lt\n        /* \"#utility.yul\":8423:8631   */\n      iszero\n      tag_164\n      jumpi\n        /* \"#utility.yul\":8516:8525   */\n      dup5\n        /* \"#utility.yul\":8511:8514   */\n      dup10\n        /* \"#utility.yul\":8507:8526   */\n      add\n        /* \"#utility.yul\":8501:8527   */\n      mload\n        /* \"#utility.yul\":8493:8499   */\n      dup3\n        /* \"#utility.yul\":8486:8528   */\n      sstore\n        /* \"#utility.yul\":8567:8568   */\n      0x01\n        /* \"#utility.yul\":8559:8565   */\n      dup3\n        /* \"#utility.yul\":8555:8569   */\n      add\n        /* \"#utility.yul\":8545:8569   */\n      swap2\n      pop\n        /* \"#utility.yul\":8614:8616   */\n      0x20\n        /* \"#utility.yul\":8603:8612   */\n      dup6\n        /* \"#utility.yul\":8599:8617   */\n      add\n        /* \"#utility.yul\":8586:8617   */\n      swap5\n      pop\n        /* \"#utility.yul\":8460:8464   */\n      0x20\n        /* \"#utility.yul\":8457:8458   */\n      dup2\n        /* \"#utility.yul\":8453:8465   */\n      add\n        /* \"#utility.yul\":8448:8465   */\n      swap1\n      pop\n        /* \"#utility.yul\":8423:8631   */\n      jump(tag_162)\n    tag_164:\n        /* \"#utility.yul\":8659:8665   */\n      dup7\n        /* \"#utility.yul\":8650:8657   */\n      dup4\n        /* \"#utility.yul\":8647:8666   */\n      lt\n        /* \"#utility.yul\":8644:8823   */\n      iszero\n      tag_165\n      jumpi\n        /* \"#utility.yul\":8717:8726   */\n      dup5\n        /* \"#utility.yul\":8712:8715   */\n      dup10\n        /* \"#utility.yul\":8708:8727   */\n      add\n        /* \"#utility.yul\":8702:8728   */\n      mload\n        /* \"#utility.yul\":8760:8808   */\n      tag_166\n        /* \"#utility.yul\":8802:8806   */\n      0x1f\n        /* \"#utility.yul\":8794:8800   */\n      dup10\n        /* \"#utility.yul\":8790:8807   */\n      and\n        /* \"#utility.yul\":8779:8788   */\n      dup3\n        /* \"#utility.yul\":8760:8808   */\n      tag_57\n      jump\t// in\n    tag_166:\n        /* \"#utility.yul\":8752:8758   */\n      dup4\n        /* \"#utility.yul\":8745:8809   */\n      sstore\n        /* \"#utility.yul\":8667:8823   */\n      pop\n        /* \"#utility.yul\":8644:8823   */\n    tag_165:\n        /* \"#utility.yul\":8869:8870   */\n      0x01\n        /* \"#utility.yul\":8865:8866   */\n      0x02\n        /* \"#utility.yul\":8857:8863   */\n      dup9\n        /* \"#utility.yul\":8853:8867   */\n      mul\n        /* \"#utility.yul\":8849:8871   */\n      add\n        /* \"#utility.yul\":8843:8847   */\n      dup9\n        /* \"#utility.yul\":8836:8872   */\n      sstore\n        /* \"#utility.yul\":8271:8882   */\n      pop\n      pop\n      pop\n        /* \"#utility.yul\":8234:9121   */\n    tag_157:\n      pop\n        /* \"#utility.yul\":7824:9127   */\n      pop\n      pop\n      pop\n        /* \"#utility.yul\":7732:9127   */\n      pop\n      pop\n      jump\t// out\n        /* \"#utility.yul\":9133:9259   */\n    tag_59:\n        /* \"#utility.yul\":9170:9177   */\n      0x00\n        /* \"#utility.yul\":9210:9252   */\n      0xffffffffffffffffffffffffffffffffffffffff\n        /* \"#utility.yul\":9203:9208   */\n      dup3\n        /* \"#utility.yul\":9199:9253   */\n      and\n        /* \"#utility.yul\":9188:9253   */\n      swap1\n      pop\n        /* \"#utility.yul\":9133:9259   */\n      swap2\n      swap1\n      pop\n      jump\t// out\n        /* \"#utility.yul\":9265:9361   */\n    tag_60:\n        /* \"#utility.yul\":9302:9309   */\n      0x00\n        /* \"#utility.yul\":9331:9355   */\n      tag_169\n        /* \"#utility.yul\":9349:9354   */\n      dup3\n        /* \"#utility.yul\":9331:9355   */\n      tag_59\n      jump\t// in\n    tag_169:\n        /* \"#utility.yul\":9320:9355   */\n      swap1\n      pop\n        /* \"#utility.yul\":9265:9361   */\n      swap2\n      swap1\n      pop\n      jump\t// out\n        /* \"#utility.yul\":9367:9485   */\n    tag_61:\n        /* \"#utility.yul\":9454:9478   */\n      tag_171\n        /* \"#utility.yul\":9472:9477   */\n      dup2\n        /* \"#utility.yul\":9454:9478   */\n      tag_60\n      jump\t// in\n    tag_171:\n        /* \"#utility.yul\":9449:9452   */\n      dup3\n        /* \"#utility.yul\":9442:9479   */\n      mstore\n        /* \"#utility.yul\":9367:9485   */\n      pop\n      pop\n      jump\t// out\n        /* \"#utility.yul\":9491:9914   */\n    tag_17:\n        /* \"#utility.yul\":9632:9636   */\n      0x00\n        /* \"#utility.yul\":9670:9672   */\n      0x40\n        /* \"#utility.yul\":9659:9668   */\n      dup3\n        /* \"#utility.yul\":9655:9673   */\n      add\n        /* \"#utility.yul\":9647:9673   */\n      swap1\n      pop\n        /* \"#utility.yul\":9719:9728   */\n      dup2\n        /* \"#utility.yul\":9713:9717   */\n      dup2\n        /* \"#utility.yul\":9709:9729   */\n      sub\n        /* \"#utility.yul\":9705:9706   */\n      0x00\n        /* \"#utility.yul\":9694:9703   */\n      dup4\n        /* \"#utility.yul\":9690:9707   */\n      add\n        /* \"#utility.yul\":9683:9730   */\n      mstore\n        /* \"#utility.yul\":9747:9825   */\n      tag_173\n        /* \"#utility.yul\":9820:9824   */\n      dup2\n        /* \"#utility.yul\":9811:9817   */\n      dup6\n        /* \"#utility.yul\":9747:9825   */\n      tag_41\n      jump\t// in\n    tag_173:\n        /* \"#utility.yul\":9739:9825   */\n      swap1\n      pop\n        /* \"#utility.yul\":9835:9907   */\n      tag_174\n        /* \"#utility.yul\":9903:9905   */\n      0x20\n        /* \"#utility.yul\":9892:9901   */\n      dup4\n        /* \"#utility.yul\":9888:9906   */\n      add\n        /* \"#utility.yul\":9879:9885   */\n      dup5\n        /* \"#utility.yul\":9835:9907   */\n      tag_61\n      jump\t// in\n    tag_174:\n        /* \"#utility.yul\":9491:9914   */\n      swap4\n      swap3\n      pop\n      pop\n      pop\n      jump\t// out\n\n    auxdata: 0xa2646970667358221220093eefead183ec0bca8115e0d7bb2303ddafcdae626a29723896d6f197e7eee064736f6c634300081e0033\n}\n",
				"bytecode": {
					"linkReferences": {},
					"object": "60806040526040518060400160405280600b81526020017f48656c6c6f20576f726c640000000000000000000000000000000000000000008152505f90816100479190610296565b50348015610053575f5ffd5b50610365565b5f81519050919050565b7f4e487b71000000000000000000000000000000000000000000000000000000005f52604160045260245ffd5b7f4e487b71000000000000000000000000000000000000000000000000000000005f52602260045260245ffd5b5f60028204905060018216806100d457607f821691505b6020821081036100e7576100e6610090565b5b50919050565b5f819050815f5260205f209050919050565b5f6020601f8301049050919050565b5f82821b905092915050565b5f600883026101497fffffffffffffffffffffffffffffffffffffffffffffffffffffffffffffffff8261010e565b610153868361010e565b95508019841693508086168417925050509392505050565b5f819050919050565b5f819050919050565b5f61019761019261018d8461016b565b610174565b61016b565b9050919050565b5f819050919050565b6101b08361017d565b6101c46101bc8261019e565b84845461011a565b825550505050565b5f5f905090565b6101db6101cc565b6101e68184846101a7565b505050565b5b81811015610209576101fe5f826101d3565b6001810190506101ec565b5050565b601f82111561024e5761021f816100ed565b610228846100ff565b81016020851015610237578190505b61024b610243856100ff565b8301826101eb565b50505b505050565b5f82821c905092915050565b5f61026e5f1984600802610253565b1980831691505092915050565b5f610286838361025f565b9150826002028217905092915050565b61029f82610059565b67ffffffffffffffff8111156102b8576102b7610063565b5b6102c282546100bd565b6102cd82828561020d565b5f60209050601f8311600181146102fe575f84156102ec578287015190505b6102f6858261027b565b86555061035d565b601f19841661030c866100ed565b5f5b828110156103335784890151825560018201915060208501945060208101905061030e565b86831015610350578489015161034c601f89168261025f565b8355505b6001600288020188555050505b505050505050565b6106d8806103725f395ff3fe608060405234801561000f575f5ffd5b5060043610610034575f3560e01c806338bc3aee146100385780636ac54e0c14610054575b5f5ffd5b610052600480360381019061004d9190610299565b610072565b005b61005c6100bd565b6040516100699190610340565b60405180910390f35b805f90816100809190610566565b507fe4c93424b1551f125ff17f5e05dc1fe8a5cde4d39a2b891934e68d95bbbaca0481336040516100b2929190610674565b60405180910390a150565b60605f80546100cb9061038d565b80601f01602080910402602001604051908101604052809291908181526020018280546100f79061038d565b80156101425780601f1061011957610100808354040283529160200191610142565b820191905f5260205f20905b81548152906001019060200180831161012557829003601f168201915b5050505050905090565b5f604051905090565b5f5ffd5b5f5ffd5b5f5ffd5b5f5ffd5b5f601f19601f8301169050919050565b7f4e487b71000000000000000000000000000000000000000000000000000000005f52604160045260245ffd5b6101ab82610165565b810181811067ffffffffffffffff821117156101ca576101c9610175565b5b80604052505050565b5f6101dc61014c565b90506101e882826101a2565b919050565b5f67ffffffffffffffff82111561020757610206610175565b5b61021082610165565b9050602081019050919050565b828183375f83830152505050565b5f61023d610238846101ed565b6101d3565b90508281526020810184848401111561025957610258610161565b5b61026484828561021d565b509392505050565b5f82601f8301126102805761027f61015d565b5b813561029084826020860161022b565b91505092915050565b5f602082840312156102ae576102ad610155565b5b5f82013567ffffffffffffffff8111156102cb576102ca610159565b5b6102d78482850161026c565b91505092915050565b5f81519050919050565b5f82825260208201905092915050565b8281835e5f83830152505050565b5f610312826102e0565b61031c81856102ea565b935061032c8185602086016102fa565b61033581610165565b840191505092915050565b5f6020820190508181035f8301526103588184610308565b905092915050565b7f4e487b71000000000000000000000000000000000000000000000000000000005f52602260045260245ffd5b5f60028204905060018216806103a457607f821691505b6020821081036103b7576103b6610360565b5b50919050565b5f819050815f5260205f209050919050565b5f6020601f8301049050919050565b5f82821b905092915050565b5f600883026104197fffffffffffffffffffffffffffffffffffffffffffffffffffffffffffffffff826103de565b61042386836103de565b95508019841693508086168417925050509392505050565b5f819050919050565b5f819050919050565b5f61046761046261045d8461043b565b610444565b61043b565b9050919050565b5f819050919050565b6104808361044d565b61049461048c8261046e565b8484546103ea565b825550505050565b5f5f905090565b6104ab61049c565b6104b6818484610477565b505050565b5b818110156104d9576104ce5f826104a3565b6001810190506104bc565b5050565b601f82111561051e576104ef816103bd565b6104f8846103cf565b81016020851015610507578190505b61051b610513856103cf565b8301826104bb565b50505b505050565b5f82821c905092915050565b5f61053e5f1984600802610523565b1980831691505092915050565b5f610556838361052f565b9150826002028217905092915050565b61056f826102e0565b67ffffffffffffffff81111561058857610587610175565b5b610592825461038d565b61059d8282856104dd565b5f60209050601f8311600181146105ce575f84156105bc578287015190505b6105c6858261054b565b86555061062d565b601f1984166105dc866103bd565b5f5b82811015610603578489015182556001820191506020850194506020810190506105de565b86831015610620578489015161061c601f89168261052f565b8355505b6001600288020188555050505b505050505050565b5f73ffffffffffffffffffffffffffffffffffffffff82169050919050565b5f61065e82610635565b9050919050565b61066e81610654565b82525050565b5f6040820190508181035f83015261068c8185610308565b905061069b6020830184610665565b939250505056fea2646970667358221220093eefead183ec0bca8115e0d7bb2303ddafcdae626a29723896d6f197e7eee064736f6c634300081e0033",
					"opcodes": "PUSH1 0x80 PUSH1 0x40 MSTORE PUSH1 0x40 MLOAD DUP1 PUSH1 0x40 ADD PUSH1 0x40 MSTORE DUP1 PUSH1 0xB DUP2 MSTORE PUSH1 0x20 ADD PUSH32 0x48656C6C6F20576F726C64000000000000000000000000000000000000000000 DUP2 MSTORE POP PUSH0 SWAP1 DUP2 PUSH2 0x47 SWAP2 SWAP1 PUSH2 0x296 JUMP JUMPDEST POP CALLVALUE DUP1 ISZERO PUSH2 0x53 JUMPI PUSH0 PUSH0 REVERT JUMPDEST POP PUSH2 0x365 JUMP JUMPDEST PUSH0 DUP2 MLOAD SWAP1 POP SWAP2 SWAP1 POP JUMP JUMPDEST PUSH32 0x4E487B7100000000000000000000000000000000000000000000000000000000 PUSH0 MSTORE PUSH1 0x41 PUSH1 0x4 MSTORE PUSH1 0x24 PUSH0 REVERT JUMPDEST PUSH32 0x4E487B7100000000000000000000000000000000000000000000000000000000 PUSH0 MSTORE PUSH1 0x22 PUSH1 0x4 MSTORE PUSH1 0x24 PUSH0 REVERT JUMPDEST PUSH0 PUSH1 0x2 DUP3 DIV SWAP1 POP PUSH1 0x1 DUP3 AND DUP1 PUSH2 0xD4 JUMPI PUSH1 0x7F DUP3 AND SWAP2 POP JUMPDEST PUSH1 0x20 DUP3 LT DUP2 SUB PUSH2 0xE7 JUMPI PUSH2 0xE6 PUSH2 0x90 JUMP JUMPDEST JUMPDEST POP SWAP2 SWAP1 POP JUMP JUMPDEST PUSH0 DUP2 SWAP1 POP DUP2 PUSH0 MSTORE PUSH1 0x20 PUSH0 KECCAK256 SWAP1 POP SWAP2 SWAP1 POP JUMP JUMPDEST PUSH0 PUSH1 0x20 PUSH1 0x1F DUP4 ADD DIV SWAP1 POP SWAP2 SWAP1 POP JUMP JUMPDEST PUSH0 DUP3 DUP3 SHL SWAP1 POP SWAP3 SWAP2 POP POP JUMP JUMPDEST PUSH0 PUSH1 0x8 DUP4 MUL PUSH2 0x149 PUSH32 0xFFFFFFFFFFFFFFFFFFFFFFFFFFFFFFFFFFFFFFFFFFFFFFFFFFFFFFFFFFFFFFFF DUP3 PUSH2 0x10E JUMP JUMPDEST PUSH2 0x153 DUP7 DUP4 PUSH2 0x10E JUMP JUMPDEST SWAP6 POP DUP1 NOT DUP5 AND SWAP4 POP DUP1 DUP7 AND DUP5 OR SWAP3 POP POP POP SWAP4 SWAP3 POP POP POP JUMP JUMPDEST PUSH0 DUP2 SWAP1 POP SWAP2 SWAP1 POP JUMP JUMPDEST PUSH0 DUP2 SWAP1 POP SWAP2 SWAP1 POP JUMP JUMPDEST PUSH0 PUSH2 0x197 PUSH2 0x192 PUSH2 0x18D DUP5 PUSH2 0x16B JUMP JUMPDEST PUSH2 0x174 JUMP JUMPDEST PUSH2 0x16B JUMP JUMPDEST SWAP1 POP SWAP2 SWAP1 POP JUMP JUMPDEST PUSH0 DUP2 SWAP1 POP SWAP2 SWAP1 POP JUMP JUMPDEST PUSH2 0x1B0 DUP4 PUSH2 0x17D JUMP JUMPDEST PUSH2 0x1C4 PUSH2 0x1BC DUP3 PUSH2 0x19E JUMP JUMPDEST DUP5 DUP5 SLOAD PUSH2 0x11A JUMP JUMPDEST DUP3 SSTORE POP POP POP POP JUMP JUMPDEST PUSH0 PUSH0 SWAP1 POP SWAP1 JUMP JUMPDEST PUSH2 0x1DB PUSH2 0x1CC JUMP JUMPDEST PUSH2 0x1E6 DUP2 DUP5 DUP5 PUSH2 0x1A7 JUMP JUMPDEST POP POP POP JUMP JUMPDEST JUMPDEST DUP2 DUP2 LT ISZERO PUSH2 0x209 JUMPI PUSH2 0x1FE PUSH0 DUP3 PUSH2 0x1D3 JUMP JUMPDEST PUSH1 0x1 DUP2 ADD SWAP1 POP PUSH2 0x1EC JUMP JUMPDEST POP POP JUMP JUMPDEST PUSH1 0x1F DUP3 GT ISZERO PUSH2 0x24E JUMPI PUSH2 0x21F DUP2 PUSH2 0xED JUMP JUMPDEST PUSH2 0x228 DUP5 PUSH2 0xFF JUMP JUMPDEST DUP2 ADD PUSH1 0x20 DUP6 LT ISZERO PUSH2 0x237 JUMPI DUP2 SWAP1 POP JUMPDEST PUSH2 0x24B PUSH2 0x243 DUP6 PUSH2 0xFF JUMP JUMPDEST DUP4 ADD DUP3 PUSH2 0x1EB JUMP JUMPDEST POP POP JUMPDEST POP POP POP JUMP JUMPDEST PUSH0 DUP3 DUP3 SHR SWAP1 POP SWAP3 SWAP2 POP POP JUMP JUMPDEST PUSH0 PUSH2 0x26E PUSH0 NOT DUP5 PUSH1 0x8 MUL PUSH2 0x253 JUMP JUMPDEST NOT DUP1 DUP4 AND SWAP2 POP POP SWAP3 SWAP2 POP POP JUMP JUMPDEST PUSH0 PUSH2 0x286 DUP4 DUP4 PUSH2 0x25F JUMP JUMPDEST SWAP2 POP DUP3 PUSH1 0x2 MUL DUP3 OR SWAP1 POP SWAP3 SWAP2 POP POP JUMP JUMPDEST PUSH2 0x29F DUP3 PUSH2 0x59 JUMP JUMPDEST PUSH8 0xFFFFFFFFFFFFFFFF DUP2 GT ISZERO PUSH2 0x2B8 JUMPI PUSH2 0x2B7 PUSH2 0x63 JUMP JUMPDEST JUMPDEST PUSH2 0x2C2 DUP3 SLOAD PUSH2 0xBD JUMP JUMPDEST PUSH2 0x2CD DUP3 DUP3 DUP6 PUSH2 0x20D JUMP JUMPDEST PUSH0 PUSH1 0x20 SWAP1 POP PUSH1 0x1F DUP4 GT PUSH1 0x1 DUP2 EQ PUSH2 0x2FE JUMPI PUSH0 DUP5 ISZERO PUSH2 0x2EC JUMPI DUP3 DUP8 ADD MLOAD SWAP1 POP JUMPDEST PUSH2 0x2F6 DUP6 DUP3 PUSH2 0x27B JUMP JUMPDEST DUP7 SSTORE POP PUSH2 0x35D JUMP JUMPDEST PUSH1 0x1F NOT DUP5 AND PUSH2 0x30C DUP7 PUSH2 0xED JUMP JUMPDEST PUSH0 JUMPDEST DUP3 DUP2 LT ISZERO PUSH2 0x333 JUMPI DUP5 DUP10 ADD MLOAD DUP3 SSTORE PUSH1 0x1 DUP3 ADD SWAP2 POP PUSH1 0x20 DUP6 ADD SWAP5 POP PUSH1 0x20 DUP2 ADD SWAP1 POP PUSH2 0x30E JUMP JUMPDEST DUP7 DUP4 LT ISZERO PUSH2 0x350 JUMPI DUP5 DUP10 ADD MLOAD PUSH2 0x34C PUSH1 0x1F DUP10 AND DUP3 PUSH2 0x25F JUMP JUMPDEST DUP4 SSTORE POP JUMPDEST PUSH1 0x1 PUSH1 0x2 DUP9 MUL ADD DUP9 SSTORE POP POP POP JUMPDEST POP POP POP POP POP POP JUMP JUMPDEST PUSH2 0x6D8 DUP1 PUSH2 0x372 PUSH0 CODECOPY PUSH0 RETURN INVALID PUSH1 0x80 PUSH1 0x40 MSTORE CALLVALUE DUP1 ISZERO PUSH2 0xF JUMPI PUSH0 PUSH0 REVERT JUMPDEST POP PUSH1 0x4 CALLDATASIZE LT PUSH2 0x34 JUMPI PUSH0 CALLDATALOAD PUSH1 0xE0 SHR DUP1 PUSH4 0x38BC3AEE EQ PUSH2 0x38 JUMPI DUP1 PUSH4 0x6AC54E0C EQ PUSH2 0x54 JUMPI JUMPDEST PUSH0 PUSH0 REVERT JUMPDEST PUSH2 0x52 PUSH1 0x4 DUP1 CALLDATASIZE SUB DUP2 ADD SWAP1 PUSH2 0x4D SWAP2 SWAP1 PUSH2 0x299 JUMP JUMPDEST PUSH2 0x72 JUMP JUMPDEST STOP JUMPDEST PUSH2 0x5C PUSH2 0xBD JUMP JUMPDEST PUSH1 0x40 MLOAD PUSH2 0x69 SWAP2 SWAP1 PUSH2 0x340 JUMP JUMPDEST PUSH1 0x40 MLOAD DUP1 SWAP2 SUB SWAP1 RETURN JUMPDEST DUP1 PUSH0 SWAP1 DUP2 PUSH2 0x80 SWAP2 SWAP1 PUSH2 0x566 JUMP JUMPDEST POP PUSH32 0xE4C93424B1551F125FF17F5E05DC1FE8A5CDE4D39A2B891934E68D95BBBACA04 DUP2 CALLER PUSH1 0x40 MLOAD PUSH2 0xB2 SWAP3 SWAP2 SWAP1 PUSH2 0x674 JUMP JUMPDEST PUSH1 0x40 MLOAD DUP1 SWAP2 SUB SWAP1 LOG1 POP JUMP JUMPDEST PUSH1 0x60 PUSH0 DUP1 SLOAD PUSH2 0xCB SWAP1 PUSH2 0x38D JUMP JUMPDEST DUP1 PUSH1 0x1F ADD PUSH1 0x20 DUP1 SWAP2 DIV MUL PUSH1 0x20 ADD PUSH1 0x40 MLOAD SWAP1 DUP2 ADD PUSH1 0x40 MSTORE DUP1 SWAP3 SWAP2 SWAP1 DUP2 DUP2 MSTORE PUSH1 0x20 ADD DUP3 DUP1 SLOAD PUSH2 0xF7 SWAP1 PUSH2 0x38D JUMP JUMPDEST DUP1 ISZERO PUSH2 0x142 JUMPI DUP1 PUSH1 0x1F LT PUSH2 0x119 JUMPI PUSH2 0x100 DUP1 DUP4 SLOAD DIV MUL DUP4 MSTORE SWAP2 PUSH1 0x20 ADD SWAP2 PUSH2 0x142 JUMP JUMPDEST DUP3 ADD SWAP2 SWAP1 PUSH0 MSTORE PUSH1 0x20 PUSH0 KECCAK256 SWAP1 JUMPDEST DUP2 SLOAD DUP2 MSTORE SWAP1 PUSH1 0x1 ADD SWAP1 PUSH1 0x20 ADD DUP1 DUP4 GT PUSH2 0x125 JUMPI DUP3 SWAP1 SUB PUSH1 0x1F AND DUP3 ADD SWAP2 JUMPDEST POP POP POP POP POP SWAP1 POP SWAP1 JUMP JUMPDEST PUSH0 PUSH1 0x40 MLOAD SWAP1 POP SWAP1 JUMP JUMPDEST PUSH0 PUSH0 REVERT JUMPDEST PUSH0 PUSH0 REVERT JUMPDEST PUSH0 PUSH0 REVERT JUMPDEST PUSH0 PUSH0 REVERT JUMPDEST PUSH0 PUSH1 0x1F NOT PUSH1 0x1F DUP4 ADD AND SWAP1 POP SWAP2 SWAP1 POP JUMP JUMPDEST PUSH32 0x4E487B7100000000000000000000000000000000000000000000000000000000 PUSH0 MSTORE PUSH1 0x41 PUSH1 0x4 MSTORE PUSH1 0x24 PUSH0 REVERT JUMPDEST PUSH2 0x1AB DUP3 PUSH2 0x165 JUMP JUMPDEST DUP2 ADD DUP2 DUP2 LT PUSH8 0xFFFFFFFFFFFFFFFF DUP3 GT OR ISZERO PUSH2 0x1CA JUMPI PUSH2 0x1C9 PUSH2 0x175 JUMP JUMPDEST JUMPDEST DUP1 PUSH1 0x40 MSTORE POP POP POP JUMP JUMPDEST PUSH0 PUSH2 0x1DC PUSH2 0x14C JUMP JUMPDEST SWAP1 POP PUSH2 0x1E8 DUP3 DUP3 PUSH2 0x1A2 JUMP JUMPDEST SWAP2 SWAP1 POP JUMP JUMPDEST PUSH0 PUSH8 0xFFFFFFFFFFFFFFFF DUP3 GT ISZERO PUSH2 0x207 JUMPI PUSH2 0x206 PUSH2 0x175 JUMP JUMPDEST JUMPDEST PUSH2 0x210 DUP3 PUSH2 0x165 JUMP JUMPDEST SWAP1 POP PUSH1 0x20 DUP2 ADD SWAP1 POP SWAP2 SWAP1 POP JUMP JUMPDEST DUP3 DUP2 DUP4 CALLDATACOPY PUSH0 DUP4 DUP4 ADD MSTORE POP POP POP JUMP JUMPDEST PUSH0 PUSH2 0x23D PUSH2 0x238 DUP5 PUSH2 0x1ED JUMP JUMPDEST PUSH2 0x1D3 JUMP JUMPDEST SWAP1 POP DUP3 DUP2 MSTORE PUSH1 0x20 DUP2 ADD DUP5 DUP5 DUP5 ADD GT ISZERO PUSH2 0x259 JUMPI PUSH2 0x258 PUSH2 0x161 JUMP JUMPDEST JUMPDEST PUSH2 0x264 DUP5 DUP3 DUP6 PUSH2 0x21D JUMP JUMPDEST POP SWAP4 SWAP3 POP POP POP JUMP JUMPDEST PUSH0 DUP3 PUSH1 0x1F DUP4 ADD SLT PUSH2 0x280 JUMPI PUSH2 0x27F PUSH2 0x15D JUMP JUMPDEST JUMPDEST DUP2 CALLDATALOAD PUSH2 0x290 DUP5 DUP3 PUSH1 0x20 DUP7 ADD PUSH2 0x22B JUMP JUMPDEST SWAP2 POP POP SWAP3 SWAP2 POP POP JUMP JUMPDEST PUSH0 PUSH1 0x20 DUP3 DUP5 SUB SLT ISZERO PUSH2 0x2AE JUMPI PUSH2 0x2AD PUSH2 0x155 JUMP JUMPDEST JUMPDEST PUSH0 DUP3 ADD CALLDATALOAD PUSH8 0xFFFFFFFFFFFFFFFF DUP2 GT ISZERO PUSH2 0x2CB JUMPI PUSH2 0x2CA PUSH2 0x159 JUMP JUMPDEST JUMPDEST PUSH2 0x2D7 DUP5 DUP3 DUP6 ADD PUSH2 0x26C JUMP JUMPDEST SWAP2 POP POP SWAP3 SWAP2 POP POP JUMP JUMPDEST PUSH0 DUP2 MLOAD SWAP1 POP SWAP2 SWAP1 POP JUMP JUMPDEST PUSH0 DUP3 DUP3 MSTORE PUSH1 0x20 DUP3 ADD SWAP1 POP SWAP3 SWAP2 POP POP JUMP JUMPDEST DUP3 DUP2 DUP4 MCOPY PUSH0 DUP4 DUP4 ADD MSTORE POP POP POP JUMP JUMPDEST PUSH0 PUSH2 0x312 DUP3 PUSH2 0x2E0 JUMP JUMPDEST PUSH2 0x31C DUP2 DUP6 PUSH2 0x2EA JUMP JUMPDEST SWAP4 POP PUSH2 0x32C DUP2 DUP6 PUSH1 0x20 DUP7 ADD PUSH2 0x2FA JUMP JUMPDEST PUSH2 0x335 DUP2 PUSH2 0x165 JUMP JUMPDEST DUP5 ADD SWAP2 POP POP SWAP3 SWAP2 POP POP JUMP JUMPDEST PUSH0 PUSH1 0x20 DUP3 ADD SWAP1 POP DUP2 DUP2 SUB PUSH0 DUP4 ADD MSTORE PUSH2 0x358 DUP2 DUP5 PUSH2 0x308 JUMP JUMPDEST SWAP1 POP SWAP3 SWAP2 POP POP JUMP JUMPDEST PUSH32 0x4E487B7100000000000000000000000000000000000000000000000000000000 PUSH0 MSTORE PUSH1 0x22 PUSH1 0x4 MSTORE PUSH1 0x24 PUSH0 REVERT JUMPDEST PUSH0 PUSH1 0x2 DUP3 DIV SWAP1 POP PUSH1 0x1 DUP3 AND DUP1 PUSH2 0x3A4 JUMPI PUSH1 0x7F DUP3 AND SWAP2 POP JUMPDEST PUSH1 0x20 DUP3 LT DUP2 SUB PUSH2 0x3B7 JUMPI PUSH2 0x3B6 PUSH2 0x360 JUMP JUMPDEST JUMPDEST POP SWAP2 SWAP1 POP JUMP JUMPDEST PUSH0 DUP2 SWAP1 POP DUP2 PUSH0 MSTORE PUSH1 0x20 PUSH0 KECCAK256 SWAP1 POP SWAP2 SWAP1 POP JUMP JUMPDEST PUSH0 PUSH1 0x20 PUSH1 0x1F DUP4 ADD DIV SWAP1 POP SWAP2 SWAP1 POP JUMP JUMPDEST PUSH0 DUP3 DUP3 SHL SWAP1 POP SWAP3 SWAP2 POP POP JUMP JUMPDEST PUSH0 PUSH1 0x8 DUP4 MUL PUSH2 0x419 PUSH32 0xFFFFFFFFFFFFFFFFFFFFFFFFFFFFFFFFFFFFFFFFFFFFFFFFFFFFFFFFFFFFFFFF DUP3 PUSH2 0x3DE JUMP JUMPDEST PUSH2 0x423 DUP7 DUP4 PUSH2 0x3DE JUMP JUMPDEST SWAP6 POP DUP1 NOT DUP5 AND SWAP4 POP DUP1 DUP7 AND DUP5 OR SWAP3 POP POP POP SWAP4 SWAP3 POP POP POP JUMP JUMPDEST PUSH0 DUP2 SWAP1 POP SWAP2 SWAP1 POP JUMP JUMPDEST PUSH0 DUP2 SWAP1 POP SWAP2 SWAP1 POP JUMP JUMPDEST PUSH0 PUSH2 0x467 PUSH2 0x462 PUSH2 0x45D DUP5 PUSH2 0x43B JUMP JUMPDEST PUSH2 0x444 JUMP JUMPDEST PUSH2 0x43B JUMP JUMPDEST SWAP1 POP SWAP2 SWAP1 POP JUMP JUMPDEST PUSH0 DUP2 SWAP1 POP SWAP2 SWAP1 POP JUMP JUMPDEST PUSH2 0x480 DUP4 PUSH2 0x44D JUMP JUMPDEST PUSH2 0x494 PUSH2 0x48C DUP3 PUSH2 0x46E JUMP JUMPDEST DUP5 DUP5 SLOAD PUSH2 0x3EA JUMP JUMPDEST DUP3 SSTORE POP POP POP POP JUMP JUMPDEST PUSH0 PUSH0 SWAP1 POP SWAP1 JUMP JUMPDEST PUSH2 0x4AB PUSH2 0x49C JUMP JUMPDEST PUSH2 0x4B6 DUP2 DUP5 DUP5 PUSH2 0x477 JUMP JUMPDEST POP POP POP JUMP JUMPDEST JUMPDEST DUP2 DUP2 LT ISZERO PUSH2 0x4D9 JUMPI PUSH2 0x4CE PUSH0 DUP3 PUSH2 0x4A3 JUMP JUMPDEST PUSH1 0x1 DUP2 ADD SWAP1 POP PUSH2 0x4BC JUMP JUMPDEST POP POP JUMP JUMPDEST PUSH1 0x1F DUP3 GT ISZERO PUSH2 0x51E JUMPI PUSH2 0x4EF DUP2 PUSH2 0x3BD JUMP JUMPDEST PUSH2 0x4F8 DUP5 PUSH2 0x3CF JUMP JUMPDEST DUP2 ADD PUSH1 0x20 DUP6 LT ISZERO PUSH2 0x507 JUMPI DUP2 SWAP1 POP JUMPDEST PUSH2 0x51B PUSH2 0x513 DUP6 PUSH2 0x3CF JUMP JUMPDEST DUP4 ADD DUP3 PUSH2 0x4BB JUMP JUMPDEST POP POP JUMPDEST POP POP POP JUMP JUMPDEST PUSH0 DUP3 DUP3 SHR SWAP1 POP SWAP3 SWAP2 POP POP JUMP JUMPDEST PUSH0 PUSH2 0x53E PUSH0 NOT DUP5 PUSH1 0x8 MUL PUSH2 0x523 JUMP JUMPDEST NOT DUP1 DUP4 AND SWAP2 POP POP SWAP3 SWAP2 POP POP JUMP JUMPDEST PUSH0 PUSH2 0x556 DUP4 DUP4 PUSH2 0x52F JUMP JUMPDEST SWAP2 POP DUP3 PUSH1 0x2 MUL DUP3 OR SWAP1 POP SWAP3 SWAP2 POP POP JUMP JUMPDEST PUSH2 0x56F DUP3 PUSH2 0x2E0 JUMP JUMPDEST PUSH8 0xFFFFFFFFFFFFFFFF DUP2 GT ISZERO PUSH2 0x588 JUMPI PUSH2 0x587 PUSH2 0x175 JUMP JUMPDEST JUMPDEST PUSH2 0x592 DUP3 SLOAD PUSH2 0x38D JUMP JUMPDEST PUSH2 0x59D DUP3 DUP3 DUP6 PUSH2 0x4DD JUMP JUMPDEST PUSH0 PUSH1 0x20 SWAP1 POP PUSH1 0x1F DUP4 GT PUSH1 0x1 DUP2 EQ PUSH2 0x5CE JUMPI PUSH0 DUP5 ISZERO PUSH2 0x5BC JUMPI DUP3 DUP8 ADD MLOAD SWAP1 POP JUMPDEST PUSH2 0x5C6 DUP6 DUP3 PUSH2 0x54B JUMP JUMPDEST DUP7 SSTORE POP PUSH2 0x62D JUMP JUMPDEST PUSH1 0x1F NOT DUP5 AND PUSH2 0x5DC DUP7 PUSH2 0x3BD JUMP JUMPDEST PUSH0 JUMPDEST DUP3 DUP2 LT ISZERO PUSH2 0x603 JUMPI DUP5 DUP10 ADD MLOAD DUP3 SSTORE PUSH1 0x1 DUP3 ADD SWAP2 POP PUSH1 0x20 DUP6 ADD SWAP5 POP PUSH1 0x20 DUP2 ADD SWAP1 POP PUSH2 0x5DE JUMP JUMPDEST DUP7 DUP4 LT ISZERO PUSH2 0x620 JUMPI DUP5 DUP10 ADD MLOAD PUSH2 0x61C PUSH1 0x1F DUP10 AND DUP3 PUSH2 0x52F JUMP JUMPDEST DUP4 SSTORE POP JUMPDEST PUSH1 0x1 PUSH1 0x2 DUP9 MUL ADD DUP9 SSTORE POP POP POP JUMPDEST POP POP POP POP POP POP JUMP JUMPDEST PUSH0 PUSH20 0xFFFFFFFFFFFFFFFFFFFFFFFFFFFFFFFFFFFFFFFF DUP3 AND SWAP1 POP SWAP2 SWAP1 POP JUMP JUMPDEST PUSH0 PUSH2 0x65E DUP3 PUSH2 0x635 JUMP JUMPDEST SWAP1 POP SWAP2 SWAP1 POP JUMP JUMPDEST PUSH2 0x66E DUP2 PUSH2 0x654 JUMP JUMPDEST DUP3 MSTORE POP POP JUMP JUMPDEST PUSH0 PUSH1 0x40 DUP3 ADD SWAP1 POP DUP2 DUP2 SUB PUSH0 DUP4 ADD MSTORE PUSH2 0x68C DUP2 DUP6 PUSH2 0x308 JUMP JUMPDEST SWAP1 POP PUSH2 0x69B PUSH1 0x20 DUP4 ADD DUP5 PUSH2 0x665 JUMP JUMPDEST SWAP4 SWAP3 POP POP POP JUMP INVALID LOG2 PUSH5 0x6970667358 0x22 SLT KECCAK256 MULMOD RETURNDATACOPY 0xEF 0xEA DATALOADN 0x83EC SIGNEXTEND 0xCA DUP2 ISZERO RJUMP 0xD7BB 0x23 SUB 0xDD 0xAF 0xCD 0xAE PUSH3 0x6A2972 CODESIZE SWAP7 0xD6 CALL SWAP8 SWAPN 0xEE RJUMP 0x6473 PUSH16 0x6C634300081E00330000000000000000 "
				},
				"gasEstimates": {
					"creation": {
						"codeDepositCost": "350400",
						"executionCost": "infinite",
						"totalCost": "infinite"
					},
					"external": {
						"ReadMessage()": "infinite",
						"UpdateMessage(string)": "infinite"
					}
				},
				"methodIdentifiers": {
					"ReadMessage()": "6ac54e0c",
					"UpdateMessage(string)": "38bc3aee"
				}
			},
			"storageLayout": {
				"storage": [
					{
						"astId": 4,
						"contract": "contracts/HelloWorld.sol:HelloWorld",
						"label": "message",
						"offset": 0,
						"slot": "0",
						"type": "t_string_storage"
					}
				],
				"types": {
					"t_string_storage": {
						"encoding": "bytes",
						"label": "string",
						"numberOfBytes": "32"
					}
				}
			},
			"userdoc": {
				"kind": "user",
				"methods": {},
				"version": 1
			}
		}
	}
}