{
	"contracts/SimpleBank.sol": {
		"BasicBank": {
			"abi": [
				{
					"inputs": [],
					"stateMutability": "nonpayable",
					"type": "constructor"
				},
				{
					"inputs": [],
					"name": "Deposite",
					"outputs": [],
					"stateMutability": "payable",
					"type": "function"
				},
				{
					"inputs": [],
					"name": "RegisterUser",
					"outputs": [],
					"stateMutability": "nonpayable",
					"type": "function"
				},
				{
					"inputs": [
						{
							"internalType": "uint256",
							"name": "",
							"type": "uint256"
						}
					],
					"name": "Users",
					"outputs": [
						{
							"internalType": "address",
							"name": "id",
							"type": "address"
						},
						{
							"internalType": "uint256",
							"name": "balance",
							"type": "uint256"
						}
					],
					"stateMutability": "view",
					"type": "function"
				},
				{
					"inputs": [],
					"name": "Withdraw",
					"outputs": [],
					"stateMutability": "payable",
					"type": "function"
				},
				{
					"inputs": [],
					"name": "getACCountBalance",
					"outputs": [
						{
							"internalType": "uint256",
							"name": "",
							"type": "uint256"
						}
					],
					"stateMutability": "view",
					"type": "function"
				},
				{
					"inputs": [],
					"name": "getAllUsers",
					"outputs": [
						{
							"components": [
								{
									"internalType": "address",
									"name": "id",
									"type": "address"
								},
								{
									"internalType": "uint256",
									"name": "balance",
									"type": "uint256"
								}
							],
							"internalType": "struct BasicBank.User[]",
							"name": "",
							"type": "tuple[]"
						}
					],
					"stateMutability": "view",
					"type": "function"
				},
				{
					"inputs": [],
					"name": "getDeposites",
					"outputs": [
						{
							"internalType": "uint256",
							"name": "",
							"type": "uint256"
						}
					],
					"stateMutability": "view",
					"type": "function"
				},
				{
					"inputs": [
						{
							"internalType": "address",
							"name": "user",
							"type": "address"
						}
					],
					"name": "sendMoneyToUser",
					"outputs": [],
					"stateMutability": "payable",
					"type": "function"
				},
				{
					"inputs": [
						{
							"internalType": "uint256",
							"name": "_amount",
							"type": "uint256"
						}
					],
					"name": "stake",
					"outputs": [],
					"stateMutability": "nonpayable",
					"type": "function"
				}
			],
			"devdoc": {
				"kind": "dev",
				"methods": {},
				"version": 1
			},
			"evm": {
				"assembly": "    /* \"contracts/SimpleBank.sol\":89:2035  contract BasicBank {... */\n  mstore(0x40, 0x80)\n    /* \"contracts/SimpleBank.sol\":143:300  constructor () {... */\n  callvalue\n  dup1\n  iszero\n  tag_1\n  jumpi\n  revert(0x00, 0x00)\ntag_1:\n  pop\n    /* \"contracts/SimpleBank.sol\":179:189  msg.sender */\n  caller\n    /* \"contracts/SimpleBank.sol\":170:175  owner */\n  0x00\n  0x00\n    /* \"contracts/SimpleBank.sol\":170:189  owner  = msg.sender */\n  0x0100\n  exp\n  dup2\n  sload\n  dup2\n  0xffffffffffffffffffffffffffffffffffffffff\n  mul\n  not\n  and\n  swap1\n  dup4\n  0xffffffffffffffffffffffffffffffffffffffff\n  and\n  mul\n  or\n  swap1\n  sstore\n  pop\n    /* \"contracts/SimpleBank.sol\":201:206  Users */\n  0x03\n    /* \"contracts/SimpleBank.sol\":212:291  User({... */\n  mload(0x40)\n  dup1\n  0x40\n  add\n  0x40\n  mstore\n  dup1\n    /* \"contracts/SimpleBank.sol\":236:241  owner */\n  0x00\n  0x00\n  swap1\n  sload\n  swap1\n  0x0100\n  exp\n  swap1\n  div\n  0xffffffffffffffffffffffffffffffffffffffff\n  and\n    /* \"contracts/SimpleBank.sol\":212:291  User({... */\n  0xffffffffffffffffffffffffffffffffffffffff\n  and\n  dup2\n  mstore\n  0x20\n  add\n    /* \"contracts/SimpleBank.sol\":264:278  10000000000000 */\n  0x09184e72a000\n    /* \"contracts/SimpleBank.sol\":212:291  User({... */\n  dup2\n  mstore\n  pop\n    /* \"contracts/SimpleBank.sol\":201:292  Users.push(User({... */\n  swap1\n  dup1\n  0x01\n  dup2\n  sload\n  add\n  dup1\n  dup3\n  sstore\n  dup1\n  swap2\n  pop\n  pop\n  0x01\n  swap1\n  sub\n  swap1\n  0x00\n  mstore\n  keccak256(0x00, 0x20)\n  swap1\n  0x02\n  mul\n  add\n  0x00\n  swap1\n  swap2\n  swap1\n  swap2\n  swap1\n  swap2\n  pop\n  0x00\n  dup3\n  add\n  mload\n  dup2\n  0x00\n  add\n  exp(0x0100, 0x00)\n  dup2\n  sload\n  dup2\n  0xffffffffffffffffffffffffffffffffffffffff\n  mul\n  not\n  and\n  swap1\n  dup4\n  0xffffffffffffffffffffffffffffffffffffffff\n  and\n  mul\n  or\n  swap1\n  sstore\n  pop\n  0x20\n  dup3\n  add\n  mload\n  dup2\n  0x01\n  add\n  sstore\n  pop\n  pop\n    /* \"contracts/SimpleBank.sol\":89:2035  contract BasicBank {... */\n  dataSize(sub_0)\n  dup1\n  dataOffset(sub_0)\n  0x00\n  codecopy\n  0x00\n  return\nstop\n\nsub_0: assembly {\n        /* \"contracts/SimpleBank.sol\":89:2035  contract BasicBank {... */\n      mstore(0x40, 0x80)\n      jumpi(tag_1, lt(calldatasize, 0x04))\n      shr(0xe0, calldataload(0x00))\n      dup1\n      0xa694fc3a\n      gt\n      tag_11\n      jumpi\n      dup1\n      0xa694fc3a\n      eq\n      tag_6\n      jumpi\n      dup1\n      0xb559805f\n      eq\n      tag_7\n      jumpi\n      dup1\n      0xda68b4b4\n      eq\n      tag_8\n      jumpi\n      dup1\n      0xe2842d79\n      eq\n      tag_9\n      jumpi\n      dup1\n      0xf1fd08a7\n      eq\n      tag_10\n      jumpi\n      jump(tag_1)\n    tag_11:\n      dup1\n      0x189e92ae\n      eq\n      tag_2\n      jumpi\n      dup1\n      0x1e98fd1c\n      eq\n      tag_3\n      jumpi\n      dup1\n      0x57ea89b6\n      eq\n      tag_4\n      jumpi\n      dup1\n      0xa07eb17a\n      eq\n      tag_5\n      jumpi\n    tag_1:\n      revert(0x00, 0x00)\n        /* \"contracts/SimpleBank.sol\":497:760  function RegisterUser () public {... */\n    tag_2:\n      callvalue\n      dup1\n      iszero\n      tag_12\n      jumpi\n      revert(0x00, 0x00)\n    tag_12:\n      pop\n      tag_13\n      tag_14\n      jump\t// in\n    tag_13:\n      stop\n        /* \"contracts/SimpleBank.sol\":471:490  User[] public Users */\n    tag_3:\n      callvalue\n      dup1\n      iszero\n      tag_15\n      jumpi\n      revert(0x00, 0x00)\n    tag_15:\n      pop\n      tag_16\n      0x04\n      dup1\n      calldatasize\n      sub\n      dup2\n      add\n      swap1\n      tag_17\n      swap2\n      swap1\n      tag_18\n      jump\t// in\n    tag_17:\n      tag_19\n      jump\t// in\n    tag_16:\n      mload(0x40)\n      tag_20\n      swap3\n      swap2\n      swap1\n      tag_21\n      jump\t// in\n    tag_20:\n      mload(0x40)\n      dup1\n      swap2\n      sub\n      swap1\n      return\n        /* \"contracts/SimpleBank.sol\":1394:1516  function Withdraw () public payable CheckBalance (msg.value) {... */\n    tag_4:\n      tag_22\n      tag_23\n      jump\t// in\n    tag_22:\n      stop\n        /* \"contracts/SimpleBank.sol\":1524:1633  function getDeposites () public view _isOwner returns (uint)  {... */\n    tag_5:\n      callvalue\n      dup1\n      iszero\n      tag_24\n      jumpi\n      revert(0x00, 0x00)\n    tag_24:\n      pop\n      tag_25\n      tag_26\n      jump\t// in\n    tag_25:\n      mload(0x40)\n      tag_27\n      swap2\n      swap1\n      tag_28\n      jump\t// in\n    tag_27:\n      mload(0x40)\n      dup1\n      swap2\n      sub\n      swap1\n      return\n        /* \"contracts/SimpleBank.sol\":1894:2032  function stake (uint _amount) public {... */\n    tag_6:\n      callvalue\n      dup1\n      iszero\n      tag_29\n      jumpi\n      revert(0x00, 0x00)\n    tag_29:\n      pop\n      tag_30\n      0x04\n      dup1\n      calldatasize\n      sub\n      dup2\n      add\n      swap1\n      tag_31\n      swap2\n      swap1\n      tag_18\n      jump\t// in\n    tag_31:\n      tag_32\n      jump\t// in\n    tag_30:\n      stop\n        /* \"contracts/SimpleBank.sol\":1641:1776  function sendMoneyToUser (address  user ) public payable onlyRegisteredUser(user ) {... */\n    tag_7:\n      tag_33\n      0x04\n      dup1\n      calldatasize\n      sub\n      dup2\n      add\n      swap1\n      tag_34\n      swap2\n      swap1\n      tag_35\n      jump\t// in\n    tag_34:\n      tag_36\n      jump\t// in\n    tag_33:\n      stop\n        /* \"contracts/SimpleBank.sol\":1289:1385  function Deposite () public payable{... */\n    tag_8:\n      tag_37\n      tag_38\n      jump\t// in\n    tag_37:\n      stop\n        /* \"contracts/SimpleBank.sol\":1782:1888  function getAllUsers () public view _isOwner returns ( User[] memory) {... */\n    tag_9:\n      callvalue\n      dup1\n      iszero\n      tag_39\n      jumpi\n      revert(0x00, 0x00)\n    tag_39:\n      pop\n      tag_40\n      tag_41\n      jump\t// in\n    tag_40:\n      mload(0x40)\n      tag_42\n      swap2\n      swap1\n      tag_43\n      jump\t// in\n    tag_42:\n      mload(0x40)\n      dup1\n      swap2\n      sub\n      swap1\n      return\n        /* \"contracts/SimpleBank.sol\":1166:1277  function getACCountBalance  () public view returns (uint) {... */\n    tag_10:\n      callvalue\n      dup1\n      iszero\n      tag_44\n      jumpi\n      revert(0x00, 0x00)\n    tag_44:\n      pop\n      tag_45\n      tag_46\n      jump\t// in\n    tag_45:\n      mload(0x40)\n      tag_47\n      swap2\n      swap1\n      tag_28\n      jump\t// in\n    tag_47:\n      mload(0x40)\n      dup1\n      swap2\n      sub\n      swap1\n      return\n        /* \"contracts/SimpleBank.sol\":497:760  function RegisterUser () public {... */\n    tag_14:\n        /* \"contracts/SimpleBank.sol\":578:583  false */\n      0x00\n        /* \"contracts/SimpleBank.sol\":547:563  isRegisteredUser */\n      0x02\n        /* \"contracts/SimpleBank.sol\":547:575  isRegisteredUser[msg.sender] */\n      0x00\n        /* \"contracts/SimpleBank.sol\":564:574  msg.sender */\n      caller\n        /* \"contracts/SimpleBank.sol\":547:575  isRegisteredUser[msg.sender] */\n      0xffffffffffffffffffffffffffffffffffffffff\n      and\n      0xffffffffffffffffffffffffffffffffffffffff\n      and\n      dup2\n      mstore\n      0x20\n      add\n      swap1\n      dup2\n      mstore\n      0x20\n      add\n      0x00\n      keccak256\n      0x00\n        /* \"contracts/SimpleBank.sol\":547:583  isRegisteredUser[msg.sender] = false */\n      0x0100\n      exp\n      dup2\n      sload\n      dup2\n      0xff\n      mul\n      not\n      and\n      swap1\n      dup4\n      iszero\n      iszero\n      mul\n      or\n      swap1\n      sstore\n        /* \"contracts/SimpleBank.sol\":539:614  require(isRegisteredUser[msg.sender] = false, \"Account already registered\") */\n      tag_49\n      jumpi\n      mload(0x40)\n      0x08c379a000000000000000000000000000000000000000000000000000000000\n      dup2\n      mstore\n      0x04\n      add\n      tag_50\n      swap1\n      tag_51\n      jump\t// in\n    tag_50:\n      mload(0x40)\n      dup1\n      swap2\n      sub\n      swap1\n      revert\n    tag_49:\n        /* \"contracts/SimpleBank.sol\":625:645  User memory  newUser */\n      0x00\n        /* \"contracts/SimpleBank.sol\":648:722  User({... */\n      mload(0x40)\n      dup1\n      0x40\n      add\n      0x40\n      mstore\n      dup1\n        /* \"contracts/SimpleBank.sol\":671:681  msg.sender */\n      caller\n        /* \"contracts/SimpleBank.sol\":648:722  User({... */\n      0xffffffffffffffffffffffffffffffffffffffff\n      and\n      dup2\n      mstore\n      0x20\n      add\n        /* \"contracts/SimpleBank.sol\":704:708  5000 */\n      0x1388\n        /* \"contracts/SimpleBank.sol\":648:722  User({... */\n      dup2\n      mstore\n      pop\n        /* \"contracts/SimpleBank.sol\":625:722  User memory  newUser = User({... */\n      swap1\n      pop\n        /* \"contracts/SimpleBank.sol\":733:738  Users */\n      0x03\n        /* \"contracts/SimpleBank.sol\":744:751  newUser */\n      dup2\n        /* \"contracts/SimpleBank.sol\":733:752  Users.push(newUser) */\n      swap1\n      dup1\n      0x01\n      dup2\n      sload\n      add\n      dup1\n      dup3\n      sstore\n      dup1\n      swap2\n      pop\n      pop\n      0x01\n      swap1\n      sub\n      swap1\n      0x00\n      mstore\n      keccak256(0x00, 0x20)\n      swap1\n      0x02\n      mul\n      add\n      0x00\n      swap1\n      swap2\n      swap1\n      swap2\n      swap1\n      swap2\n      pop\n      0x00\n      dup3\n      add\n      mload\n      dup2\n      0x00\n      add\n      exp(0x0100, 0x00)\n      dup2\n      sload\n      dup2\n      0xffffffffffffffffffffffffffffffffffffffff\n      mul\n      not\n      and\n      swap1\n      dup4\n      0xffffffffffffffffffffffffffffffffffffffff\n      and\n      mul\n      or\n      swap1\n      sstore\n      pop\n      0x20\n      dup3\n      add\n      mload\n      dup2\n      0x01\n      add\n      sstore\n      pop\n      pop\n        /* \"contracts/SimpleBank.sol\":529:760  {... */\n      pop\n        /* \"contracts/SimpleBank.sol\":497:760  function RegisterUser () public {... */\n      jump\t// out\n        /* \"contracts/SimpleBank.sol\":471:490  User[] public Users */\n    tag_19:\n      0x03\n      dup2\n      dup2\n      sload\n      dup2\n      lt\n      tag_53\n      jumpi\n      0x00\n      dup1\n      revert\n    tag_53:\n      swap1\n      0x00\n      mstore\n      keccak256(0x00, 0x20)\n      swap1\n      0x02\n      mul\n      add\n      0x00\n      swap2\n      pop\n      swap1\n      pop\n      dup1\n      0x00\n      add\n      0x00\n      swap1\n      sload\n      swap1\n      0x0100\n      exp\n      swap1\n      div\n      0xffffffffffffffffffffffffffffffffffffffff\n      and\n      swap1\n      dup1\n      0x01\n      add\n      sload\n      swap1\n      pop\n      dup3\n      jump\t// out\n        /* \"contracts/SimpleBank.sol\":1394:1516  function Withdraw () public payable CheckBalance (msg.value) {... */\n    tag_23:\n        /* \"contracts/SimpleBank.sol\":1444:1453  msg.value */\n      callvalue\n        /* \"contracts/SimpleBank.sol\":1085:1092  account */\n      0x01\n        /* \"contracts/SimpleBank.sol\":1085:1104  account[msg.sender] */\n      0x00\n        /* \"contracts/SimpleBank.sol\":1093:1103  msg.sender */\n      caller\n        /* \"contracts/SimpleBank.sol\":1085:1104  account[msg.sender] */\n      0xffffffffffffffffffffffffffffffffffffffff\n      and\n      0xffffffffffffffffffffffffffffffffffffffff\n      and\n      dup2\n      mstore\n      0x20\n      add\n      swap1\n      dup2\n      mstore\n      0x20\n      add\n      0x00\n      keccak256\n        /* \"contracts/SimpleBank.sol\":1085:1112  account[msg.sender].balance */\n      0x01\n      add\n      sload\n        /* \"contracts/SimpleBank.sol\":1074:1082  _balance */\n      dup2\n        /* \"contracts/SimpleBank.sol\":1074:1112  _balance < account[msg.sender].balance */\n      lt\n        /* \"contracts/SimpleBank.sol\":1066:1138  require(_balance < account[msg.sender].balance, \"Insuffiecient Balance\") */\n      tag_56\n      jumpi\n      mload(0x40)\n      0x08c379a000000000000000000000000000000000000000000000000000000000\n      dup2\n      mstore\n      0x04\n      add\n      tag_57\n      swap1\n      tag_58\n      jump\t// in\n    tag_57:\n      mload(0x40)\n      dup1\n      swap2\n      sub\n      swap1\n      revert\n    tag_56:\n        /* \"contracts/SimpleBank.sol\":1498:1507  msg.value */\n      callvalue\n        /* \"contracts/SimpleBank.sol\":1467:1474  account */\n      0x01\n        /* \"contracts/SimpleBank.sol\":1467:1486  account[msg.sender] */\n      0x00\n        /* \"contracts/SimpleBank.sol\":1475:1485  msg.sender */\n      caller\n        /* \"contracts/SimpleBank.sol\":1467:1486  account[msg.sender] */\n      0xffffffffffffffffffffffffffffffffffffffff\n      and\n      0xffffffffffffffffffffffffffffffffffffffff\n      and\n      dup2\n      mstore\n      0x20\n      add\n      swap1\n      dup2\n      mstore\n      0x20\n      add\n      0x00\n      keccak256\n        /* \"contracts/SimpleBank.sol\":1467:1494  account[msg.sender].balance */\n      0x01\n      add\n      0x00\n        /* \"contracts/SimpleBank.sol\":1467:1507  account[msg.sender].balance -= msg.value */\n      dup3\n      dup3\n      sload\n      tag_60\n      swap2\n      swap1\n      tag_61\n      jump\t// in\n    tag_60:\n      swap3\n      pop\n      pop\n      dup2\n      swap1\n      sstore\n      pop\n        /* \"contracts/SimpleBank.sol\":1394:1516  function Withdraw () public payable CheckBalance (msg.value) {... */\n      pop\n      jump\t// out\n        /* \"contracts/SimpleBank.sol\":1524:1633  function getDeposites () public view _isOwner returns (uint)  {... */\n    tag_26:\n        /* \"contracts/SimpleBank.sol\":1579:1583  uint */\n      0x00\n        /* \"contracts/SimpleBank.sol\":818:823  owner */\n      0x00\n      0x00\n      swap1\n      sload\n      swap1\n      0x0100\n      exp\n      swap1\n      div\n      0xffffffffffffffffffffffffffffffffffffffff\n      and\n        /* \"contracts/SimpleBank.sol\":804:823  msg.sender == owner */\n      0xffffffffffffffffffffffffffffffffffffffff\n      and\n        /* \"contracts/SimpleBank.sol\":804:814  msg.sender */\n      caller\n        /* \"contracts/SimpleBank.sol\":804:823  msg.sender == owner */\n      0xffffffffffffffffffffffffffffffffffffffff\n      and\n      eq\n        /* \"contracts/SimpleBank.sol\":796:847  require(msg.sender == owner, \"You are not allowed\") */\n      tag_63\n      jumpi\n      mload(0x40)\n      0x08c379a000000000000000000000000000000000000000000000000000000000\n      dup2\n      mstore\n      0x04\n      add\n      tag_64\n      swap1\n      tag_65\n      jump\t// in\n    tag_64:\n      mload(0x40)\n      dup1\n      swap2\n      sub\n      swap1\n      revert\n    tag_63:\n        /* \"contracts/SimpleBank.sol\":1604:1625  address(this).balance */\n      selfbalance\n        /* \"contracts/SimpleBank.sol\":1597:1625  return address(this).balance */\n      swap1\n      pop\n        /* \"contracts/SimpleBank.sol\":1524:1633  function getDeposites () public view _isOwner returns (uint)  {... */\n      swap1\n      jump\t// out\n        /* \"contracts/SimpleBank.sol\":1894:2032  function stake (uint _amount) public {... */\n    tag_32:\n        /* \"contracts/SimpleBank.sol\":1973:1980  _amount */\n      dup1\n        /* \"contracts/SimpleBank.sol\":1942:1949  account */\n      0x01\n        /* \"contracts/SimpleBank.sol\":1942:1961  account[msg.sender] */\n      0x00\n        /* \"contracts/SimpleBank.sol\":1950:1960  msg.sender */\n      caller\n        /* \"contracts/SimpleBank.sol\":1942:1961  account[msg.sender] */\n      0xffffffffffffffffffffffffffffffffffffffff\n      and\n      0xffffffffffffffffffffffffffffffffffffffff\n      and\n      dup2\n      mstore\n      0x20\n      add\n      swap1\n      dup2\n      mstore\n      0x20\n      add\n      0x00\n      keccak256\n        /* \"contracts/SimpleBank.sol\":1942:1969  account[msg.sender].balance */\n      0x01\n      add\n      0x00\n        /* \"contracts/SimpleBank.sol\":1942:1980  account[msg.sender].balance -= _amount */\n      dup3\n      dup3\n      sload\n      tag_68\n      swap2\n      swap1\n      tag_61\n      jump\t// in\n    tag_68:\n      swap3\n      pop\n      pop\n      dup2\n      swap1\n      sstore\n      pop\n        /* \"contracts/SimpleBank.sol\":2017:2024  _amount */\n      dup1\n        /* \"contracts/SimpleBank.sol\":1991:1998  account */\n      0x01\n        /* \"contracts/SimpleBank.sol\":1991:2005  account[owner] */\n      0x00\n        /* \"contracts/SimpleBank.sol\":1999:2004  owner */\n      0x00\n      0x00\n      swap1\n      sload\n      swap1\n      0x0100\n      exp\n      swap1\n      div\n      0xffffffffffffffffffffffffffffffffffffffff\n      and\n        /* \"contracts/SimpleBank.sol\":1991:2005  account[owner] */\n      0xffffffffffffffffffffffffffffffffffffffff\n      and\n      0xffffffffffffffffffffffffffffffffffffffff\n      and\n      dup2\n      mstore\n      0x20\n      add\n      swap1\n      dup2\n      mstore\n      0x20\n      add\n      0x00\n      keccak256\n        /* \"contracts/SimpleBank.sol\":1991:2013  account[owner].balance */\n      0x01\n      add\n      0x00\n        /* \"contracts/SimpleBank.sol\":1991:2024  account[owner].balance += _amount */\n      dup3\n      dup3\n      sload\n      tag_69\n      swap2\n      swap1\n      tag_70\n      jump\t// in\n    tag_69:\n      swap3\n      pop\n      pop\n      dup2\n      swap1\n      sstore\n      pop\n        /* \"contracts/SimpleBank.sol\":1894:2032  function stake (uint _amount) public {... */\n      pop\n      jump\t// out\n        /* \"contracts/SimpleBank.sol\":1641:1776  function sendMoneyToUser (address  user ) public payable onlyRegisteredUser(user ) {... */\n    tag_36:\n        /* \"contracts/SimpleBank.sol\":1717:1721  user */\n      dup1\n        /* \"contracts/SimpleBank.sol\":934:950  isRegisteredUser */\n      0x02\n        /* \"contracts/SimpleBank.sol\":934:956  isRegisteredUser[user] */\n      0x00\n        /* \"contracts/SimpleBank.sol\":951:955  user */\n      dup3\n        /* \"contracts/SimpleBank.sol\":934:956  isRegisteredUser[user] */\n      0xffffffffffffffffffffffffffffffffffffffff\n      and\n      0xffffffffffffffffffffffffffffffffffffffff\n      and\n      dup2\n      mstore\n      0x20\n      add\n      swap1\n      dup2\n      mstore\n      0x20\n      add\n      0x00\n      keccak256\n      0x00\n      swap1\n      sload\n      swap1\n      0x0100\n      exp\n      swap1\n      div\n      0xff\n      and\n        /* \"contracts/SimpleBank.sol\":926:996  require(isRegisteredUser[user], \"Account not registered in our bank.\") */\n      tag_72\n      jumpi\n      mload(0x40)\n      0x08c379a000000000000000000000000000000000000000000000000000000000\n      dup2\n      mstore\n      0x04\n      add\n      tag_73\n      swap1\n      tag_74\n      jump\t// in\n    tag_73:\n      mload(0x40)\n      dup1\n      swap2\n      sub\n      swap1\n      revert\n    tag_72:\n        /* \"contracts/SimpleBank.sol\":1759:1768  msg.value */\n      callvalue\n        /* \"contracts/SimpleBank.sol\":1735:1742  account */\n      0x01\n        /* \"contracts/SimpleBank.sol\":1735:1748  account[user] */\n      0x00\n        /* \"contracts/SimpleBank.sol\":1743:1747  user */\n      dup5\n        /* \"contracts/SimpleBank.sol\":1735:1748  account[user] */\n      0xffffffffffffffffffffffffffffffffffffffff\n      and\n      0xffffffffffffffffffffffffffffffffffffffff\n      and\n      dup2\n      mstore\n      0x20\n      add\n      swap1\n      dup2\n      mstore\n      0x20\n      add\n      0x00\n      keccak256\n        /* \"contracts/SimpleBank.sol\":1735:1756  account[user].balance */\n      0x01\n      add\n      0x00\n        /* \"contracts/SimpleBank.sol\":1735:1768  account[user].balance +=msg.value */\n      dup3\n      dup3\n      sload\n      tag_76\n      swap2\n      swap1\n      tag_70\n      jump\t// in\n    tag_76:\n      swap3\n      pop\n      pop\n      dup2\n      swap1\n      sstore\n      pop\n        /* \"contracts/SimpleBank.sol\":1641:1776  function sendMoneyToUser (address  user ) public payable onlyRegisteredUser(user ) {... */\n      pop\n      pop\n      jump\t// out\n        /* \"contracts/SimpleBank.sol\":1289:1385  function Deposite () public payable{... */\n    tag_38:\n        /* \"contracts/SimpleBank.sol\":1367:1376  msg.value */\n      callvalue\n        /* \"contracts/SimpleBank.sol\":1336:1343  account */\n      0x01\n        /* \"contracts/SimpleBank.sol\":1336:1355  account[msg.sender] */\n      0x00\n        /* \"contracts/SimpleBank.sol\":1344:1354  msg.sender */\n      caller\n        /* \"contracts/SimpleBank.sol\":1336:1355  account[msg.sender] */\n      0xffffffffffffffffffffffffffffffffffffffff\n      and\n      0xffffffffffffffffffffffffffffffffffffffff\n      and\n      dup2\n      mstore\n      0x20\n      add\n      swap1\n      dup2\n      mstore\n      0x20\n      add\n      0x00\n      keccak256\n        /* \"contracts/SimpleBank.sol\":1336:1363  account[msg.sender].balance */\n      0x01\n      add\n      0x00\n        /* \"contracts/SimpleBank.sol\":1336:1376  account[msg.sender].balance += msg.value */\n      dup3\n      dup3\n      sload\n      tag_78\n      swap2\n      swap1\n      tag_70\n      jump\t// in\n    tag_78:\n      swap3\n      pop\n      pop\n      dup2\n      swap1\n      sstore\n      pop\n        /* \"contracts/SimpleBank.sol\":1289:1385  function Deposite () public payable{... */\n      jump\t// out\n        /* \"contracts/SimpleBank.sol\":1782:1888  function getAllUsers () public view _isOwner returns ( User[] memory) {... */\n    tag_41:\n        /* \"contracts/SimpleBank.sol\":1837:1850  User[] memory */\n      0x60\n        /* \"contracts/SimpleBank.sol\":818:823  owner */\n      0x00\n      0x00\n      swap1\n      sload\n      swap1\n      0x0100\n      exp\n      swap1\n      div\n      0xffffffffffffffffffffffffffffffffffffffff\n      and\n        /* \"contracts/SimpleBank.sol\":804:823  msg.sender == owner */\n      0xffffffffffffffffffffffffffffffffffffffff\n      and\n        /* \"contracts/SimpleBank.sol\":804:814  msg.sender */\n      caller\n        /* \"contracts/SimpleBank.sol\":804:823  msg.sender == owner */\n      0xffffffffffffffffffffffffffffffffffffffff\n      and\n      eq\n        /* \"contracts/SimpleBank.sol\":796:847  require(msg.sender == owner, \"You are not allowed\") */\n      tag_80\n      jumpi\n      mload(0x40)\n      0x08c379a000000000000000000000000000000000000000000000000000000000\n      dup2\n      mstore\n      0x04\n      add\n      tag_81\n      swap1\n      tag_65\n      jump\t// in\n    tag_81:\n      mload(0x40)\n      dup1\n      swap2\n      sub\n      swap1\n      revert\n    tag_80:\n        /* \"contracts/SimpleBank.sol\":1873:1878  Users */\n      0x03\n        /* \"contracts/SimpleBank.sol\":1866:1878  return Users */\n      dup1\n      sload\n      dup1\n      0x20\n      mul\n      0x20\n      add\n      mload(0x40)\n      swap1\n      dup2\n      add\n      0x40\n      mstore\n      dup1\n      swap3\n      swap2\n      swap1\n      dup2\n      dup2\n      mstore\n      0x20\n      add\n      0x00\n      swap1\n    tag_83:\n      dup3\n      dup3\n      lt\n      iszero\n      tag_84\n      jumpi\n      dup4\n      dup3\n      swap1\n      0x00\n      mstore\n      keccak256(0x00, 0x20)\n      swap1\n      0x02\n      mul\n      add\n      mload(0x40)\n      dup1\n      0x40\n      add\n      0x40\n      mstore\n      swap1\n      dup2\n      0x00\n      dup3\n      add\n      0x00\n      swap1\n      sload\n      swap1\n      0x0100\n      exp\n      swap1\n      div\n      0xffffffffffffffffffffffffffffffffffffffff\n      and\n      0xffffffffffffffffffffffffffffffffffffffff\n      and\n      0xffffffffffffffffffffffffffffffffffffffff\n      and\n      dup2\n      mstore\n      0x20\n      add\n      0x01\n      dup3\n      add\n      sload\n      dup2\n      mstore\n      pop\n      pop\n      dup2\n      mstore\n      0x20\n      add\n      swap1\n      0x01\n      add\n      swap1\n      jump(tag_83)\n    tag_84:\n      pop\n      pop\n      pop\n      pop\n      swap1\n      pop\n        /* \"contracts/SimpleBank.sol\":1782:1888  function getAllUsers () public view _isOwner returns ( User[] memory) {... */\n      swap1\n      jump\t// out\n        /* \"contracts/SimpleBank.sol\":1166:1277  function getACCountBalance  () public view returns (uint) {... */\n    tag_46:\n        /* \"contracts/SimpleBank.sol\":1218:1222  uint */\n      0x00\n        /* \"contracts/SimpleBank.sol\":1242:1249  account */\n      0x01\n        /* \"contracts/SimpleBank.sol\":1242:1261  account[msg.sender] */\n      0x00\n        /* \"contracts/SimpleBank.sol\":1250:1260  msg.sender */\n      caller\n        /* \"contracts/SimpleBank.sol\":1242:1261  account[msg.sender] */\n      0xffffffffffffffffffffffffffffffffffffffff\n      and\n      0xffffffffffffffffffffffffffffffffffffffff\n      and\n      dup2\n      mstore\n      0x20\n      add\n      swap1\n      dup2\n      mstore\n      0x20\n      add\n      0x00\n      keccak256\n        /* \"contracts/SimpleBank.sol\":1242:1269  account[msg.sender].balance */\n      0x01\n      add\n      sload\n        /* \"contracts/SimpleBank.sol\":1235:1269  return account[msg.sender].balance */\n      swap1\n      pop\n        /* \"contracts/SimpleBank.sol\":1166:1277  function getACCountBalance  () public view returns (uint) {... */\n      swap1\n      jump\t// out\n        /* \"#utility.yul\":88:205   */\n    tag_88:\n        /* \"#utility.yul\":197:198   */\n      0x00\n        /* \"#utility.yul\":194:195   */\n      0x00\n        /* \"#utility.yul\":187:199   */\n      revert\n        /* \"#utility.yul\":334:411   */\n    tag_90:\n        /* \"#utility.yul\":371:378   */\n      0x00\n        /* \"#utility.yul\":400:405   */\n      dup2\n        /* \"#utility.yul\":389:405   */\n      swap1\n      pop\n        /* \"#utility.yul\":334:411   */\n      swap2\n      swap1\n      pop\n      jump\t// out\n        /* \"#utility.yul\":417:539   */\n    tag_91:\n        /* \"#utility.yul\":490:514   */\n      tag_124\n        /* \"#utility.yul\":508:513   */\n      dup2\n        /* \"#utility.yul\":490:514   */\n      tag_90\n      jump\t// in\n    tag_124:\n        /* \"#utility.yul\":483:488   */\n      dup2\n        /* \"#utility.yul\":480:515   */\n      eq\n        /* \"#utility.yul\":470:533   */\n      tag_125\n      jumpi\n        /* \"#utility.yul\":529:530   */\n      0x00\n        /* \"#utility.yul\":526:527   */\n      0x00\n        /* \"#utility.yul\":519:531   */\n      revert\n        /* \"#utility.yul\":470:533   */\n    tag_125:\n        /* \"#utility.yul\":417:539   */\n      pop\n      jump\t// out\n        /* \"#utility.yul\":545:684   */\n    tag_92:\n        /* \"#utility.yul\":591:596   */\n      0x00\n        /* \"#utility.yul\":629:635   */\n      dup2\n        /* \"#utility.yul\":616:636   */\n      calldataload\n        /* \"#utility.yul\":607:636   */\n      swap1\n      pop\n        /* \"#utility.yul\":645:678   */\n      tag_127\n        /* \"#utility.yul\":672:677   */\n      dup2\n        /* \"#utility.yul\":645:678   */\n      tag_91\n      jump\t// in\n    tag_127:\n        /* \"#utility.yul\":545:684   */\n      swap3\n      swap2\n      pop\n      pop\n      jump\t// out\n        /* \"#utility.yul\":690:1019   */\n    tag_18:\n        /* \"#utility.yul\":749:755   */\n      0x00\n        /* \"#utility.yul\":798:800   */\n      0x20\n        /* \"#utility.yul\":786:795   */\n      dup3\n        /* \"#utility.yul\":777:784   */\n      dup5\n        /* \"#utility.yul\":773:796   */\n      sub\n        /* \"#utility.yul\":769:801   */\n      slt\n        /* \"#utility.yul\":766:885   */\n      iszero\n      tag_129\n      jumpi\n        /* \"#utility.yul\":804:883   */\n      tag_130\n      tag_88\n      jump\t// in\n    tag_130:\n        /* \"#utility.yul\":766:885   */\n    tag_129:\n        /* \"#utility.yul\":924:925   */\n      0x00\n        /* \"#utility.yul\":949:1002   */\n      tag_131\n        /* \"#utility.yul\":994:1001   */\n      dup5\n        /* \"#utility.yul\":985:991   */\n      dup3\n        /* \"#utility.yul\":974:983   */\n      dup6\n        /* \"#utility.yul\":970:992   */\n      add\n        /* \"#utility.yul\":949:1002   */\n      tag_92\n      jump\t// in\n    tag_131:\n        /* \"#utility.yul\":939:1002   */\n      swap2\n      pop\n        /* \"#utility.yul\":895:1012   */\n      pop\n        /* \"#utility.yul\":690:1019   */\n      swap3\n      swap2\n      pop\n      pop\n      jump\t// out\n        /* \"#utility.yul\":1025:1151   */\n    tag_93:\n        /* \"#utility.yul\":1062:1069   */\n      0x00\n        /* \"#utility.yul\":1102:1144   */\n      0xffffffffffffffffffffffffffffffffffffffff\n        /* \"#utility.yul\":1095:1100   */\n      dup3\n        /* \"#utility.yul\":1091:1145   */\n      and\n        /* \"#utility.yul\":1080:1145   */\n      swap1\n      pop\n        /* \"#utility.yul\":1025:1151   */\n      swap2\n      swap1\n      pop\n      jump\t// out\n        /* \"#utility.yul\":1157:1253   */\n    tag_94:\n        /* \"#utility.yul\":1194:1201   */\n      0x00\n        /* \"#utility.yul\":1223:1247   */\n      tag_134\n        /* \"#utility.yul\":1241:1246   */\n      dup3\n        /* \"#utility.yul\":1223:1247   */\n      tag_93\n      jump\t// in\n    tag_134:\n        /* \"#utility.yul\":1212:1247   */\n      swap1\n      pop\n        /* \"#utility.yul\":1157:1253   */\n      swap2\n      swap1\n      pop\n      jump\t// out\n        /* \"#utility.yul\":1259:1377   */\n    tag_95:\n        /* \"#utility.yul\":1346:1370   */\n      tag_136\n        /* \"#utility.yul\":1364:1369   */\n      dup2\n        /* \"#utility.yul\":1346:1370   */\n      tag_94\n      jump\t// in\n    tag_136:\n        /* \"#utility.yul\":1341:1344   */\n      dup3\n        /* \"#utility.yul\":1334:1371   */\n      mstore\n        /* \"#utility.yul\":1259:1377   */\n      pop\n      pop\n      jump\t// out\n        /* \"#utility.yul\":1383:1501   */\n    tag_96:\n        /* \"#utility.yul\":1470:1494   */\n      tag_138\n        /* \"#utility.yul\":1488:1493   */\n      dup2\n        /* \"#utility.yul\":1470:1494   */\n      tag_90\n      jump\t// in\n    tag_138:\n        /* \"#utility.yul\":1465:1468   */\n      dup3\n        /* \"#utility.yul\":1458:1495   */\n      mstore\n        /* \"#utility.yul\":1383:1501   */\n      pop\n      pop\n      jump\t// out\n        /* \"#utility.yul\":1507:1839   */\n    tag_21:\n        /* \"#utility.yul\":1628:1632   */\n      0x00\n        /* \"#utility.yul\":1666:1668   */\n      0x40\n        /* \"#utility.yul\":1655:1664   */\n      dup3\n        /* \"#utility.yul\":1651:1669   */\n      add\n        /* \"#utility.yul\":1643:1669   */\n      swap1\n      pop\n        /* \"#utility.yul\":1679:1750   */\n      tag_140\n        /* \"#utility.yul\":1747:1748   */\n      0x00\n        /* \"#utility.yul\":1736:1745   */\n      dup4\n        /* \"#utility.yul\":1732:1749   */\n      add\n        /* \"#utility.yul\":1723:1729   */\n      dup6\n        /* \"#utility.yul\":1679:1750   */\n      tag_95\n      jump\t// in\n    tag_140:\n        /* \"#utility.yul\":1760:1832   */\n      tag_141\n        /* \"#utility.yul\":1828:1830   */\n      0x20\n        /* \"#utility.yul\":1817:1826   */\n      dup4\n        /* \"#utility.yul\":1813:1831   */\n      add\n        /* \"#utility.yul\":1804:1810   */\n      dup5\n        /* \"#utility.yul\":1760:1832   */\n      tag_96\n      jump\t// in\n    tag_141:\n        /* \"#utility.yul\":1507:1839   */\n      swap4\n      swap3\n      pop\n      pop\n      pop\n      jump\t// out\n        /* \"#utility.yul\":1845:2067   */\n    tag_28:\n        /* \"#utility.yul\":1938:1942   */\n      0x00\n        /* \"#utility.yul\":1976:1978   */\n      0x20\n        /* \"#utility.yul\":1965:1974   */\n      dup3\n        /* \"#utility.yul\":1961:1979   */\n      add\n        /* \"#utility.yul\":1953:1979   */\n      swap1\n      pop\n        /* \"#utility.yul\":1989:2060   */\n      tag_143\n        /* \"#utility.yul\":2057:2058   */\n      0x00\n        /* \"#utility.yul\":2046:2055   */\n      dup4\n        /* \"#utility.yul\":2042:2059   */\n      add\n        /* \"#utility.yul\":2033:2039   */\n      dup5\n        /* \"#utility.yul\":1989:2060   */\n      tag_96\n      jump\t// in\n    tag_143:\n        /* \"#utility.yul\":1845:2067   */\n      swap3\n      swap2\n      pop\n      pop\n      jump\t// out\n        /* \"#utility.yul\":2073:2195   */\n    tag_97:\n        /* \"#utility.yul\":2146:2170   */\n      tag_145\n        /* \"#utility.yul\":2164:2169   */\n      dup2\n        /* \"#utility.yul\":2146:2170   */\n      tag_94\n      jump\t// in\n    tag_145:\n        /* \"#utility.yul\":2139:2144   */\n      dup2\n        /* \"#utility.yul\":2136:2171   */\n      eq\n        /* \"#utility.yul\":2126:2189   */\n      tag_146\n      jumpi\n        /* \"#utility.yul\":2185:2186   */\n      0x00\n        /* \"#utility.yul\":2182:2183   */\n      0x00\n        /* \"#utility.yul\":2175:2187   */\n      revert\n        /* \"#utility.yul\":2126:2189   */\n    tag_146:\n        /* \"#utility.yul\":2073:2195   */\n      pop\n      jump\t// out\n        /* \"#utility.yul\":2201:2340   */\n    tag_98:\n        /* \"#utility.yul\":2247:2252   */\n      0x00\n        /* \"#utility.yul\":2285:2291   */\n      dup2\n        /* \"#utility.yul\":2272:2292   */\n      calldataload\n        /* \"#utility.yul\":2263:2292   */\n      swap1\n      pop\n        /* \"#utility.yul\":2301:2334   */\n      tag_148\n        /* \"#utility.yul\":2328:2333   */\n      dup2\n        /* \"#utility.yul\":2301:2334   */\n      tag_97\n      jump\t// in\n    tag_148:\n        /* \"#utility.yul\":2201:2340   */\n      swap3\n      swap2\n      pop\n      pop\n      jump\t// out\n        /* \"#utility.yul\":2346:2675   */\n    tag_35:\n        /* \"#utility.yul\":2405:2411   */\n      0x00\n        /* \"#utility.yul\":2454:2456   */\n      0x20\n        /* \"#utility.yul\":2442:2451   */\n      dup3\n        /* \"#utility.yul\":2433:2440   */\n      dup5\n        /* \"#utility.yul\":2429:2452   */\n      sub\n        /* \"#utility.yul\":2425:2457   */\n      slt\n        /* \"#utility.yul\":2422:2541   */\n      iszero\n      tag_150\n      jumpi\n        /* \"#utility.yul\":2460:2539   */\n      tag_151\n      tag_88\n      jump\t// in\n    tag_151:\n        /* \"#utility.yul\":2422:2541   */\n    tag_150:\n        /* \"#utility.yul\":2580:2581   */\n      0x00\n        /* \"#utility.yul\":2605:2658   */\n      tag_152\n        /* \"#utility.yul\":2650:2657   */\n      dup5\n        /* \"#utility.yul\":2641:2647   */\n      dup3\n        /* \"#utility.yul\":2630:2639   */\n      dup6\n        /* \"#utility.yul\":2626:2648   */\n      add\n        /* \"#utility.yul\":2605:2658   */\n      tag_98\n      jump\t// in\n    tag_152:\n        /* \"#utility.yul\":2595:2658   */\n      swap2\n      pop\n        /* \"#utility.yul\":2551:2668   */\n      pop\n        /* \"#utility.yul\":2346:2675   */\n      swap3\n      swap2\n      pop\n      pop\n      jump\t// out\n        /* \"#utility.yul\":2681:2815   */\n    tag_99:\n        /* \"#utility.yul\":2768:2774   */\n      0x00\n        /* \"#utility.yul\":2802:2807   */\n      dup2\n        /* \"#utility.yul\":2796:2808   */\n      mload\n        /* \"#utility.yul\":2786:2808   */\n      swap1\n      pop\n        /* \"#utility.yul\":2681:2815   */\n      swap2\n      swap1\n      pop\n      jump\t// out\n        /* \"#utility.yul\":2821:3025   */\n    tag_100:\n        /* \"#utility.yul\":2940:2951   */\n      0x00\n        /* \"#utility.yul\":2974:2980   */\n      dup3\n        /* \"#utility.yul\":2969:2972   */\n      dup3\n        /* \"#utility.yul\":2962:2981   */\n      mstore\n        /* \"#utility.yul\":3014:3018   */\n      0x20\n        /* \"#utility.yul\":3009:3012   */\n      dup3\n        /* \"#utility.yul\":3005:3019   */\n      add\n        /* \"#utility.yul\":2990:3019   */\n      swap1\n      pop\n        /* \"#utility.yul\":2821:3025   */\n      swap3\n      swap2\n      pop\n      pop\n      jump\t// out\n        /* \"#utility.yul\":3031:3183   */\n    tag_101:\n        /* \"#utility.yul\":3118:3122   */\n      0x00\n        /* \"#utility.yul\":3141:3144   */\n      dup2\n        /* \"#utility.yul\":3133:3144   */\n      swap1\n      pop\n        /* \"#utility.yul\":3171:3175   */\n      0x20\n        /* \"#utility.yul\":3166:3169   */\n      dup3\n        /* \"#utility.yul\":3162:3176   */\n      add\n        /* \"#utility.yul\":3154:3176   */\n      swap1\n      pop\n        /* \"#utility.yul\":3031:3183   */\n      swap2\n      swap1\n      pop\n      jump\t// out\n        /* \"#utility.yul\":3189:3297   */\n    tag_102:\n        /* \"#utility.yul\":3266:3290   */\n      tag_157\n        /* \"#utility.yul\":3284:3289   */\n      dup2\n        /* \"#utility.yul\":3266:3290   */\n      tag_94\n      jump\t// in\n    tag_157:\n        /* \"#utility.yul\":3261:3264   */\n      dup3\n        /* \"#utility.yul\":3254:3291   */\n      mstore\n        /* \"#utility.yul\":3189:3297   */\n      pop\n      pop\n      jump\t// out\n        /* \"#utility.yul\":3303:3411   */\n    tag_103:\n        /* \"#utility.yul\":3380:3404   */\n      tag_159\n        /* \"#utility.yul\":3398:3403   */\n      dup2\n        /* \"#utility.yul\":3380:3404   */\n      tag_90\n      jump\t// in\n    tag_159:\n        /* \"#utility.yul\":3375:3378   */\n      dup3\n        /* \"#utility.yul\":3368:3405   */\n      mstore\n        /* \"#utility.yul\":3303:3411   */\n      pop\n      pop\n      jump\t// out\n        /* \"#utility.yul\":3471:3959   */\n    tag_104:\n        /* \"#utility.yul\":3598:3602   */\n      0x40\n        /* \"#utility.yul\":3593:3596   */\n      dup3\n        /* \"#utility.yul\":3589:3603   */\n      add\n        /* \"#utility.yul\":3683:3687   */\n      0x00\n        /* \"#utility.yul\":3676:3681   */\n      dup3\n        /* \"#utility.yul\":3672:3688   */\n      add\n        /* \"#utility.yul\":3666:3689   */\n      mload\n        /* \"#utility.yul\":3702:3765   */\n      tag_161\n        /* \"#utility.yul\":3759:3763   */\n      0x00\n        /* \"#utility.yul\":3754:3757   */\n      dup6\n        /* \"#utility.yul\":3750:3764   */\n      add\n        /* \"#utility.yul\":3736:3748   */\n      dup3\n        /* \"#utility.yul\":3702:3765   */\n      tag_102\n      jump\t// in\n    tag_161:\n        /* \"#utility.yul\":3613:3775   */\n      pop\n        /* \"#utility.yul\":3860:3864   */\n      0x20\n        /* \"#utility.yul\":3853:3858   */\n      dup3\n        /* \"#utility.yul\":3849:3865   */\n      add\n        /* \"#utility.yul\":3843:3866   */\n      mload\n        /* \"#utility.yul\":3879:3942   */\n      tag_162\n        /* \"#utility.yul\":3936:3940   */\n      0x20\n        /* \"#utility.yul\":3931:3934   */\n      dup6\n        /* \"#utility.yul\":3927:3941   */\n      add\n        /* \"#utility.yul\":3913:3925   */\n      dup3\n        /* \"#utility.yul\":3879:3942   */\n      tag_103\n      jump\t// in\n    tag_162:\n        /* \"#utility.yul\":3785:3952   */\n      pop\n        /* \"#utility.yul\":3567:3959   */\n      pop\n        /* \"#utility.yul\":3471:3959   */\n      pop\n      pop\n      jump\t// out\n        /* \"#utility.yul\":3965:4224   */\n    tag_105:\n        /* \"#utility.yul\":4074:4084   */\n      0x00\n        /* \"#utility.yul\":4095:4181   */\n      tag_164\n        /* \"#utility.yul\":4177:4180   */\n      dup4\n        /* \"#utility.yul\":4169:4175   */\n      dup4\n        /* \"#utility.yul\":4095:4181   */\n      tag_104\n      jump\t// in\n    tag_164:\n        /* \"#utility.yul\":4213:4217   */\n      0x40\n        /* \"#utility.yul\":4208:4211   */\n      dup4\n        /* \"#utility.yul\":4204:4218   */\n      add\n        /* \"#utility.yul\":4190:4218   */\n      swap1\n      pop\n        /* \"#utility.yul\":3965:4224   */\n      swap3\n      swap2\n      pop\n      pop\n      jump\t// out\n        /* \"#utility.yul\":4230:4363   */\n    tag_106:\n        /* \"#utility.yul\":4320:4324   */\n      0x00\n        /* \"#utility.yul\":4352:4356   */\n      0x20\n        /* \"#utility.yul\":4347:4350   */\n      dup3\n        /* \"#utility.yul\":4343:4357   */\n      add\n        /* \"#utility.yul\":4335:4357   */\n      swap1\n      pop\n        /* \"#utility.yul\":4230:4363   */\n      swap2\n      swap1\n      pop\n      jump\t// out\n        /* \"#utility.yul\":4427:5319   */\n    tag_107:\n        /* \"#utility.yul\":4586:4589   */\n      0x00\n        /* \"#utility.yul\":4615:4689   */\n      tag_167\n        /* \"#utility.yul\":4683:4688   */\n      dup3\n        /* \"#utility.yul\":4615:4689   */\n      tag_99\n      jump\t// in\n    tag_167:\n        /* \"#utility.yul\":4705:4811   */\n      tag_168\n        /* \"#utility.yul\":4804:4810   */\n      dup2\n        /* \"#utility.yul\":4799:4802   */\n      dup6\n        /* \"#utility.yul\":4705:4811   */\n      tag_100\n      jump\t// in\n    tag_168:\n        /* \"#utility.yul\":4698:4811   */\n      swap4\n      pop\n        /* \"#utility.yul\":4835:4911   */\n      tag_169\n        /* \"#utility.yul\":4905:4910   */\n      dup4\n        /* \"#utility.yul\":4835:4911   */\n      tag_101\n      jump\t// in\n    tag_169:\n        /* \"#utility.yul\":4934:4941   */\n      dup1\n        /* \"#utility.yul\":4965:4966   */\n      0x00\n        /* \"#utility.yul\":4950:5294   */\n    tag_170:\n        /* \"#utility.yul\":4975:4981   */\n      dup4\n        /* \"#utility.yul\":4972:4973   */\n      dup2\n        /* \"#utility.yul\":4969:4982   */\n      lt\n        /* \"#utility.yul\":4950:5294   */\n      iszero\n      tag_172\n      jumpi\n        /* \"#utility.yul\":5051:5057   */\n      dup2\n        /* \"#utility.yul\":5045:5058   */\n      mload\n        /* \"#utility.yul\":5078:5181   */\n      tag_173\n        /* \"#utility.yul\":5177:5180   */\n      dup9\n        /* \"#utility.yul\":5162:5175   */\n      dup3\n        /* \"#utility.yul\":5078:5181   */\n      tag_105\n      jump\t// in\n    tag_173:\n        /* \"#utility.yul\":5071:5181   */\n      swap8\n      pop\n        /* \"#utility.yul\":5204:5284   */\n      tag_174\n        /* \"#utility.yul\":5277:5283   */\n      dup4\n        /* \"#utility.yul\":5204:5284   */\n      tag_106\n      jump\t// in\n    tag_174:\n        /* \"#utility.yul\":5194:5284   */\n      swap3\n      pop\n        /* \"#utility.yul\":5010:5294   */\n      pop\n        /* \"#utility.yul\":4997:4998   */\n      0x01\n        /* \"#utility.yul\":4994:4995   */\n      dup2\n        /* \"#utility.yul\":4990:4999   */\n      add\n        /* \"#utility.yul\":4985:4999   */\n      swap1\n      pop\n        /* \"#utility.yul\":4950:5294   */\n      jump(tag_170)\n    tag_172:\n        /* \"#utility.yul\":4954:4968   */\n      pop\n        /* \"#utility.yul\":5310:5313   */\n      dup6\n        /* \"#utility.yul\":5303:5313   */\n      swap4\n      pop\n        /* \"#utility.yul\":4591:5319   */\n      pop\n      pop\n      pop\n        /* \"#utility.yul\":4427:5319   */\n      swap3\n      swap2\n      pop\n      pop\n      jump\t// out\n        /* \"#utility.yul\":5325:5778   */\n    tag_43:\n        /* \"#utility.yul\":5508:5512   */\n      0x00\n        /* \"#utility.yul\":5546:5548   */\n      0x20\n        /* \"#utility.yul\":5535:5544   */\n      dup3\n        /* \"#utility.yul\":5531:5549   */\n      add\n        /* \"#utility.yul\":5523:5549   */\n      swap1\n      pop\n        /* \"#utility.yul\":5595:5604   */\n      dup2\n        /* \"#utility.yul\":5589:5593   */\n      dup2\n        /* \"#utility.yul\":5585:5605   */\n      sub\n        /* \"#utility.yul\":5581:5582   */\n      0x00\n        /* \"#utility.yul\":5570:5579   */\n      dup4\n        /* \"#utility.yul\":5566:5583   */\n      add\n        /* \"#utility.yul\":5559:5606   */\n      mstore\n        /* \"#utility.yul\":5623:5771   */\n      tag_176\n        /* \"#utility.yul\":5766:5770   */\n      dup2\n        /* \"#utility.yul\":5757:5763   */\n      dup5\n        /* \"#utility.yul\":5623:5771   */\n      tag_107\n      jump\t// in\n    tag_176:\n        /* \"#utility.yul\":5615:5771   */\n      swap1\n      pop\n        /* \"#utility.yul\":5325:5778   */\n      swap3\n      swap2\n      pop\n      pop\n      jump\t// out\n        /* \"#utility.yul\":5784:5953   */\n    tag_108:\n        /* \"#utility.yul\":5868:5879   */\n      0x00\n        /* \"#utility.yul\":5902:5908   */\n      dup3\n        /* \"#utility.yul\":5897:5900   */\n      dup3\n        /* \"#utility.yul\":5890:5909   */\n      mstore\n        /* \"#utility.yul\":5942:5946   */\n      0x20\n        /* \"#utility.yul\":5937:5940   */\n      dup3\n        /* \"#utility.yul\":5933:5947   */\n      add\n        /* \"#utility.yul\":5918:5947   */\n      swap1\n      pop\n        /* \"#utility.yul\":5784:5953   */\n      swap3\n      swap2\n      pop\n      pop\n      jump\t// out\n        /* \"#utility.yul\":5959:6135   */\n    tag_109:\n        /* \"#utility.yul\":6099:6127   */\n      0x4163636f756e7420616c72656164792072656769737465726564000000000000\n        /* \"#utility.yul\":6095:6096   */\n      0x00\n        /* \"#utility.yul\":6087:6093   */\n      dup3\n        /* \"#utility.yul\":6083:6097   */\n      add\n        /* \"#utility.yul\":6076:6128   */\n      mstore\n        /* \"#utility.yul\":5959:6135   */\n      pop\n      jump\t// out\n        /* \"#utility.yul\":6141:6507   */\n    tag_110:\n        /* \"#utility.yul\":6283:6286   */\n      0x00\n        /* \"#utility.yul\":6304:6371   */\n      tag_180\n        /* \"#utility.yul\":6368:6370   */\n      0x1a\n        /* \"#utility.yul\":6363:6366   */\n      dup4\n        /* \"#utility.yul\":6304:6371   */\n      tag_108\n      jump\t// in\n    tag_180:\n        /* \"#utility.yul\":6297:6371   */\n      swap2\n      pop\n        /* \"#utility.yul\":6380:6473   */\n      tag_181\n        /* \"#utility.yul\":6469:6472   */\n      dup3\n        /* \"#utility.yul\":6380:6473   */\n      tag_109\n      jump\t// in\n    tag_181:\n        /* \"#utility.yul\":6498:6500   */\n      0x20\n        /* \"#utility.yul\":6493:6496   */\n      dup3\n        /* \"#utility.yul\":6489:6501   */\n      add\n        /* \"#utility.yul\":6482:6501   */\n      swap1\n      pop\n        /* \"#utility.yul\":6141:6507   */\n      swap2\n      swap1\n      pop\n      jump\t// out\n        /* \"#utility.yul\":6513:6932   */\n    tag_51:\n        /* \"#utility.yul\":6679:6683   */\n      0x00\n        /* \"#utility.yul\":6717:6719   */\n      0x20\n        /* \"#utility.yul\":6706:6715   */\n      dup3\n        /* \"#utility.yul\":6702:6720   */\n      add\n        /* \"#utility.yul\":6694:6720   */\n      swap1\n      pop\n        /* \"#utility.yul\":6766:6775   */\n      dup2\n        /* \"#utility.yul\":6760:6764   */\n      dup2\n        /* \"#utility.yul\":6756:6776   */\n      sub\n        /* \"#utility.yul\":6752:6753   */\n      0x00\n        /* \"#utility.yul\":6741:6750   */\n      dup4\n        /* \"#utility.yul\":6737:6754   */\n      add\n        /* \"#utility.yul\":6730:6777   */\n      mstore\n        /* \"#utility.yul\":6794:6925   */\n      tag_183\n        /* \"#utility.yul\":6920:6924   */\n      dup2\n        /* \"#utility.yul\":6794:6925   */\n      tag_110\n      jump\t// in\n    tag_183:\n        /* \"#utility.yul\":6786:6925   */\n      swap1\n      pop\n        /* \"#utility.yul\":6513:6932   */\n      swap2\n      swap1\n      pop\n      jump\t// out\n        /* \"#utility.yul\":6938:7109   */\n    tag_111:\n        /* \"#utility.yul\":7078:7101   */\n      0x496e7375666669656369656e742042616c616e63650000000000000000000000\n        /* \"#utility.yul\":7074:7075   */\n      0x00\n        /* \"#utility.yul\":7066:7072   */\n      dup3\n        /* \"#utility.yul\":7062:7076   */\n      add\n        /* \"#utility.yul\":7055:7102   */\n      mstore\n        /* \"#utility.yul\":6938:7109   */\n      pop\n      jump\t// out\n        /* \"#utility.yul\":7115:7481   */\n    tag_112:\n        /* \"#utility.yul\":7257:7260   */\n      0x00\n        /* \"#utility.yul\":7278:7345   */\n      tag_186\n        /* \"#utility.yul\":7342:7344   */\n      0x15\n        /* \"#utility.yul\":7337:7340   */\n      dup4\n        /* \"#utility.yul\":7278:7345   */\n      tag_108\n      jump\t// in\n    tag_186:\n        /* \"#utility.yul\":7271:7345   */\n      swap2\n      pop\n        /* \"#utility.yul\":7354:7447   */\n      tag_187\n        /* \"#utility.yul\":7443:7446   */\n      dup3\n        /* \"#utility.yul\":7354:7447   */\n      tag_111\n      jump\t// in\n    tag_187:\n        /* \"#utility.yul\":7472:7474   */\n      0x20\n        /* \"#utility.yul\":7467:7470   */\n      dup3\n        /* \"#utility.yul\":7463:7475   */\n      add\n        /* \"#utility.yul\":7456:7475   */\n      swap1\n      pop\n        /* \"#utility.yul\":7115:7481   */\n      swap2\n      swap1\n      pop\n      jump\t// out\n        /* \"#utility.yul\":7487:7906   */\n    tag_58:\n        /* \"#utility.yul\":7653:7657   */\n      0x00\n        /* \"#utility.yul\":7691:7693   */\n      0x20\n        /* \"#utility.yul\":7680:7689   */\n      dup3\n        /* \"#utility.yul\":7676:7694   */\n      add\n        /* \"#utility.yul\":7668:7694   */\n      swap1\n      pop\n        /* \"#utility.yul\":7740:7749   */\n      dup2\n        /* \"#utility.yul\":7734:7738   */\n      dup2\n        /* \"#utility.yul\":7730:7750   */\n      sub\n        /* \"#utility.yul\":7726:7727   */\n      0x00\n        /* \"#utility.yul\":7715:7724   */\n      dup4\n        /* \"#utility.yul\":7711:7728   */\n      add\n        /* \"#utility.yul\":7704:7751   */\n      mstore\n        /* \"#utility.yul\":7768:7899   */\n      tag_189\n        /* \"#utility.yul\":7894:7898   */\n      dup2\n        /* \"#utility.yul\":7768:7899   */\n      tag_112\n      jump\t// in\n    tag_189:\n        /* \"#utility.yul\":7760:7899   */\n      swap1\n      pop\n        /* \"#utility.yul\":7487:7906   */\n      swap2\n      swap1\n      pop\n      jump\t// out\n        /* \"#utility.yul\":7912:8092   */\n    tag_113:\n        /* \"#utility.yul\":7960:8037   */\n      0x4e487b7100000000000000000000000000000000000000000000000000000000\n        /* \"#utility.yul\":7957:7958   */\n      0x00\n        /* \"#utility.yul\":7950:8038   */\n      mstore\n        /* \"#utility.yul\":8057:8061   */\n      0x11\n        /* \"#utility.yul\":8054:8055   */\n      0x04\n        /* \"#utility.yul\":8047:8062   */\n      mstore\n        /* \"#utility.yul\":8081:8085   */\n      0x24\n        /* \"#utility.yul\":8078:8079   */\n      0x00\n        /* \"#utility.yul\":8071:8086   */\n      revert\n        /* \"#utility.yul\":8098:8292   */\n    tag_61:\n        /* \"#utility.yul\":8138:8142   */\n      0x00\n        /* \"#utility.yul\":8158:8178   */\n      tag_192\n        /* \"#utility.yul\":8176:8177   */\n      dup3\n        /* \"#utility.yul\":8158:8178   */\n      tag_90\n      jump\t// in\n    tag_192:\n        /* \"#utility.yul\":8153:8178   */\n      swap2\n      pop\n        /* \"#utility.yul\":8192:8212   */\n      tag_193\n        /* \"#utility.yul\":8210:8211   */\n      dup4\n        /* \"#utility.yul\":8192:8212   */\n      tag_90\n      jump\t// in\n    tag_193:\n        /* \"#utility.yul\":8187:8212   */\n      swap3\n      pop\n        /* \"#utility.yul\":8236:8237   */\n      dup3\n        /* \"#utility.yul\":8233:8234   */\n      dup3\n        /* \"#utility.yul\":8229:8238   */\n      sub\n        /* \"#utility.yul\":8221:8238   */\n      swap1\n      pop\n        /* \"#utility.yul\":8260:8261   */\n      dup2\n        /* \"#utility.yul\":8254:8258   */\n      dup2\n        /* \"#utility.yul\":8251:8262   */\n      gt\n        /* \"#utility.yul\":8248:8285   */\n      iszero\n      tag_194\n      jumpi\n        /* \"#utility.yul\":8265:8283   */\n      tag_195\n      tag_113\n      jump\t// in\n    tag_195:\n        /* \"#utility.yul\":8248:8285   */\n    tag_194:\n        /* \"#utility.yul\":8098:8292   */\n      swap3\n      swap2\n      pop\n      pop\n      jump\t// out\n        /* \"#utility.yul\":8298:8467   */\n    tag_114:\n        /* \"#utility.yul\":8438:8459   */\n      0x596f7520617265206e6f7420616c6c6f77656400000000000000000000000000\n        /* \"#utility.yul\":8434:8435   */\n      0x00\n        /* \"#utility.yul\":8426:8432   */\n      dup3\n        /* \"#utility.yul\":8422:8436   */\n      add\n        /* \"#utility.yul\":8415:8460   */\n      mstore\n        /* \"#utility.yul\":8298:8467   */\n      pop\n      jump\t// out\n        /* \"#utility.yul\":8473:8839   */\n    tag_115:\n        /* \"#utility.yul\":8615:8618   */\n      0x00\n        /* \"#utility.yul\":8636:8703   */\n      tag_198\n        /* \"#utility.yul\":8700:8702   */\n      0x13\n        /* \"#utility.yul\":8695:8698   */\n      dup4\n        /* \"#utility.yul\":8636:8703   */\n      tag_108\n      jump\t// in\n    tag_198:\n        /* \"#utility.yul\":8629:8703   */\n      swap2\n      pop\n        /* \"#utility.yul\":8712:8805   */\n      tag_199\n        /* \"#utility.yul\":8801:8804   */\n      dup3\n        /* \"#utility.yul\":8712:8805   */\n      tag_114\n      jump\t// in\n    tag_199:\n        /* \"#utility.yul\":8830:8832   */\n      0x20\n        /* \"#utility.yul\":8825:8828   */\n      dup3\n        /* \"#utility.yul\":8821:8833   */\n      add\n        /* \"#utility.yul\":8814:8833   */\n      swap1\n      pop\n        /* \"#utility.yul\":8473:8839   */\n      swap2\n      swap1\n      pop\n      jump\t// out\n        /* \"#utility.yul\":8845:9264   */\n    tag_65:\n        /* \"#utility.yul\":9011:9015   */\n      0x00\n        /* \"#utility.yul\":9049:9051   */\n      0x20\n        /* \"#utility.yul\":9038:9047   */\n      dup3\n        /* \"#utility.yul\":9034:9052   */\n      add\n        /* \"#utility.yul\":9026:9052   */\n      swap1\n      pop\n        /* \"#utility.yul\":9098:9107   */\n      dup2\n        /* \"#utility.yul\":9092:9096   */\n      dup2\n        /* \"#utility.yul\":9088:9108   */\n      sub\n        /* \"#utility.yul\":9084:9085   */\n      0x00\n        /* \"#utility.yul\":9073:9082   */\n      dup4\n        /* \"#utility.yul\":9069:9086   */\n      add\n        /* \"#utility.yul\":9062:9109   */\n      mstore\n        /* \"#utility.yul\":9126:9257   */\n      tag_201\n        /* \"#utility.yul\":9252:9256   */\n      dup2\n        /* \"#utility.yul\":9126:9257   */\n      tag_115\n      jump\t// in\n    tag_201:\n        /* \"#utility.yul\":9118:9257   */\n      swap1\n      pop\n        /* \"#utility.yul\":8845:9264   */\n      swap2\n      swap1\n      pop\n      jump\t// out\n        /* \"#utility.yul\":9270:9461   */\n    tag_70:\n        /* \"#utility.yul\":9310:9313   */\n      0x00\n        /* \"#utility.yul\":9329:9349   */\n      tag_203\n        /* \"#utility.yul\":9347:9348   */\n      dup3\n        /* \"#utility.yul\":9329:9349   */\n      tag_90\n      jump\t// in\n    tag_203:\n        /* \"#utility.yul\":9324:9349   */\n      swap2\n      pop\n        /* \"#utility.yul\":9363:9383   */\n      tag_204\n        /* \"#utility.yul\":9381:9382   */\n      dup4\n        /* \"#utility.yul\":9363:9383   */\n      tag_90\n      jump\t// in\n    tag_204:\n        /* \"#utility.yul\":9358:9383   */\n      swap3\n      pop\n        /* \"#utility.yul\":9406:9407   */\n      dup3\n        /* \"#utility.yul\":9403:9404   */\n      dup3\n        /* \"#utility.yul\":9399:9408   */\n      add\n        /* \"#utility.yul\":9392:9408   */\n      swap1\n      pop\n        /* \"#utility.yul\":9427:9430   */\n      dup1\n        /* \"#utility.yul\":9424:9425   */\n      dup3\n        /* \"#utility.yul\":9421:9431   */\n      gt\n        /* \"#utility.yul\":9418:9454   */\n      iszero\n      tag_205\n      jumpi\n        /* \"#utility.yul\":9434:9452   */\n      tag_206\n      tag_113\n      jump\t// in\n    tag_206:\n        /* \"#utility.yul\":9418:9454   */\n    tag_205:\n        /* \"#utility.yul\":9270:9461   */\n      swap3\n      swap2\n      pop\n      pop\n      jump\t// out\n        /* \"#utility.yul\":9467:9689   */\n    tag_116:\n        /* \"#utility.yul\":9607:9641   */\n      0x4163636f756e74206e6f74207265676973746572656420696e206f7572206261\n        /* \"#utility.yul\":9603:9604   */\n      0x00\n        /* \"#utility.yul\":9595:9601   */\n      dup3\n        /* \"#utility.yul\":9591:9605   */\n      add\n        /* \"#utility.yul\":9584:9642   */\n      mstore\n        /* \"#utility.yul\":9676:9681   */\n      0x6e6b2e0000000000000000000000000000000000000000000000000000000000\n        /* \"#utility.yul\":9671:9673   */\n      0x20\n        /* \"#utility.yul\":9663:9669   */\n      dup3\n        /* \"#utility.yul\":9659:9674   */\n      add\n        /* \"#utility.yul\":9652:9682   */\n      mstore\n        /* \"#utility.yul\":9467:9689   */\n      pop\n      jump\t// out\n        /* \"#utility.yul\":9695:10061   */\n    tag_117:\n        /* \"#utility.yul\":9837:9840   */\n      0x00\n        /* \"#utility.yul\":9858:9925   */\n      tag_209\n        /* \"#utility.yul\":9922:9924   */\n      0x23\n        /* \"#utility.yul\":9917:9920   */\n      dup4\n        /* \"#utility.yul\":9858:9925   */\n      tag_108\n      jump\t// in\n    tag_209:\n        /* \"#utility.yul\":9851:9925   */\n      swap2\n      pop\n        /* \"#utility.yul\":9934:10027   */\n      tag_210\n        /* \"#utility.yul\":10023:10026   */\n      dup3\n        /* \"#utility.yul\":9934:10027   */\n      tag_116\n      jump\t// in\n    tag_210:\n        /* \"#utility.yul\":10052:10054   */\n      0x40\n        /* \"#utility.yul\":10047:10050   */\n      dup3\n        /* \"#utility.yul\":10043:10055   */\n      add\n        /* \"#utility.yul\":10036:10055   */\n      swap1\n      pop\n        /* \"#utility.yul\":9695:10061   */\n      swap2\n      swap1\n      pop\n      jump\t// out\n        /* \"#utility.yul\":10067:10486   */\n    tag_74:\n        /* \"#utility.yul\":10233:10237   */\n      0x00\n        /* \"#utility.yul\":10271:10273   */\n      0x20\n        /* \"#utility.yul\":10260:10269   */\n      dup3\n        /* \"#utility.yul\":10256:10274   */\n      add\n        /* \"#utility.yul\":10248:10274   */\n      swap1\n      pop\n        /* \"#utility.yul\":10320:10329   */\n      dup2\n        /* \"#utility.yul\":10314:10318   */\n      dup2\n        /* \"#utility.yul\":10310:10330   */\n      sub\n        /* \"#utility.yul\":10306:10307   */\n      0x00\n        /* \"#utility.yul\":10295:10304   */\n      dup4\n        /* \"#utility.yul\":10291:10308   */\n      add\n        /* \"#utility.yul\":10284:10331   */\n      mstore\n        /* \"#utility.yul\":10348:10479   */\n      tag_212\n        /* \"#utility.yul\":10474:10478   */\n      dup2\n        /* \"#utility.yul\":10348:10479   */\n      tag_117\n      jump\t// in\n    tag_212:\n        /* \"#utility.yul\":10340:10479   */\n      swap1\n      pop\n        /* \"#utility.yul\":10067:10486   */\n      swap2\n      swap1\n      pop\n      jump\t// out\n\n    auxdata: 0xa2646970667358221220e6fad40773d6349682f64f6f6ea0a9413cdcc32cf491514dde1f6ab6eb621d2664736f6c634300081e0033\n}\n",
				"bytecode": {
					"linkReferences": {},
					"object": "608060405234801561000f575f5ffd5b50335f5f6101000a81548173ffffffffffffffffffffffffffffffffffffffff021916908373ffffffffffffffffffffffffffffffffffffffff160217905550600360405180604001604052805f5f9054906101000a900473ffffffffffffffffffffffffffffffffffffffff1673ffffffffffffffffffffffffffffffffffffffff1681526020016509184e72a000815250908060018154018082558091505060019003905f5260205f2090600202015f909190919091505f820151815f015f6101000a81548173ffffffffffffffffffffffffffffffffffffffff021916908373ffffffffffffffffffffffffffffffffffffffff160217905550602082015181600101555050610d40806101255f395ff3fe608060405260043610610085575f3560e01c8063a694fc3a11610058578063a694fc3a14610110578063b559805f14610138578063da68b4b414610154578063e2842d791461015e578063f1fd08a71461018857610085565b8063189e92ae146100895780631e98fd1c1461009f57806357ea89b6146100dc578063a07eb17a146100e6575b5f5ffd5b348015610094575f5ffd5b5061009d6101b2565b005b3480156100aa575f5ffd5b506100c560048036038101906100c09190610880565b6102f0565b6040516100d39291906108f9565b60405180910390f35b6100e461033e565b005b3480156100f1575f5ffd5b506100fa61041a565b6040516101079190610920565b60405180910390f35b34801561011b575f5ffd5b5061013660048036038101906101319190610880565b6104af565b005b610152600480360381019061014d9190610963565b61057e565b005b61015c610662565b005b348015610169575f5ffd5b506101726106ba565b60405161017f9190610a81565b60405180910390f35b348015610193575f5ffd5b5061019c610802565b6040516101a99190610920565b60405180910390f35b5f60025f3373ffffffffffffffffffffffffffffffffffffffff1673ffffffffffffffffffffffffffffffffffffffff1681526020019081526020015f205f6101000a81548160ff0219169083151502179055610244576040517f08c379a000000000000000000000000000000000000000000000000000000000815260040161023b90610afb565b60405180910390fd5b5f60405180604001604052803373ffffffffffffffffffffffffffffffffffffffff1681526020016113888152509050600381908060018154018082558091505060019003905f5260205f2090600202015f909190919091505f820151815f015f6101000a81548173ffffffffffffffffffffffffffffffffffffffff021916908373ffffffffffffffffffffffffffffffffffffffff16021790555060208201518160010155505050565b600381815481106102ff575f80fd5b905f5260205f2090600202015f91509050805f015f9054906101000a900473ffffffffffffffffffffffffffffffffffffffff16908060010154905082565b3460015f3373ffffffffffffffffffffffffffffffffffffffff1673ffffffffffffffffffffffffffffffffffffffff1681526020019081526020015f206001015481106103c1576040517f08c379a00000000000000000000000000000000000000000000000000000000081526004016103b890610b63565b60405180910390fd5b3460015f3373ffffffffffffffffffffffffffffffffffffffff1673ffffffffffffffffffffffffffffffffffffffff1681526020019081526020015f206001015f8282546104109190610bae565b9250508190555050565b5f5f5f9054906101000a900473ffffffffffffffffffffffffffffffffffffffff1673ffffffffffffffffffffffffffffffffffffffff163373ffffffffffffffffffffffffffffffffffffffff16146104a9576040517f08c379a00000000000000000000000000000000000000000000000000000000081526004016104a090610c2b565b60405180910390fd5b47905090565b8060015f3373ffffffffffffffffffffffffffffffffffffffff1673ffffffffffffffffffffffffffffffffffffffff1681526020019081526020015f206001015f8282546104fe9190610bae565b925050819055508060015f5f5f9054906101000a900473ffffffffffffffffffffffffffffffffffffffff1673ffffffffffffffffffffffffffffffffffffffff1673ffffffffffffffffffffffffffffffffffffffff1681526020019081526020015f206001015f8282546105749190610c49565b9250508190555050565b8060025f8273ffffffffffffffffffffffffffffffffffffffff1673ffffffffffffffffffffffffffffffffffffffff1681526020019081526020015f205f9054906101000a900460ff16610608576040517f08c379a00000000000000000000000000000000000000000000000000000000081526004016105ff90610cec565b60405180910390fd5b3460015f8473ffffffffffffffffffffffffffffffffffffffff1673ffffffffffffffffffffffffffffffffffffffff1681526020019081526020015f206001015f8282546106579190610c49565b925050819055505050565b3460015f3373ffffffffffffffffffffffffffffffffffffffff1673ffffffffffffffffffffffffffffffffffffffff1681526020019081526020015f206001015f8282546106b19190610c49565b92505081905550565b60605f5f9054906101000a900473ffffffffffffffffffffffffffffffffffffffff1673ffffffffffffffffffffffffffffffffffffffff163373ffffffffffffffffffffffffffffffffffffffff161461074a576040517f08c379a000000000000000000000000000000000000000000000000000000000815260040161074190610c2b565b60405180910390fd5b6003805480602002602001604051908101604052809291908181526020015f905b828210156107f9578382905f5260205f2090600202016040518060400160405290815f82015f9054906101000a900473ffffffffffffffffffffffffffffffffffffffff1673ffffffffffffffffffffffffffffffffffffffff1673ffffffffffffffffffffffffffffffffffffffff1681526020016001820154815250508152602001906001019061076b565b50505050905090565b5f60015f3373ffffffffffffffffffffffffffffffffffffffff1673ffffffffffffffffffffffffffffffffffffffff1681526020019081526020015f2060010154905090565b5f5ffd5b5f819050919050565b61085f8161084d565b8114610869575f5ffd5b50565b5f8135905061087a81610856565b92915050565b5f6020828403121561089557610894610849565b5b5f6108a28482850161086c565b91505092915050565b5f73ffffffffffffffffffffffffffffffffffffffff82169050919050565b5f6108d4826108ab565b9050919050565b6108e4816108ca565b82525050565b6108f38161084d565b82525050565b5f60408201905061090c5f8301856108db565b61091960208301846108ea565b9392505050565b5f6020820190506109335f8301846108ea565b92915050565b610942816108ca565b811461094c575f5ffd5b50565b5f8135905061095d81610939565b92915050565b5f6020828403121561097857610977610849565b5b5f6109858482850161094f565b91505092915050565b5f81519050919050565b5f82825260208201905092915050565b5f819050602082019050919050565b6109c0816108ca565b82525050565b6109cf8161084d565b82525050565b604082015f8201516109e95f8501826109b7565b5060208201516109fc60208501826109c6565b50505050565b5f610a0d83836109d5565b60408301905092915050565b5f602082019050919050565b5f610a2f8261098e565b610a398185610998565b9350610a44836109a8565b805f5b83811015610a74578151610a5b8882610a02565b9750610a6683610a19565b925050600181019050610a47565b5085935050505092915050565b5f6020820190508181035f830152610a998184610a25565b905092915050565b5f82825260208201905092915050565b7f4163636f756e7420616c726561647920726567697374657265640000000000005f82015250565b5f610ae5601a83610aa1565b9150610af082610ab1565b602082019050919050565b5f6020820190508181035f830152610b1281610ad9565b9050919050565b7f496e7375666669656369656e742042616c616e636500000000000000000000005f82015250565b5f610b4d601583610aa1565b9150610b5882610b19565b602082019050919050565b5f6020820190508181035f830152610b7a81610b41565b9050919050565b7f4e487b71000000000000000000000000000000000000000000000000000000005f52601160045260245ffd5b5f610bb88261084d565b9150610bc38361084d565b9250828203905081811115610bdb57610bda610b81565b5b92915050565b7f596f7520617265206e6f7420616c6c6f776564000000000000000000000000005f82015250565b5f610c15601383610aa1565b9150610c2082610be1565b602082019050919050565b5f6020820190508181035f830152610c4281610c09565b9050919050565b5f610c538261084d565b9150610c5e8361084d565b9250828201905080821115610c7657610c75610b81565b5b92915050565b7f4163636f756e74206e6f74207265676973746572656420696e206f75722062615f8201527f6e6b2e0000000000000000000000000000000000000000000000000000000000602082015250565b5f610cd6602383610aa1565b9150610ce182610c7c565b604082019050919050565b5f6020820190508181035f830152610d0381610cca565b905091905056fea2646970667358221220e6fad40773d6349682f64f6f6ea0a9413cdcc32cf491514dde1f6ab6eb621d2664736f6c634300081e0033",
					"opcodes": "PUSH1 0x80 PUSH1 0x40 MSTORE CALLVALUE DUP1 ISZERO PUSH2 0xF JUMPI PUSH0 PUSH0 REVERT JUMPDEST POP CALLER PUSH0 PUSH0 PUSH2 0x100 EXP DUP2 SLOAD DUP2 PUSH20 0xFFFFFFFFFFFFFFFFFFFFFFFFFFFFFFFFFFFFFFFF MUL NOT AND SWAP1 DUP4 PUSH20 0xFFFFFFFFFFFFFFFFFFFFFFFFFFFFFFFFFFFFFFFF AND MUL OR SWAP1 SSTORE POP PUSH1 0x3 PUSH1 0x40 MLOAD DUP1 PUSH1 0x40 ADD PUSH1 0x40 MSTORE DUP1 PUSH0 PUSH0 SWAP1 SLOAD SWAP1 PUSH2 0x100 EXP SWAP1 DIV PUSH20 0xFFFFFFFFFFFFFFFFFFFFFFFFFFFFFFFFFFFFFFFF AND PUSH20 0xFFFFFFFFFFFFFFFFFFFFFFFFFFFFFFFFFFFFFFFF AND DUP2 MSTORE PUSH1 0x20 ADD PUSH6 0x9184E72A000 DUP2 MSTORE POP SWAP1 DUP1 PUSH1 0x1 DUP2 SLOAD ADD DUP1 DUP3 SSTORE DUP1 SWAP2 POP POP PUSH1 0x1 SWAP1 SUB SWAP1 PUSH0 MSTORE PUSH1 0x20 PUSH0 KECCAK256 SWAP1 PUSH1 0x2 MUL ADD PUSH0 SWAP1 SWAP2 SWAP1 SWAP2 SWAP1 SWAP2 POP PUSH0 DUP3 ADD MLOAD DUP2 PUSH0 ADD PUSH0 PUSH2 0x100 EXP DUP2 SLOAD DUP2 PUSH20 0xFFFFFFFFFFFFFFFFFFFFFFFFFFFFFFFFFFFFFFFF MUL NOT AND SWAP1 DUP4 PUSH20 0xFFFFFFFFFFFFFFFFFFFFFFFFFFFFFFFFFFFFFFFF AND MUL OR SWAP1 SSTORE POP PUSH1 0x20 DUP3 ADD MLOAD DUP2 PUSH1 0x1 ADD SSTORE POP POP PUSH2 0xD40 DUP1 PUSH2 0x125 PUSH0 CODECOPY PUSH0 RETURN INVALID PUSH1 0x80 PUSH1 0x40 MSTORE PUSH1 0x4 CALLDATASIZE LT PUSH2 0x85 JUMPI PUSH0 CALLDATALOAD PUSH1 0xE0 SHR DUP1 PUSH4 0xA694FC3A GT PUSH2 0x58 JUMPI DUP1 PUSH4 0xA694FC3A EQ PUSH2 0x110 JUMPI DUP1 PUSH4 0xB559805F EQ PUSH2 0x138 JUMPI DUP1 PUSH4 0xDA68B4B4 EQ PUSH2 0x154 JUMPI DUP1 PUSH4 0xE2842D79 EQ PUSH2 0x15E JUMPI DUP1 PUSH4 0xF1FD08A7 EQ PUSH2 0x188 JUMPI PUSH2 0x85 JUMP JUMPDEST DUP1 PUSH4 0x189E92AE EQ PUSH2 0x89 JUMPI DUP1 PUSH4 0x1E98FD1C EQ PUSH2 0x9F JUMPI DUP1 PUSH4 0x57EA89B6 EQ PUSH2 0xDC JUMPI DUP1 PUSH4 0xA07EB17A EQ PUSH2 0xE6 JUMPI JUMPDEST PUSH0 PUSH0 REVERT JUMPDEST CALLVALUE DUP1 ISZERO PUSH2 0x94 JUMPI PUSH0 PUSH0 REVERT JUMPDEST POP PUSH2 0x9D PUSH2 0x1B2 JUMP JUMPDEST STOP JUMPDEST CALLVALUE DUP1 ISZERO PUSH2 0xAA JUMPI PUSH0 PUSH0 REVERT JUMPDEST POP PUSH2 0xC5 PUSH1 0x4 DUP1 CALLDATASIZE SUB DUP2 ADD SWAP1 PUSH2 0xC0 SWAP2 SWAP1 PUSH2 0x880 JUMP JUMPDEST PUSH2 0x2F0 JUMP JUMPDEST PUSH1 0x40 MLOAD PUSH2 0xD3 SWAP3 SWAP2 SWAP1 PUSH2 0x8F9 JUMP JUMPDEST PUSH1 0x40 MLOAD DUP1 SWAP2 SUB SWAP1 RETURN JUMPDEST PUSH2 0xE4 PUSH2 0x33E JUMP JUMPDEST STOP JUMPDEST CALLVALUE DUP1 ISZERO PUSH2 0xF1 JUMPI PUSH0 PUSH0 REVERT JUMPDEST POP PUSH2 0xFA PUSH2 0x41A JUMP JUMPDEST PUSH1 0x40 MLOAD PUSH2 0x107 SWAP2 SWAP1 PUSH2 0x920 JUMP JUMPDEST PUSH1 0x40 MLOAD DUP1 SWAP2 SUB SWAP1 RETURN JUMPDEST CALLVALUE DUP1 ISZERO PUSH2 0x11B JUMPI PUSH0 PUSH0 REVERT JUMPDEST POP PUSH2 0x136 PUSH1 0x4 DUP1 CALLDATASIZE SUB DUP2 ADD SWAP1 PUSH2 0x131 SWAP2 SWAP1 PUSH2 0x880 JUMP JUMPDEST PUSH2 0x4AF JUMP JUMPDEST STOP JUMPDEST PUSH2 0x152 PUSH1 0x4 DUP1 CALLDATASIZE SUB DUP2 ADD SWAP1 PUSH2 0x14D SWAP2 SWAP1 PUSH2 0x963 JUMP JUMPDEST PUSH2 0x57E JUMP JUMPDEST STOP JUMPDEST PUSH2 0x15C PUSH2 0x662 JUMP JUMPDEST STOP JUMPDEST CALLVALUE DUP1 ISZERO PUSH2 0x169 JUMPI PUSH0 PUSH0 REVERT JUMPDEST POP PUSH2 0x172 PUSH2 0x6BA JUMP JUMPDEST PUSH1 0x40 MLOAD PUSH2 0x17F SWAP2 SWAP1 PUSH2 0xA81 JUMP JUMPDEST PUSH1 0x40 MLOAD DUP1 SWAP2 SUB SWAP1 RETURN JUMPDEST CALLVALUE DUP1 ISZERO PUSH2 0x193 JUMPI PUSH0 PUSH0 REVERT JUMPDEST POP PUSH2 0x19C PUSH2 0x802 JUMP JUMPDEST PUSH1 0x40 MLOAD PUSH2 0x1A9 SWAP2 SWAP1 PUSH2 0x920 JUMP JUMPDEST PUSH1 0x40 MLOAD DUP1 SWAP2 SUB SWAP1 RETURN JUMPDEST PUSH0 PUSH1 0x2 PUSH0 CALLER PUSH20 0xFFFFFFFFFFFFFFFFFFFFFFFFFFFFFFFFFFFFFFFF AND PUSH20 0xFFFFFFFFFFFFFFFFFFFFFFFFFFFFFFFFFFFFFFFF AND DUP2 MSTORE PUSH1 0x20 ADD SWAP1 DUP2 MSTORE PUSH1 0x20 ADD PUSH0 KECCAK256 PUSH0 PUSH2 0x100 EXP DUP2 SLOAD DUP2 PUSH1 0xFF MUL NOT AND SWAP1 DUP4 ISZERO ISZERO MUL OR SWAP1 SSTORE PUSH2 0x244 JUMPI PUSH1 0x40 MLOAD PUSH32 0x8C379A000000000000000000000000000000000000000000000000000000000 DUP2 MSTORE PUSH1 0x4 ADD PUSH2 0x23B SWAP1 PUSH2 0xAFB JUMP JUMPDEST PUSH1 0x40 MLOAD DUP1 SWAP2 SUB SWAP1 REVERT JUMPDEST PUSH0 PUSH1 0x40 MLOAD DUP1 PUSH1 0x40 ADD PUSH1 0x40 MSTORE DUP1 CALLER PUSH20 0xFFFFFFFFFFFFFFFFFFFFFFFFFFFFFFFFFFFFFFFF AND DUP2 MSTORE PUSH1 0x20 ADD PUSH2 0x1388 DUP2 MSTORE POP SWAP1 POP PUSH1 0x3 DUP2 SWAP1 DUP1 PUSH1 0x1 DUP2 SLOAD ADD DUP1 DUP3 SSTORE DUP1 SWAP2 POP POP PUSH1 0x1 SWAP1 SUB SWAP1 PUSH0 MSTORE PUSH1 0x20 PUSH0 KECCAK256 SWAP1 PUSH1 0x2 MUL ADD PUSH0 SWAP1 SWAP2 SWAP1 SWAP2 SWAP1 SWAP2 POP PUSH0 DUP3 ADD MLOAD DUP2 PUSH0 ADD PUSH0 PUSH2 0x100 EXP DUP2 SLOAD DUP2 PUSH20 0xFFFFFFFFFFFFFFFFFFFFFFFFFFFFFFFFFFFFFFFF MUL NOT AND SWAP1 DUP4 PUSH20 0xFFFFFFFFFFFFFFFFFFFFFFFFFFFFFFFFFFFFFFFF AND MUL OR SWAP1 SSTORE POP PUSH1 0x20 DUP3 ADD MLOAD DUP2 PUSH1 0x1 ADD SSTORE POP POP POP JUMP JUMPDEST PUSH1 0x3 DUP2 DUP2 SLOAD DUP2 LT PUSH2 0x2FF JUMPI PUSH0 DUP1 REVERT JUMPDEST SWAP1 PUSH0 MSTORE PUSH1 0x20 PUSH0 KECCAK256 SWAP1 PUSH1 0x2 MUL ADD PUSH0 SWAP2 POP SWAP1 POP DUP1 PUSH0 ADD PUSH0 SWAP1 SLOAD SWAP1 PUSH2 0x100 EXP SWAP1 DIV PUSH20 0xFFFFFFFFFFFFFFFFFFFFFFFFFFFFFFFFFFFFFFFF AND SWAP1 DUP1 PUSH1 0x1 ADD SLOAD SWAP1 POP DUP3 JUMP JUMPDEST CALLVALUE PUSH1 0x1 PUSH0 CALLER PUSH20 0xFFFFFFFFFFFFFFFFFFFFFFFFFFFFFFFFFFFFFFFF AND PUSH20 0xFFFFFFFFFFFFFFFFFFFFFFFFFFFFFFFFFFFFFFFF AND DUP2 MSTORE PUSH1 0x20 ADD SWAP1 DUP2 MSTORE PUSH1 0x20 ADD PUSH0 KECCAK256 PUSH1 0x1 ADD SLOAD DUP2 LT PUSH2 0x3C1 JUMPI PUSH1 0x40 MLOAD PUSH32 0x8C379A000000000000000000000000000000000000000000000000000000000 DUP2 MSTORE PUSH1 0x4 ADD PUSH2 0x3B8 SWAP1 PUSH2 0xB63 JUMP JUMPDEST PUSH1 0x40 MLOAD DUP1 SWAP2 SUB SWAP1 REVERT JUMPDEST CALLVALUE PUSH1 0x1 PUSH0 CALLER PUSH20 0xFFFFFFFFFFFFFFFFFFFFFFFFFFFFFFFFFFFFFFFF AND PUSH20 0xFFFFFFFFFFFFFFFFFFFFFFFFFFFFFFFFFFFFFFFF AND DUP2 MSTORE PUSH1 0x20 ADD SWAP1 DUP2 MSTORE PUSH1 0x20 ADD PUSH0 KECCAK256 PUSH1 0x1 ADD PUSH0 DUP3 DUP3 SLOAD PUSH2 0x410 SWAP2 SWAP1 PUSH2 0xBAE JUMP JUMPDEST SWAP3 POP POP DUP2 SWAP1 SSTORE POP POP JUMP JUMPDEST PUSH0 PUSH0 PUSH0 SWAP1 SLOAD SWAP1 PUSH2 0x100 EXP SWAP1 DIV PUSH20 0xFFFFFFFFFFFFFFFFFFFFFFFFFFFFFFFFFFFFFFFF AND PUSH20 0xFFFFFFFFFFFFFFFFFFFFFFFFFFFFFFFFFFFFFFFF AND CALLER PUSH20 0xFFFFFFFFFFFFFFFFFFFFFFFFFFFFFFFFFFFFFFFF AND EQ PUSH2 0x4A9 JUMPI PUSH1 0x40 MLOAD PUSH32 0x8C379A000000000000000000000000000000000000000000000000000000000 DUP2 MSTORE PUSH1 0x4 ADD PUSH2 0x4A0 SWAP1 PUSH2 0xC2B JUMP JUMPDEST PUSH1 0x40 MLOAD DUP1 SWAP2 SUB SWAP1 REVERT JUMPDEST SELFBALANCE SWAP1 POP SWAP1 JUMP JUMPDEST DUP1 PUSH1 0x1 PUSH0 CALLER PUSH20 0xFFFFFFFFFFFFFFFFFFFFFFFFFFFFFFFFFFFFFFFF AND PUSH20 0xFFFFFFFFFFFFFFFFFFFFFFFFFFFFFFFFFFFFFFFF AND DUP2 MSTORE PUSH1 0x20 ADD SWAP1 DUP2 MSTORE PUSH1 0x20 ADD PUSH0 KECCAK256 PUSH1 0x1 ADD PUSH0 DUP3 DUP3 SLOAD PUSH2 0x4FE SWAP2 SWAP1 PUSH2 0xBAE JUMP JUMPDEST SWAP3 POP POP DUP2 SWAP1 SSTORE POP DUP1 PUSH1 0x1 PUSH0 PUSH0 PUSH0 SWAP1 SLOAD SWAP1 PUSH2 0x100 EXP SWAP1 DIV PUSH20 0xFFFFFFFFFFFFFFFFFFFFFFFFFFFFFFFFFFFFFFFF AND PUSH20 0xFFFFFFFFFFFFFFFFFFFFFFFFFFFFFFFFFFFFFFFF AND PUSH20 0xFFFFFFFFFFFFFFFFFFFFFFFFFFFFFFFFFFFFFFFF AND DUP2 MSTORE PUSH1 0x20 ADD SWAP1 DUP2 MSTORE PUSH1 0x20 ADD PUSH0 KECCAK256 PUSH1 0x1 ADD PUSH0 DUP3 DUP3 SLOAD PUSH2 0x574 SWAP2 SWAP1 PUSH2 0xC49 JUMP JUMPDEST SWAP3 POP POP DUP2 SWAP1 SSTORE POP POP JUMP JUMPDEST DUP1 PUSH1 0x2 PUSH0 DUP3 PUSH20 0xFFFFFFFFFFFFFFFFFFFFFFFFFFFFFFFFFFFFFFFF AND PUSH20 0xFFFFFFFFFFFFFFFFFFFFFFFFFFFFFFFFFFFFFFFF AND DUP2 MSTORE PUSH1 0x20 ADD SWAP1 DUP2 MSTORE PUSH1 0x20 ADD PUSH0 KECCAK256 PUSH0 SWAP1 SLOAD SWAP1 PUSH2 0x100 EXP SWAP1 DIV PUSH1 0xFF AND PUSH2 0x608 JUMPI PUSH1 0x40 MLOAD PUSH32 0x8C379A000000000000000000000000000000000000000000000000000000000 DUP2 MSTORE PUSH1 0x4 ADD PUSH2 0x5FF SWAP1 PUSH2 0xCEC JUMP JUMPDEST PUSH1 0x40 MLOAD DUP1 SWAP2 SUB SWAP1 REVERT JUMPDEST CALLVALUE PUSH1 0x1 PUSH0 DUP5 PUSH20 0xFFFFFFFFFFFFFFFFFFFFFFFFFFFFFFFFFFFFFFFF AND PUSH20 0xFFFFFFFFFFFFFFFFFFFFFFFFFFFFFFFFFFFFFFFF AND DUP2 MSTORE PUSH1 0x20 ADD SWAP1 DUP2 MSTORE PUSH1 0x20 ADD PUSH0 KECCAK256 PUSH1 0x1 ADD PUSH0 DUP3 DUP3 SLOAD PUSH2 0x657 SWAP2 SWAP1 PUSH2 0xC49 JUMP JUMPDEST SWAP3 POP POP DUP2 SWAP1 SSTORE POP POP POP JUMP JUMPDEST CALLVALUE PUSH1 0x1 PUSH0 CALLER PUSH20 0xFFFFFFFFFFFFFFFFFFFFFFFFFFFFFFFFFFFFFFFF AND PUSH20 0xFFFFFFFFFFFFFFFFFFFFFFFFFFFFFFFFFFFFFFFF AND DUP2 MSTORE PUSH1 0x20 ADD SWAP1 DUP2 MSTORE PUSH1 0x20 ADD PUSH0 KECCAK256 PUSH1 0x1 ADD PUSH0 DUP3 DUP3 SLOAD PUSH2 0x6B1 SWAP2 SWAP1 PUSH2 0xC49 JUMP JUMPDEST SWAP3 POP POP DUP2 SWAP1 SSTORE POP JUMP JUMPDEST PUSH1 0x60 PUSH0 PUSH0 SWAP1 SLOAD SWAP1 PUSH2 0x100 EXP SWAP1 DIV PUSH20 0xFFFFFFFFFFFFFFFFFFFFFFFFFFFFFFFFFFFFFFFF AND PUSH20 0xFFFFFFFFFFFFFFFFFFFFFFFFFFFFFFFFFFFFFFFF AND CALLER PUSH20 0xFFFFFFFFFFFFFFFFFFFFFFFFFFFFFFFFFFFFFFFF AND EQ PUSH2 0x74A JUMPI PUSH1 0x40 MLOAD PUSH32 0x8C379A000000000000000000000000000000000000000000000000000000000 DUP2 MSTORE PUSH1 0x4 ADD PUSH2 0x741 SWAP1 PUSH2 0xC2B JUMP JUMPDEST PUSH1 0x40 MLOAD DUP1 SWAP2 SUB SWAP1 REVERT JUMPDEST PUSH1 0x3 DUP1 SLOAD DUP1 PUSH1 0x20 MUL PUSH1 0x20 ADD PUSH1 0x40 MLOAD SWAP1 DUP2 ADD PUSH1 0x40 MSTORE DUP1 SWAP3 SWAP2 SWAP1 DUP2 DUP2 MSTORE PUSH1 0x20 ADD PUSH0 SWAP1 JUMPDEST DUP3 DUP3 LT ISZERO PUSH2 0x7F9 JUMPI DUP4 DUP3 SWAP1 PUSH0 MSTORE PUSH1 0x20 PUSH0 KECCAK256 SWAP1 PUSH1 0x2 MUL ADD PUSH1 0x40 MLOAD DUP1 PUSH1 0x40 ADD PUSH1 0x40 MSTORE SWAP1 DUP2 PUSH0 DUP3 ADD PUSH0 SWAP1 SLOAD SWAP1 PUSH2 0x100 EXP SWAP1 DIV PUSH20 0xFFFFFFFFFFFFFFFFFFFFFFFFFFFFFFFFFFFFFFFF AND PUSH20 0xFFFFFFFFFFFFFFFFFFFFFFFFFFFFFFFFFFFFFFFF AND PUSH20 0xFFFFFFFFFFFFFFFFFFFFFFFFFFFFFFFFFFFFFFFF AND DUP2 MSTORE PUSH1 0x20 ADD PUSH1 0x1 DUP3 ADD SLOAD DUP2 MSTORE POP POP DUP2 MSTORE PUSH1 0x20 ADD SWAP1 PUSH1 0x1 ADD SWAP1 PUSH2 0x76B JUMP JUMPDEST POP POP POP POP SWAP1 POP SWAP1 JUMP JUMPDEST PUSH0 PUSH1 0x1 PUSH0 CALLER PUSH20 0xFFFFFFFFFFFFFFFFFFFFFFFFFFFFFFFFFFFFFFFF AND PUSH20 0xFFFFFFFFFFFFFFFFFFFFFFFFFFFFFFFFFFFFFFFF AND DUP2 MSTORE PUSH1 0x20 ADD SWAP1 DUP2 MSTORE PUSH1 0x20 ADD PUSH0 KECCAK256 PUSH1 0x1 ADD SLOAD SWAP1 POP SWAP1 JUMP JUMPDEST PUSH0 PUSH0 REVERT JUMPDEST PUSH0 DUP2 SWAP1 POP SWAP2 SWAP1 POP JUMP JUMPDEST PUSH2 0x85F DUP2 PUSH2 0x84D JUMP JUMPDEST DUP2 EQ PUSH2 0x869 JUMPI PUSH0 PUSH0 REVERT JUMPDEST POP JUMP JUMPDEST PUSH0 DUP2 CALLDATALOAD SWAP1 POP PUSH2 0x87A DUP2 PUSH2 0x856 JUMP JUMPDEST SWAP3 SWAP2 POP POP JUMP JUMPDEST PUSH0 PUSH1 0x20 DUP3 DUP5 SUB SLT ISZERO PUSH2 0x895 JUMPI PUSH2 0x894 PUSH2 0x849 JUMP JUMPDEST JUMPDEST PUSH0 PUSH2 0x8A2 DUP5 DUP3 DUP6 ADD PUSH2 0x86C JUMP JUMPDEST SWAP2 POP POP SWAP3 SWAP2 POP POP JUMP JUMPDEST PUSH0 PUSH20 0xFFFFFFFFFFFFFFFFFFFFFFFFFFFFFFFFFFFFFFFF DUP3 AND SWAP1 POP SWAP2 SWAP1 POP JUMP JUMPDEST PUSH0 PUSH2 0x8D4 DUP3 PUSH2 0x8AB JUMP JUMPDEST SWAP1 POP SWAP2 SWAP1 POP JUMP JUMPDEST PUSH2 0x8E4 DUP2 PUSH2 0x8CA JUMP JUMPDEST DUP3 MSTORE POP POP JUMP JUMPDEST PUSH2 0x8F3 DUP2 PUSH2 0x84D JUMP JUMPDEST DUP3 MSTORE POP POP JUMP JUMPDEST PUSH0 PUSH1 0x40 DUP3 ADD SWAP1 POP PUSH2 0x90C PUSH0 DUP4 ADD DUP6 PUSH2 0x8DB JUMP JUMPDEST PUSH2 0x919 PUSH1 0x20 DUP4 ADD DUP5 PUSH2 0x8EA JUMP JUMPDEST SWAP4 SWAP3 POP POP POP JUMP JUMPDEST PUSH0 PUSH1 0x20 DUP3 ADD SWAP1 POP PUSH2 0x933 PUSH0 DUP4 ADD DUP5 PUSH2 0x8EA JUMP JUMPDEST SWAP3 SWAP2 POP POP JUMP JUMPDEST PUSH2 0x942 DUP2 PUSH2 0x8CA JUMP JUMPDEST DUP2 EQ PUSH2 0x94C JUMPI PUSH0 PUSH0 REVERT JUMPDEST POP JUMP JUMPDEST PUSH0 DUP2 CALLDATALOAD SWAP1 POP PUSH2 0x95D DUP2 PUSH2 0x939 JUMP JUMPDEST SWAP3 SWAP2 POP POP JUMP JUMPDEST PUSH0 PUSH1 0x20 DUP3 DUP5 SUB SLT ISZERO PUSH2 0x978 JUMPI PUSH2 0x977 PUSH2 0x849 JUMP JUMPDEST JUMPDEST PUSH0 PUSH2 0x985 DUP5 DUP3 DUP6 ADD PUSH2 0x94F JUMP JUMPDEST SWAP2 POP POP SWAP3 SWAP2 POP POP JUMP JUMPDEST PUSH0 DUP2 MLOAD SWAP1 POP SWAP2 SWAP1 POP JUMP JUMPDEST PUSH0 DUP3 DUP3 MSTORE PUSH1 0x20 DUP3 ADD SWAP1 POP SWAP3 SWAP2 POP POP JUMP JUMPDEST PUSH0 DUP2 SWAP1 POP PUSH1 0x20 DUP3 ADD SWAP1 POP SWAP2 SWAP1 POP JUMP JUMPDEST PUSH2 0x9C0 DUP2 PUSH2 0x8CA JUMP JUMPDEST DUP3 MSTORE POP POP JUMP JUMPDEST PUSH2 0x9CF DUP2 PUSH2 0x84D JUMP JUMPDEST DUP3 MSTORE POP POP JUMP JUMPDEST PUSH1 0x40 DUP3 ADD PUSH0 DUP3 ADD MLOAD PUSH2 0x9E9 PUSH0 DUP6 ADD DUP3 PUSH2 0x9B7 JUMP JUMPDEST POP PUSH1 0x20 DUP3 ADD MLOAD PUSH2 0x9FC PUSH1 0x20 DUP6 ADD DUP3 PUSH2 0x9C6 JUMP JUMPDEST POP POP POP POP JUMP JUMPDEST PUSH0 PUSH2 0xA0D DUP4 DUP4 PUSH2 0x9D5 JUMP JUMPDEST PUSH1 0x40 DUP4 ADD SWAP1 POP SWAP3 SWAP2 POP POP JUMP JUMPDEST PUSH0 PUSH1 0x20 DUP3 ADD SWAP1 POP SWAP2 SWAP1 POP JUMP JUMPDEST PUSH0 PUSH2 0xA2F DUP3 PUSH2 0x98E JUMP JUMPDEST PUSH2 0xA39 DUP2 DUP6 PUSH2 0x998 JUMP JUMPDEST SWAP4 POP PUSH2 0xA44 DUP4 PUSH2 0x9A8 JUMP JUMPDEST DUP1 PUSH0 JUMPDEST DUP4 DUP2 LT ISZERO PUSH2 0xA74 JUMPI DUP2 MLOAD PUSH2 0xA5B DUP9 DUP3 PUSH2 0xA02 JUMP JUMPDEST SWAP8 POP PUSH2 0xA66 DUP4 PUSH2 0xA19 JUMP JUMPDEST SWAP3 POP POP PUSH1 0x1 DUP2 ADD SWAP1 POP PUSH2 0xA47 JUMP JUMPDEST POP DUP6 SWAP4 POP POP POP POP SWAP3 SWAP2 POP POP JUMP JUMPDEST PUSH0 PUSH1 0x20 DUP3 ADD SWAP1 POP DUP2 DUP2 SUB PUSH0 DUP4 ADD MSTORE PUSH2 0xA99 DUP2 DUP5 PUSH2 0xA25 JUMP JUMPDEST SWAP1 POP SWAP3 SWAP2 POP POP JUMP JUMPDEST PUSH0 DUP3 DUP3 MSTORE PUSH1 0x20 DUP3 ADD SWAP1 POP SWAP3 SWAP2 POP POP JUMP JUMPDEST PUSH32 0x4163636F756E7420616C72656164792072656769737465726564000000000000 PUSH0 DUP3 ADD MSTORE POP JUMP JUMPDEST PUSH0 PUSH2 0xAE5 PUSH1 0x1A DUP4 PUSH2 0xAA1 JUMP JUMPDEST SWAP2 POP PUSH2 0xAF0 DUP3 PUSH2 0xAB1 JUMP JUMPDEST PUSH1 0x20 DUP3 ADD SWAP1 POP SWAP2 SWAP1 POP JUMP JUMPDEST PUSH0 PUSH1 0x20 DUP3 ADD SWAP1 POP DUP2 DUP2 SUB PUSH0 DUP4 ADD MSTORE PUSH2 0xB12 DUP2 PUSH2 0xAD9 JUMP JUMPDEST SWAP1 POP SWAP2 SWAP1 POP JUMP JUMPDEST PUSH32 0x496E7375666669656369656E742042616C616E63650000000000000000000000 PUSH0 DUP3 ADD MSTORE POP JUMP JUMPDEST PUSH0 PUSH2 0xB4D PUSH1 0x15 DUP4 PUSH2 0xAA1 JUMP JUMPDEST SWAP2 POP PUSH2 0xB58 DUP3 PUSH2 0xB19 JUMP JUMPDEST PUSH1 0x20 DUP3 ADD SWAP1 POP SWAP2 SWAP1 POP JUMP JUMPDEST PUSH0 PUSH1 0x20 DUP3 ADD SWAP1 POP DUP2 DUP2 SUB PUSH0 DUP4 ADD MSTORE PUSH2 0xB7A DUP2 PUSH2 0xB41 JUMP JUMPDEST SWAP1 POP SWAP2 SWAP1 POP JUMP JUMPDEST PUSH32 0x4E487B7100000000000000000000000000000000000000000000000000000000 PUSH0 MSTORE PUSH1 0x11 PUSH1 0x4 MSTORE PUSH1 0x24 PUSH0 REVERT JUMPDEST PUSH0 PUSH2 0xBB8 DUP3 PUSH2 0x84D JUMP JUMPDEST SWAP2 POP PUSH2 0xBC3 DUP4 PUSH2 0x84D JUMP JUMPDEST SWAP3 POP DUP3 DUP3 SUB SWAP1 POP DUP2 DUP2 GT ISZERO PUSH2 0xBDB JUMPI PUSH2 0xBDA PUSH2 0xB81 JUMP JUMPDEST JUMPDEST SWAP3 SWAP2 POP POP JUMP JUMPDEST PUSH32 0x596F7520617265206E6F7420616C6C6F77656400000000000000000000000000 PUSH0 DUP3 ADD MSTORE POP JUMP JUMPDEST PUSH0 PUSH2 0xC15 PUSH1 0x13 DUP4 PUSH2 0xAA1 JUMP JUMPDEST SWAP2 POP PUSH2 0xC20 DUP3 PUSH2 0xBE1 JUMP JUMPDEST PUSH1 0x20 DUP3 ADD SWAP1 POP SWAP2 SWAP1 POP JUMP JUMPDEST PUSH0 PUSH1 0x20 DUP3 ADD SWAP1 POP DUP2 DUP2 SUB PUSH0 DUP4 ADD MSTORE PUSH2 0xC42 DUP2 PUSH2 0xC09 JUMP JUMPDEST SWAP1 POP SWAP2 SWAP1 POP JUMP JUMPDEST PUSH0 PUSH2 0xC53 DUP3 PUSH2 0x84D JUMP JUMPDEST SWAP2 POP PUSH2 0xC5E DUP4 PUSH2 0x84D JUMP JUMPDEST SWAP3 POP DUP3 DUP3 ADD SWAP1 POP DUP1 DUP3 GT ISZERO PUSH2 0xC76 JUMPI PUSH2 0xC75 PUSH2 0xB81 JUMP JUMPDEST JUMPDEST SWAP3 SWAP2 POP POP JUMP JUMPDEST PUSH32 0x4163636F756E74206E6F74207265676973746572656420696E206F7572206261 PUSH0 DUP3 ADD MSTORE PUSH32 0x6E6B2E0000000000000000000000000000000000000000000000000000000000 PUSH1 0x20 DUP3 ADD MSTORE POP JUMP JUMPDEST PUSH0 PUSH2 0xCD6 PUSH1 0x23 DUP4 PUSH2 0xAA1 JUMP JUMPDEST SWAP2 POP PUSH2 0xCE1 DUP3 PUSH2 0xC7C JUMP JUMPDEST PUSH1 0x40 DUP3 ADD SWAP1 POP SWAP2 SWAP1 POP JUMP JUMPDEST PUSH0 PUSH1 0x20 DUP3 ADD SWAP1 POP DUP2 DUP2 SUB PUSH0 DUP4 ADD MSTORE PUSH2 0xD03 DUP2 PUSH2 0xCCA JUMP JUMPDEST SWAP1 POP SWAP2 SWAP1 POP JUMP INVALID LOG2 PUSH5 0x6970667358 0x22 SLT KECCAK256 DUPN 0xFA 0xD4 SMOD PUSH20 0xD6349682F64F6F6EA0A9413CDCC32CF491514DDE 0x1F PUSH11 0xB6EB621D2664736F6C6343 STOP ADDMOD 0x1E STOP CALLER "
				},
				"gasEstimates": {
					"creation": {
						"codeDepositCost": "678400",
						"executionCost": "97892",
						"totalCost": "776292"
					},
					"external": {
						"Deposite()": "infinite",
						"RegisterUser()": "24792",
						"Users(uint256)": "infinite",
						"Withdraw()": "infinite",
						"getACCountBalance()": "2613",
						"getAllUsers()": "infinite",
						"getDeposites()": "2664",
						"sendMoneyToUser(address)": "infinite",
						"stake(uint256)": "infinite"
					}
				},
				"methodIdentifiers": {
					"Deposite()": "da68b4b4",
					"RegisterUser()": "189e92ae",
					"Users(uint256)": "1e98fd1c",
					"Withdraw()": "57ea89b6",
					"getACCountBalance()": "f1fd08a7",
					"getAllUsers()": "e2842d79",
					"getDeposites()": "a07eb17a",
					"sendMoneyToUser(address)": "b559805f",
					"stake(uint256)": "a694fc3a"
				}
			},
			"storageLayout": {
				"storage": [
					{
						"astId": 40,
						"contract": "contracts/SimpleBank.sol:BasicBank",
						"label": "owner",
						"offset": 0,
						"slot": "0",
						"type": "t_address"
					},
					{
						"astId": 63,
						"contract": "contracts/SimpleBank.sol:BasicBank",
						"label": "account",
						"offset": 0,
						"slot": "1",
						"type": "t_mapping(t_address,t_struct(User)72_storage)"
					},
					{
						"astId": 67,
						"contract": "contracts/SimpleBank.sol:BasicBank",
						"label": "isRegisteredUser",
						"offset": 0,
						"slot": "2",
						"type": "t_mapping(t_address,t_bool)"
					},
					{
						"astId": 76,
						"contract": "contracts/SimpleBank.sol:BasicBank",
						"label": "Users",
						"offset": 0,
						"slot": "3",
						"type": "t_array(t_struct(User)72_storage)dyn_storage"
					}
				],
				"types": {
					"t_address": {
						"encoding": "inplace",
						"label": "address",
						"numberOfBytes": "20"
					},
					"t_array(t_struct(User)72_storage)dyn_storage": {
						"base": "t_struct(User)72_storage",
						"encoding": "dynamic_array",
						"label": "struct BasicBank.User[]",
						"numberOfBytes": "32"
					},
					"t_bool": {
						"encoding": "inplace",
						"label": "bool",
						"numberOfBytes": "1"
					},
					"t_mapping(t_address,t_bool)": {
						"encoding": "mapping",
						"key": "t_address",
						"label": "mapping(address => bool)",
						"numberOfBytes": "32",
						"value": "t_bool"
					},
					"t_mapping(t_address,t_struct(User)72_storage)": {
						"encoding": "mapping",
						"key": "t_address",
						"label": "mapping(address => struct BasicBank.User)",
						"numberOfBytes": "32",
						"value": "t_struct(User)72_storage"
					},
					"t_struct(User)72_storage": {
						"encoding": "inplace",
						"label": "struct BasicBank.User",
						"members": [
							{
								"astId": 69,
								"contract": "contracts/SimpleBank.sol:BasicBank",
								"label": "id",
								"offset": 0,
								"slot": "0",
								"type": "t_address"
							},
							{
								"astId": 71,
								"contract": "contracts/SimpleBank.sol:BasicBank",
								"label": "balance",
								"offset": 0,
								"slot": "1",
								"type": "t_uint256"
							}
						],
						"numberOfBytes": "64"
					},
					"t_uint256": {
						"encoding": "inplace",
						"label": "uint256",
						"numberOfBytes": "32"
					}
				}
			},
			"userdoc": {
				"kind": "user",
				"methods": {},
				"version": 1
			}
		}
	}
}